:020000040000FA
:04000000BCEF37F02A
:106F780002EE00F0DC0EEE6AE806FDE101EEF2F04A
:106F8800080EEE6AE806FDE100EE28F00A0EEE6A49
:106F9800E806FDE1000EF86E0001C1EF3AF00F0EB1
:106FA800C16E000EC26E000E926E000E936E000E41
:106FB800946E000E956E9668000E806E000E816EBF
:106FC800000E826E000E836E000E846E12000A6E32
:106FD8000A50D8B4F2EF37F0F4EF37F0F8EF37F0A3
:106FE8008A808A92FAEF37F08A928A82000E956E2A
:106FF8008A9609C08CFF8A8800D08A9800D08A9027
:107008008A921200016E0150D8B40DEF38F00FEFDC
:1070180038F013EF38F08A808A9215EF38F08A92A8
:107028008A8295688A868A8800D083CF02F08A98F7
:1070380000D08A908A9202501200000E236E2350CC
:10704800020D1CC01FF01DC020F0F3501F26F45085
:107058002022010E1F24D96E000E2020DA6EDF5088
:10706800196E1EC01AF02350020DF3CF21F0F4CF91
:1070780022F021501C24D96E22501D20DA6EDF50D8
:1070880050EC38F0232A030E23644DEF38F04FEF0D
:1070980038F023EF38F012001B6E1B50FC0DF35034
:1070A8003A0F126E1950040DF350050F136E1B5052
:1070B800FC0DF3503D0F146E1AC015F01950040D55
:1070C800F350020F97EC39F01B50FC0DF3503B0FB7
:1070D800126E1950040DF350040F136E1B50FC0D63
:1070E800F3503C0F146E1AC015F01950040DF350EC
:1070F800030F97EC39F012000D6E000E0C6E800E27
:107108000D6089EF38F08BEF38F0B3EF38F0070EE9
:107118000B6491EF38F093EF38F095EF38F0B3EF58
:1071280038F00DC031F00BC030F03F0E0D649FEF0A
:1071380038F0A1EF38F0A5EF38F0400E0D5E010EE3
:107148000C6E8A940D504009096E0C50EBEC37F028
:107158000B50B809096E0C50EBEC37F08A8412001A
:107168000B6E000E0D6E8A94400E096E000EEBEC4D
:1071780037F0400E096E010EEBEC37F00D50B809F0
:10718800096E000EEBEC37F00D50B809096E010ED0
:10719800EBEC37F08A84000E0C6E0B50010DF350A7
:1071A8000008096E000EEBEC37F00B50010DF350A0
:1071B8000008096E010EEBEC37F00C2A3F0E0C6448
:1071C800E8EF38F0EAEF38F0D1EF38F00D2A070E83
:1071D8000D64F1EF38F0F3EF38F0B7EF38F0120044
:1071E8000E6E000E836E8A9A210EE82EFED700F0EE
:1071F8008A8A8A988A908A928A9400D0C00E096EE8
:10720800000EEBEC37F0C00E096E010EEBEC37F018
:10721800400E096E000EEBEC37F0400E096E010EC1
:10722800EBEC37F0B80E096E000EEBEC37F0B80E49
:10723800096E010EEBEC37F00E04D8A426EF39F0F6
:1072480028EF39F034EF39F03F0E096E000EEBEC01
:1072580037F03F0E096E010EEBEC37F03EEF39F0D8
:107268003E0E096E000EEBEC37F03E0E096E010E75
:10727800EBEC37F0000EB4EC38F01200000E216E83
:10728800000E226E2150160D1CC01EF01DC01FF0EE
:10729800F3501E26F4501F2222501E24D96E000ED1
:1072A8001F20DA6EDE04D8A45CEF39F05EEF39F007
:1072B80065EF39F022C019F0010E1A6E215050EC1A
:1072C80038F02150160D1CC01EF01DC01FF0F350E1
:1072D8001E26F4501F2222501E24D96E000E1F2095
:1072E800DA6EDF50D8A47BEF39F07DEF39F084EF08
:1072F80039F022C019F0000E1A6E215050EC38F007
:10730800222A150E22648BEF39F08DEF39F046EF03
:1073180039F0212A090E216494EF39F096EF39F0FB
:1073280044EF39F01200166E1250145CD8B09FEF7B
:1073380039F0A1EF39F0A3EF39F0F5EF39F0165035
:10734800135CD8B0AAEF39F0ACEF39F0AEEF39F0F2
:10735800F5EF39F016C017F0ECEF39F012C018F05D
:10736800E2EF39F016501718D8B4BDEF39F0BFEF77
:1073780039F0DAEF39F013501718D8B4C6EF39F0EE
:10738800C8EF39F0DAEF39F014501818D8B4CFEF45
:1073980039F0D1EF39F0DAEF39F012501818D8A4D3
:1073A800D8EF39F0DAEF39F0E1EF39F018C00BF027
:1073B80015C00CF0175058EC3AF0182A1850145C05
:1073C800D8B0E9EF39F0EBEF39F0B6EF39F0172A1A
:1073D8001750135CD8B0F3EF39F0F5EF39F0B2EF8E
:1073E80039F01200000E066E04BEFFEF39F0FDEF13
:1073F80039F005EF3AF0036C041ED8B0042A010EE8
:10740800066E02BE0CEF3AF00AEF3AF012EF3AF0CD
:10741800016C021ED8B0022A010E061A000E086E70
:10742800000E076E03500410D8B41DEF3AF01FEF9A
:107438003AF047EF3AF0010E056E27EF3AF0D89090
:1074480003360436052A04AE2CEF3AF02EEF3AF054
:1074580023EF3AF0D890073608360350015C045001
:107468000258D8A03AEF3AF03CEF3AF041EF3AF040
:107478000350015E0450025A0780D8900432033248
:10748800052E2EEF3AF00650D8B44DEF3AF04FEFF4
:107498003AF053EF3AF0076C081ED8B0082A07C034
:1074A80001F008C002F012000F6E000E116E3F0EC0
:1074B8000F6461EF3AF063EF3AF067EF3AF0400E8D
:1074C8000F5E010E116E8A940F9E0F8C0FC009F08B
:1074D8001150EBEC37F00BC001F0026A000E046E9D
:1074E800080E036EF6EC39F00150BF0BB809096EAF
:1074F8001150EBEC37F08A84115006EC38F011503B
:1075080006EC38F0106E8A940FC009F01150EBECBD
:1075180037F00C50D8B493EF3AF095EF3AF0A8EF63
:107528003AF00BC00DF0070E0D16010E0E6E0D2A67
:10753800A0EF3AF0D8900E360D2E9EEF3AF00E508E
:107548001010106EBAEF3AF00BC00DF0070E0D16C2
:10755800010E0E6E0D2AB3EF3AF0D8900E360D2EAE
:10756800B1EF3AF00E50FF0A1014106E8A8410C062
:1075780009F01150EBEC37F01200D3EC37F0010EA4
:10758800F4EC38F0000E0101EF6F000EEE6F21EE03
:1075980000F0DB0EDE6AE806FDE221EEE6F0070EFB
:1075A800DE6AE806FDE221EEDCF0070EDE6AE80698
:1075B800FDE2010E156F010EDB6F010E2B6F010E40
:1075C800006F050EE66F060EE86F070EEA6F070EEE
:1075D800EC6F050EE76F050EE96F050EEB6F060EF3
:1075E800ED6F010E786F010E796F010E7A6F010E43
:1075F800906F000E0B6E010E80EC38F0150E126EB7
:107608005A0E136E3E0E146E010E156E010E97EC97
:1076180039F0000E1C6E010E1D6E42EC39F0DC0EC6
:107628001C6E010E1D6E000E1E6E21EC38F001015D
:10763800EE4BEF2BE60E1C6E010E1D6E010E1E6E3C
:1076480021EC38F0000E0101F16F000EF06FF0C16F
:1076580024F0F1C125F0D89024362536E60E266EA2
:10766800010E276E2450262625502722E451262471
:10767800D96EE5512720DA6ED890F035E16EF135F4
:10768800E26EDC0EE126010EE222DFCFE7FFF04BCF
:10769800F12BF1BF59EF3BF0F15109E1040EF05D18
:1076A800D8A059EF3BF05BEF3BF02BEF3BF08404A5
:1076B800D8A461EF3BF063EF3BF06AEF3BF05A0E62
:1076C8000B6E010E0C6E0A0E58EC3AF0020E84187E
:1076D800D8A471EF3BF073EF3BF07AEF3BF05A0E12
:1076E8000B6E010E0C6E1E0E58EC3AF0040E841848
:1076F800D8A481EF3BF083EF3BF08AEF3BF05A0EC2
:107708000B6E010E0C6E320E58EC3AF0120E01019F
:10771800EE19EF11D8A493EF3BF095EF3BF013EF80
:107728003BF0000EEF6F000EEE6F13EF3BF000EF33
:1077380000F0000000000000000000000000000051
:107748000000000000000000000000000000000031
:107758000000000000000000000000000000000021
:107768000000000000000000000000000000000011
:107778000000000000000000000000000000000001
:1077880000000000000000000000000000000000F1
:1077980000000000000000000000000000000000E1
:1077A80000000000000000000000000000000000D1
:1077B80000000000000000000000000000000000C1
:1077C80000000000000000000000000000000000B1
:1077D80000000000000000000000000000000000A1
:1077E8000000000000000000000000000000000091
:1077F8000000000000000000000000000000000081
:107808000000000000000000000000000000000070
:107818000000000000000000000000000000000060
:107828000000000000000000000000000000000050
:10783800000000000000000000000000065F5F0676
:107848000000000007070007070000147F7F147F6F
:107858007F1400242E6B6B3A120000466630180C19
:10786800666200307A4F5D377A48000407030000EB
:10787800000000001C3E63410000000041633E1C04
:10788800000000082A3E1C1C3E2A0808083E3E0844
:107898000800000080E060000000000808080808F0
:1078A80008000000006060000000006030180C064E
:1078B8000301003E7F71594D7F3E0040427F7F406B
:1078C800400000627359496F660000226349497F8E
:1078D800360000181C16537F7F5000276745457DEA
:1078E8003900003C7E4B4979300000030371790F61
:1078F800070000367F49497F360000064F49693F37
:107908001E000000006666000000000080E66600B9
:10791800000000081C3663410000002424242424AD
:10792800240000004163361C080000020351590F6F
:107938000600003E7F415D5D1F1E007C7E13137EA6
:107948007C0000417F7F49497F36001C3E634141EE
:10795800632200417F7F41633E1C00417F7F495D78
:10796800416300417F7F491D0103001C3E63415173
:107978007372007F7F08087F7F000000417F7F418E
:10798800000000307040417F3F0100417F7F081CAC
:10799800776300417F7F41406070007F7F0E1C0E3F
:1079A8007F7F007F7F060C187F7F001C3E6341634A
:1079B8003E1C00417F7F49090F06001E3F21717F51
:1079C8005E0000417F7F09197F6600266F4D59735D
:1079D80032000003417F7F410300007F7F40407FEA
:1079E8007F00001F3F60603F1F00007F7F3018301E
:1079F8007F7F0043673C183C674300074F78784F08
:107A0800070000476371594D677300007F7F41414C
:107A18000000000103060C183060000041417F7F20
:107A2800000000080C0603060C0800808080808097
:107A38008080800000030704000000207454543C38
:107A4800784000417F3F4848783000387C44446C97
:107A5800280000307848493F7F4000387C54545C07
:107A6800180000487E7F490302000098BCA4A4F8CF
:107A78007C0400417F7F08047C780000447D7D40C1
:107A880000000060E08080FD7D0000417F7F1038AD
:107A98006C440000417F7F400000007C7C18381C4B
:107AA8007C78007C7C04047C780000387C44447C2E
:107AB80038000084FCF8A4243C1800183C24A4F8DE
:107AC800FC8400447C784C041C1800485C545474B2
:107AD80024000000043E7F442400003C7C40403CDD
:107AE8007C40001C3C60603C1C00003C7C70387092
:107AF8007C3C00446C3810386C44009CBCA0A0FC52
:107B08007C00004C64745C4C64000008083E7741BB
:107B180041000000000077770000004141773E08EF
:107B2800080000020301030203010070784C464C70
:107B38007870000E9F91B1FB4A00003A7A40407A73
:107B48007A4000387C54555D19000002237555555C
:107B58007D7B42217554547D794000217555547CB4
:107B6800784000207457577C784000183CA4A4E45F
:107B7800400000023B7D55555D1B02397D54545D24
:107B8800190000397D55545C18000001457C7C4182
:107B98000100000203457D7D43020001457D7C40D4
:107BA800000000797D1612167D790070782B2B78ED
:107BB800700000447C7C5555450000207454547C6A
:107BC8007C54547C7E0B097F7F4900327B49497B7A
:107BD800320000327A48487A320000327A4A4878CD
:107BE8003000003A7B41417B7A40003A7A42407843
:107BF8007840009ABAA0A0FA7A000001193C66669B
:107C08003C19013D7D40407D3D0000183C24E7E7DC
:107C1800242400687E7F49436620002B2FFCFC2F1C
:107C28002B0000FFFF09092FF6F8A040C088FE7F4F
:107C3800090302207454557D79400000447D7D413C
:107C48000000003078484A7A320000387840427A9A
:107C58007A40007A7A0A0A7A7000007D7D19317DAF
:107C68007D000000262F292F2F280000262F292FDE
:107C780026000030784D4560200000383808080894
:107C880008000008080808383800004F6F3018CC82
:107C9800EEBB914F6F30186C76FBF90000007B7BD0
:107CA800000000081C3622081C362222361C082236
:107CB800361C08AA005500AA005500AA55AA55AABC
:107CC80055AA55DDFFAA77DDAAFF77000000FFFF60
:107CD800000000101010FFFF000000141414FFFF34
:107CE8000000001010FFFF00FFFF001010F0F01060
:107CF800F0F000141414FCFC0000001414F7F70052
:107D0800FFFF000000FFFF00FFFF001414F4F4045D
:107D1800FCFC0014141717101F1F0010101F1F1051
:107D28001F1F001414141F1F000000101010F0F083
:107D38000000000000001F1F1010101010101F1F5F
:107D4800101010101010F0F0101010000000FFFFBD
:107D58001010101010101010101010101010FFFF3D
:107D6800101010000000FFFF1414140000FFFF00A3
:107D7800FFFF1000001F1F101717140000FCFC0461
:107D8800F4F41414141717101717141414F4F40433
:107D9800F4F4140000FFFF00F7F71414141414147B
:107DA8001414141414F7F700F7F71414141417170D
:107DB80014141410101F1F101F1F10141414F4F49F
:107DC8001414141010F0F010F0F01000001F1F1021
:107DD8001F1F100000001F1F141414000000FCFCDB
:107DE8001414140000F0F010F0F0101010FFFF1041
:107DF800FFFF10141414FFFF1414141010101F1F89
:107E0800000000000000F0F0101010FFFFFFFFFF5F
:107E1800FFFFFFF0F0F0F0F0F0F0F0FFFFFFFF00E1
:107E280000000000000000FFFFFFFF0F0F0F0F0F03
:107E38000F0F0F387C446C386C4400FCFE2A2A3E35
:107E48001400007E7E020206060000027E7E027E8C
:107E58007E020063775D4963630000387C447C3CA4
:107E680004040080FE7E20203E1E000406027E7C64
:107E780006020099BDE7E7BD9900001C3E6B496BFF
:107E88003E1C004C7E7301737E4C0030784A4F7D57
:107E9800390000183C243C3C243C1898FC643C3EC7
:107EA800273D18000000000000000000000000004E
:107EB80000000000000000000000000000000000BA
:107EC80000000000000000000000000000000000AA
:107ED800000000000000000000000000000000009A
:107EE800000000000000000000000000000000008A
:107EF800000000000000000000000000000000007A
:107F08000000000000000000000000000000000069
:107F18000000000000000000000000000000000059
:107F28000000000000000000000000000000000049
:107F3800000000000000005C000C000C7C287C7C29
:107F4800447C241048285408000C00384400443865
:107F58000020100810381080400010101000400059
:107F6800201008384438007C006454484454281CC5
:107F7800107C4C542438542004740C285428085479
:107F88003800500080500010284428282844281021
:107F9800045408384C5C7814787C54283844447C61
:107FA80044387C54447C14043844347C107C007C71
:107FB8000020403C7C106C7C40407C087C7C047C2D
:107FC8007C447C7C14083844787C14684854240425
:107FD8007C047C407C3C403C7C207C6C106C1C60AD
:107FE8001C64544C7C4400081020447C000804089D
:077FF80080808004080000F6
:020000040020DA
:08000000FFFFFFFFFFFFFFFF00
:020000040030CA
:0E000000000C191EFF8301FF0FC00FE00F4020
:00000001FF
