:020000040000FA
:040000009EEF12F06D
:1024B60001500302F3CF05F0F4CF06F001500402F9
:1024C600F350062602500302F350062605C001F01B
:1024D60006C002F012000F0EC16E000EC26E000E94
:1024E600926E000E936E000E946E000E956E9668B8
:1024F600000E806E000E816E000E826E000E836EE0
:10250600000E846E1200FF0E0B6EFF0E0C6E09C0DD
:102516000DF00AC00EF00B500D260C500E220DC009
:1025260071F00EC072F00001736B746B756B766B95
:10253600776B786B120004EE00F0DC0EEE6AE806AC
:10254600FDE101EEDCF0100EEE6AE806FDE100EEBC
:1025560060F0190EEE6AE806FDE15F6A000EF86E9D
:10256600000176EF18F001C0D9FF02C0DAFFDECF16
:1025760003F0DDCF04F0010E0326000E0422030E45
:102586000316000E041601C0D9FF02C0DAFF03C00D
:10259600DEFF04C0DDFF12000A6E0A50D8B4D6EF83
:1025A60012F0D8EF12F0DCEF12F08A808A92DEEF9A
:1025B60012F08A928A82000E956E8A9609C08CFF66
:1025C6008A8800F000F08A9800F000F08A908A92DB
:1025D6001200016E0150D8B4F3EF12F0F5EF12F0CD
:1025E600F9EF12F08A808A92FBEF12F08A928A82C1
:1025F60095688A868A8800F000F083CF02F08A9870
:1026060000F000F08A908A920250120001500210E7
:10261600D8B410EF13F012EF13F026EF13F001C049
:10262600D9FF02C0DAFFFF0EDE6EFF0EDE6EFF0E72
:10263600DE6EFF0EDE6EFF0EDE6EFF0EDE6EFF0E30
:10264600DE6EFF0EDD6E01680268036804680568C9
:102656000668076808681200000E236E2350020DF4
:10266600F3CF1FF0F4CF20F01F501C24D96E20505A
:102676001D20DA6EDF50196E1EC01AF02350020DAF
:102686001CC021F01DC022F0F3502126F450222256
:10269600010E2124D96E000E2220DA6EDF505EEC88
:1026A60013F0232A030E23645BEF13F05DEF13F0A0
:1026B60031EF13F012001B6E1B50FC0DF3503A0F56
:1026C600126E1950040DF350050F136E1B50FC0DBE
:1026D600F3503D0F146E1AC015F01950040DF35047
:1026E600020F90EC15F01B50FC0DF3503B0F126ED1
:1026F6001950040DF350040F136E1B50FC0DF350CC
:102706003C0F146E1AC015F01950040DF350030F48
:1027160090EC15F012000D6E000E0C6E800E0D6022
:1027260097EF13F099EF13F0C1EF13F0070E0B6458
:102736009FEF13F0A1EF13F0A3EF13F0C1EF13F027
:102746000DC05FF00BC070F03F0E0D64ADEF13F0DF
:10275600AFEF13F0B3EF13F0400E0D5E010E0C6EEB
:102766008A940D504009096E0C50CFEC12F00B50B4
:10277600B809096E0C50CFEC12F08A8412000B6E69
:10278600000E0D6E8A94400E096E000ECFEC12F00C
:10279600400E096E010ECFEC12F00D50B809096E0D
:1027A600000ECFEC12F00D50B809096E010ECFECF9
:1027B60012F08A84000E0C6E0B50010DF3500008C7
:1027C600096E000ECFEC12F00B50010DF35000080D
:1027D600096E010ECFEC12F00C2A3F0E0C64F6EFD8
:1027E60013F0F8EF13F0DFEF13F00D2A070E0D6468
:1027F600FFEF13F001EF14F0C5EF13F01200000E17
:102806000E6E000E0D6E0DC005F00EC006F0D890CF
:102816000536063603C007F004C008F00550072643
:1028260006500822010E0724D96E000E0820DA6E23
:10283600DF50096ED8900D34D96E0E34DA6E03501F
:10284600D9260450DA22DF500A6E0A500A0D01C05A
:102856000BF002C00CF0F3500B26F4500C2209507A
:102866000B24D96E000E0C20DA6E010EDF6E0D4AB7
:102876000E2A0E5009E1040E0D5CD8A045EF14F0A7
:1028860047EF14F006EF14F012000E6E000E836E82
:102896008A9A210EE82EFED700F08A8A8A988A90B4
:1028A6008A928A9400F000F0C00E096E000ECFECFA
:1028B60012F0C00E096E010ECFEC12F0400E096E3A
:1028C600000ECFEC12F0400E096E010ECFEC12F0A6
:1028D600B80E096E000ECFEC12F0B80E096E010E9E
:1028E600CFEC12F00E04D8A47BEF14F07DEF14F0B9
:1028F60089EF14F03F0E096E000ECFEC12F03F0E7A
:10290600096E010ECFEC12F093EF14F03E0E096E35
:10291600000ECFEC12F03E0E096E010ECFEC12F057
:10292600000EC2EC13F0120020EE11F0070EDE6A64
:10293600E806FDE201A0A2EF14F0A4EF14F0B4EF54
:1029460014F0095011260A5012220B5013220C5073
:1029560014220D5015220E5016220F501722105019
:102966001822D89009360A360B360C360D360E3636
:102976000F361036D8900832073206320532043246
:102986000332023201320150021003100410051006
:10299600061007100810D8A4D3EF14F0D5EF14F0E2
:1029A6009DEF14F011C001F012C002F013C003F045
:1029B60014C004F015C005F016C006F017C007F0E5
:1029C60018C008F01200000E0F6E000E0E6E000EFC
:1029D600116E000E106E09C001F00AC002F0000E62
:1029E600046E0A0E036E5BEC12F007C00BF008C013
:1029F6000CF001500B2602500C2210500B24D96EFD
:102A060011500C20DA6EDE04D8A40CEF15F00EEF90
:102A160015F010EF15F00E4A0F2A104A112A115020
:102A260009E10A0E105CD8A01BEF15F01DEF15F09A
:102A3600EEEF14F0010E0E240B6E000E0F200C6E3E
:102A46000A0E0B180C10D8A42BEF15F02DEF15F06D
:102A560033EF15F0000E086E010E076E37EF15F016
:102A6600000E086E000E076E1200000E286E24BEC1
:102A760041EF15F03FEF15F047EF15F0236C241EDC
:102A8600D8B0242A010E286E26BE4EEF15F04CEF64
:102A960015F052EF15F0256C261ED8B0262A2550C3
:102AA6002610D8B459EF15F05BEF15F07FEF15F04F
:102AB600010E276E63EF15F0D89025362636272AA5
:102AC60026AE68EF15F06AEF15F05FEF15F02550AA
:102AD600235C26502458D8A073EF15F075EF15F037
:102AE60079EF15F02550235E2650245AD8902632C9
:102AF6002532272E6AEF15F02850D8B485EF15F049
:102B060087EF15F08BEF15F0236C241ED8B0242A1E
:102B160023C023F024C024F01200166E1250145C59
:102B2600D8B098EF15F09AEF15F09CEF15F0EEEF90
:102B360015F01650135CD8B0A3EF15F0A5EF15F0FD
:102B4600A7EF15F0EEEF15F016C017F0E5EF15F04C
:102B560012C018F0DBEF15F016501718D8B4B6EF00
:102B660015F0B8EF15F0D3EF15F013501718D8B4C9
:102B7600BFEF15F0C1EF15F0D3EF15F0145018188C
:102B8600D8B4C8EF15F0CAEF15F0D3EF15F0125010
:102B96001818D8A4D1EF15F0D3EF15F0DAEF15F029
:102BA60018C00BF015C00CF01750B1EC16F0182A2F
:102BB6001850145CD8B0E2EF15F0E4EF15F0AFEF63
:102BC60015F0172A1750135CD8B0ECEF15F0EEEF9E
:102BD60015F0ABEF15F01200150E126E5A0E136EAD
:102BE6003E0E146E010E156E010E90EC15F0000EE1
:102BF600216E000E226E22500A0D1CC01EF01DC052
:102C06001FF0F3501E26F4501F2221501E24D96EA9
:102C1600000E1F20DA6EDE04D8A414EF16F016EFAD
:102C260016F01DEF16F022C019F0010E1A6E215093
:102C36005EEC13F022500A0D1CC01EF01DC01FF0E2
:102C4600F3501E26F4501F2221501E24D96E000E6A
:102C56001F20DA6EDF50D8A433EF16F035EF16F0EA
:102C66003CEF16F022C019F0000E1A6E21505EECF1
:102C760013F0222A150E226443EF16F045EF16F0E4
:102C8600FEEF15F0212A090E21644CEF16F04EEFE7
:102C960016F0FCEF15F01200000E066E04BE58EF9B
:102CA60016F056EF16F05EEF16F0036C041ED8B061
:102CB600042A010E066E02BE65EF16F063EF16F0EB
:102CC6006BEF16F0016C021ED8B0022A010E061A2E
:102CD600000E086E000E076E03500410D8B476EF8F
:102CE60016F078EF16F0A0EF16F0010E056E80EFE5
:102CF60016F0D89003360436052A04AE85EF16F092
:102D060087EF16F07CEF16F0D8900736083603509A
:102D1600015C04500258D8A093EF16F095EF16F018
:102D26009AEF16F00350015E0450025A0780D890BD
:102D360004320332052E87EF16F00650D8B4A6EFFC
:102D460016F0A8EF16F0ACEF16F0076C081ED8B018
:102D5600082A07C001F008C002F012000F6E000E2C
:102D6600116E3F0E0F64BAEF16F0BCEF16F0C0EF0F
:102D760016F0400E0F5E010E116E8A940F9E0F8C98
:102D86000FC009F01150CFEC12F00BC001F0026A2F
:102D9600000E046E080E036E4FEC16F00150BF0BCA
:102DA600B809096E1150CFEC12F08A841150ECEC80
:102DB60012F01150ECEC12F0106E8A940FC009F06C
:102DC6001150CFEC12F00C50D8B4ECEF16F0EEEF39
:102DD60016F001EF17F00BC00DF0070E0D16010EE1
:102DE6000E6E0D2AF9EF16F0D8900E360D2EF7EF6F
:102DF60016F00E501010106E13EF17F00BC00DF0FA
:102E0600070E0D16010E0E6E0D2A0CEF17F0D89058
:102E16000E360D2E0AEF17F00E50FF0A1014106E24
:102E26008A8410C009F01150CFEC12F0120071C064
:102E360001F072C002F073C003F074C004F075C0F4
:102E460005F076C006F077C007F078C008F02D0EC2
:102E5600096E7F0E0A6E950E0B6E4C0E0C6E2D0EC5
:102E66000D6EF40E0E6E510E0F6E580E106E97EC20
:102E760014F001C01BF002C01CF003C01DF004C01A
:102E86001EF005C01FF006C020F007C021F008C0E4
:102E960022F0010E1B240001716F000E1C20726FC0
:102EA600000E1D20736F000E1E20746F000E1F2073
:102EB600756F000E2020766F000E2120776F000EB2
:102EC6002220786F71C01BF072C01CF073C01DF019
:102ED60074C01EF075C01FF076C020F077C021F0D8
:102EE60078C022F0320E81EF17F0D89022322132CC
:102EF60020321F321E321D321C321B32E82E78EF72
:102F060017F01BC019F01DC01AF0120009C011F00D
:102F16000AC012F011501210D8A494EF17F096EFD1
:102F260017F098EF17F0E4EF17F0000E146E000E8E
:102F3600136E11C001F012C002F0000E046E0A0EEC
:102F4600036E5BEC12F007C00BF008C00CF00150EA
:102F56000B2602500C2213500B2614500C22F60E90
:102F66000B24D96EFF0E0C20DA6E11C001F012C0D0
:102F760002F0000E046E0A0E036E5BEC12F007C040
:102F86000DF008C00EF001500D2602500E2213500F
:102F96000D24E16E14500E20E26EDFCFE7FF134AD8
:102FA600142A145009E10A0E135CD8A0DDEF17F0BD
:102FB600DFEF17F09CEF17F01106D8A012068DEF81
:102FC60017F0000E106E000E0F6E0F500724D96E0C
:102FD60010500820DA6E000EDF6E0F4A102A1050CD
:102FE60009E10A0E0F5CD8A0FBEF17F0FDEF17F012
:102FF600E8EF17F01200000E0F6E000E0E6E000EB8
:10300600116E000E106ED8901034D96E1134DA6E2F
:103016000350D9260450DA22DF50056E05500A0DFA
:1030260001C006F002C007F0F3500626F45007224E
:1030360010C008F011C009F0D8900836093603C050
:103046000AF004C00BF008500A2609500B22010EA4
:103056000A24D96E000E0B20DA6EDF500C6E0C506F
:103066000626000E07220A0E0624D96E000E072039
:10307600DA6EDE04D8B442EF18F044EF18F05EEFD3
:1030860018F0D8901034D96E1134DA6E0350D92660
:103096000450DA22DF50056E066A010E0526000E80
:1030A6000622160E05180610D8A45CEF18F05EEF7F
:1030B60018F064EF18F0000E0F6E010E0E6E71EF31
:1030C60018F0104A112A115009E1040E105CD8A01C
:1030D6006FEF18F071EF18F006EF18F00EC001F060
:1030E6000FC002F012006EEC12F0010E48EC14F064
:1030F600000E0B6E010E8EEC13F0000E016E000E2C
:10310600026E09EC13F001C037F002C038F003C0BC
:1031160039F004C03AF005C03BF006C03CF007C0E9
:103126003DF008C03EF037C009F039C00AF086EC21
:1031360012F020EE4BF0070EDE6AE806FDE220EE06
:103146003FF0070EDE6AE806FDE221EE00F0DB0E38
:10315600DE6AE806FDE2000E5E6E000E5D6E000E93
:10316600546E000E536E000E0001806F000E7F6FCE
:10317600000E486E000E476E000E566E000E556E1F
:10318600000E4A6E000E496E000E1C6E010E1D6E7C
:10319600EFEC15F0ABEF1AF0020E386E040E376E38
:1031A600BA0EE82EFED7372EFCD7382EFAD700F007
:1031B60000F055505610D8A4E3EF18F0E5EF18F0DC
:1031C60008EF19F0000E546E000E536E000E00014B
:1031D600806F040E7F6F1AEC17F019C023F01AC027
:1031E60024F0000E266E070E256E38EC15F023C06F
:1031F60049F024C04AF0000E5E6E000E5D6E000EB1
:10320600566E010E556E57EF19F0000E00017A6FDB
:10321600000E796F000E7C6F000E7B6F79C037F061
:103226007AC038F0D890373638364B0E396E000EE5
:103236003A6E3750392638503A227B513924D96EA6
:103246007C513A20DA6E79C03BF07AC03CF0D890D7
:103256003B363C363F0E3D6E000E3E6E3B503D26E5
:103266003C503E227B513D24E16E7C513E20E26E75
:10327600DFCFE7FF7B4B7C2B7C5109E1020E7B5DA8
:10328600D8A048EF19F04AEF19F011EF19F0794B71
:103296007A2B7A5109E1040E795DD8A055EF19F021
:1032A60057EF19F00DEF19F08404D8A45DEF19F06B
:1032B6005FEF19F06CEF19F000017F518011D8B45F
:1032C60067EF19F069EF19F06CEF19F07F07D8A0D6
:1032D6008007020E8418D8A473EF19F075EF19F061
:1032E60095EF19F00001805107E1080E7F5DD8B017
:1032F6007FEF19F081EF19F088EF19F05DB086EFD6
:1033060019F088EF19F093EF19F0805107E1060ED6
:103316007F5DD8B091EF19F093EF19F095EF19F0A2
:103326007F4B802B040E8418D8A49CEF19F09EEFD7
:1033360019F0A4EF19F05D0E016E000E026EB6ECE8
:1033460012F04B0E016E000E026E49C003F04AC029
:1033560004F031EC1DF04B0E016E000E026E53C0F0
:1033660003F054C004F07FC005F080C006F05DC0D5
:1033760007F05EC008F0B6EC1AF0000E016E010E02
:10338600026E4B0E036E000E046EFEEC17F001503B
:103396000210D8B4D1EF19F0D3EF19F038EF1AF0C4
:1033A600000E016E010E026E4B0E036E000E046ED1
:1033B60002EC14F0000E566E000E556E3F0E1C6E9B
:1033C600000E1D6E000E1E6E2FEC13F04B0E1C6EC3
:1033D600000E1D6E010E1E6E2FEC13F0000E1C6EFD
:1033E600010E1D6EEFEC15F0000E586E000E576EB6
:1033F600585009E1040E575CD8A004EF1AF006EF06
:103406001AF008EF1AF048EF1AF0000E5A6E000E86
:10341600596E5A5009E1020E595CD8A015EF1AF000
:1034260017EF1AF019EF1AF034EF1AF057C037F009
:1034360058C038F0D890373638363F0E396E000E01
:103446003A6E3750392638503A2259503924D96EB7
:103456005A503A20DA6E000EDF6E594A5A2A0CEF9D
:103466001AF0574A582AFBEF19F03F0E1C6E000E51
:103476001D6E000E1E6E2FEC13F04B0E1C6E000E12
:103486001D6E010E1E6E2FEC13F0000E00017E6FF6
:10349600000E7D6F7E5109E1160E7D5DD8A056EFB8
:1034A6001AF058EF1AF05AEF1AF082EF1AF0000EDF
:1034B600076E010E086E7DC009F07EC00AF0E6ECCC
:1034C60014F007500810D8B46BEF1AF06DEF1AF02D
:1034D6007DEF1AF0000E076E010E086E7DC009F032
:1034E6007EC00AF089EC17F0000E1C6E010E1D6EF0
:1034F600EFEC15F000017D4B7E2B4DEF1AF0534A91
:10350600542A000E5C6E000E5B6E5C5009E10A0EDA
:103516005B5CD8A091EF1AF093EF1AF095EF1AF0D2
:10352600ABEF1AF0000E5B24D96E010E5C20DA6E4A
:10353600DE04D8A4A1EF1AF0A3EF1AF0A7EF1AF051
:10354600000E486E010E476E5B4A5C2A88EF1AF041
:1035560047504810D8B4B2EF1AF0B4EF1AF0CFEFD4
:1035660018F000EF00F020EE11F00F0EDE6AE8060C
:10357600FDE2000E366E000E356EBEEF1CF0000E3C
:10358600226E000E216E000E246E000E236E21C0E8
:1035960009F022C00AF0D89009360A3601C00BF0AD
:1035A60002C00CF009500B260A500C2223500B24A3
:1035B600D96E24500C20DA6EDE04D8A4E5EF1AF09A
:1035C600E7EF1AF021EF1BF003502124096E045097
:1035D60022200A6E110E0B6E000E0C6ED89035343A
:1035E600D96E3634DA6ED890D936DA360B50D926FB
:1035F6000C50DA2209C0DEFF0AC0DDFF0550232485
:10360600096E065024200A6E35C00BF036C00CF049
:10361600D8900B360C36D8900B360C36020E0B268D
:10362600000E0C22110E0B24D96E000E0C20DA6E41
:1036360009C0DEFF0AC0DDFF354A362A234A242A9E
:10364600245009E1020E235CD8A02CEF1BF02EEFCC
:103656001BF0CAEF1AF0214A222A225009E1040E71
:10366600215CD8A039EF1BF03BEF1BF0C6EF1AF038
:10367600DCEF1CF0000E266E000E256E000E286E86
:10368600000E276E25C009F026C00AF0D89009362C
:103696000A3601C00BF002C00CF009500B260A5086
:1036A6000C2227500B24D96E28500C20DA6EDE042B
:1036B600D8A460EF1BF062EF1BF0A0EF1BF02750C1
:1036C600035C096E285004580A6E010E0926000E86
:1036D6000A22110E0B6E000E0C6ED8903534D96E80
:1036E6003634DA6ED890D936DA360B50D9260C50E5
:1036F600DA2209C0DEFF0AC0DDFF05502524096E67
:10370600065026200A6E35C00BF036C00CF0D89055
:103716000B360C36D8900B360C36020E0B26000EE6
:103726000C22110E0B24D96E000E0C20DA6E09C085
:10373600DEFF0AC0DDFF354A362A274A282A2850E6
:1037460009E1020E275CD8A0ABEF1BF0ADEF1BF032
:1037560045EF1BF0254A262A265009E1040E255C72
:10376600D8A0B8EF1BF0BAEF1BF041EF1BF0DCEF6F
:103776001CF0000E2A6E000E296E000E2C6E000E36
:103786002B6E29C009F02AC00AF0D89009360A36ED
:1037960001C00BF002C00CF009500B260A500C2297
:1037A6002B500B24D96E2C500C20DA6EDE04D8A4D4
:1037B600DFEF1BF0E1EF1BF023EF1CF02950035C59
:1037C600096E2A5004580A6E030E0926000E0A22B4
:1037D600110E0B6E000E0C6ED8903534D96E363441
:1037E600DA6ED890D936DA360B50D9260C50DA2252
:1037F60009C0DEFF0AC0DDFF2B50055C096E2C50A8
:1038060006580A6E010E0926000E0A2235C00BF074
:1038160036C00CF0D8900B360C36D8900B360C36DA
:10382600020E0B26000E0C22110E0B24D96E000E72
:103836000C20DA6E09C0DEFF0AC0DDFF354A362AE3
:103846002B4A2C2A2C5009E1020E2B5CD8A02EEF15
:103856001CF030EF1CF0C4EF1BF0294A2A2A2A502C
:1038660009E1040E295CD8A03BEF1CF03DEF1CF0EB
:10387600C0EF1BF0DCEF1CF0000E2E6E000E2D6E5E
:10388600000E306E000E2F6E2DC009F02EC00AF00D
:10389600D89009360A3601C00BF002C00CF0095068
:1038A6000B260A500C222F500B24D96E30500C20B8
:1038B600DA6EDE04D8A462EF1CF064EF1CF0A2EF0F
:1038C6001CF003502F24096E045030200A6E110E8E
:1038D6000B6E000E0C6ED8903534D96E3634DA6E17
:1038E600D890D936DA360B50D9260C50DA2209C0D0
:1038F600DEFF0AC0DDFF2D50055C096E2E5006580E
:103906000A6E030E0926000E0A2235C00BF036C0D9
:103916000CF0D8900B360C36D8900B360C36020EBF
:103926000B26000E0C22110E0B24D96E000E0C2055
:10393600DA6E09C0DEFF0AC0DDFF354A362A2F4A95
:10394600302A305009E1020E2F5CD8A0ADEF1CF0F2
:10395600AFEF1CF047EF1CF02D4A2E2A2E5009E13E
:10396600040E2D5CD8A0BAEF1CF0BCEF1CF043EFA0
:103976001CF0DCEF1CF007C009F008C00AF00A5082
:10398600000AD8B4C9EF1CF0DCEF1CF00950000A9D
:10399600D8B4C2EF1AF0010AD8B43DEF1BF0030AFF
:1039A600D8B4BCEF1BF0010AD8B43FEF1CF0DCEF33
:1039B6001CF0000E326E000E316E000E346E000EDC
:1039C600336E31C009F032C00AF0D89009360A3693
:1039D600D89009360A36110E0B6E000E0C6E095081
:1039E6000B260A500C22D8903334D96E3434DA6E52
:1039F6000B50D9260C50DA2231C00DF032C00EF031
:103A0600D8900D360E3601C00FF002C010F00D50E2
:103A16000F260E50102233500F24E16E3450102022
:103A2600E26EDFCFE7FF334A342A345009E1020E53
:103A3600335CD8A021EF1DF023EF1DF0E4EF1CF05E
:103A4600314A322A325009E1040E315CD8A02EEFF9
:103A56001DF030EF1DF0E0EF1CF01200000E0A6EB4
:103A6600000E096E000E0C6E000E0B6E09C005F0FE
:103A76000AC006F0D8900536063601C007F002C027
:103A860008F005500726065008220B500724D96E69
:103A96000C500820DA6E000EDF6E0B4A0C2A0C5012
:103AA60009E1020E0B5CD8A05BEF1DF05DEF1DF087
:103AB60039EF1DF0094A0A2A0A5009E1040E095C89
:103AC600D8A068EF1DF06AEF1DF035EF1DF0D5EFB9
:103AD6001FF0000E0E6E000E0D6ED8900D34D96ECE
:103AE6000E34DA6E0150D9260250DA22010EDF6E4C
:103AF6000D4A0E2A0E5009E1040E0D5CD8A086EF81
:103B06001DF088EF1DF070EF1DF0FFEF1FF0000EA7
:103B1600106E000E0F6E000E126E000E116E0FC0AC
:103B260005F010C006F0D8900536063601C007F03D
:103B360002C008F005500726065008221150072437
:103B4600D96E12500820DA6E010EDF6E114A122A63
:103B5600125009E1020E115CD8A0B4EF1DF0B6EFC9
:103B66001DF092EF1DF00F4A102A105009E1020EC7
:103B76000F5CD8A0C1EF1DF0C3EF1DF08EEF1DF056
:103B8600FFEF1FF0000E166E000E156E000E186E7B
:103B9600000E176E15501610D8A4D4EF1DF0D6EFF0
:103BA6001DF0DFEF1DF017041810D8B4DDEF1DF07F
:103BB600DFEF1DF009EF1EF0020E15181610D8A43F
:103BC600E7EF1DF0E9EF1DF0F2EF1DF017041810F6
:103BD600D8B4F0EF1DF0F2EF1DF009EF1EF015C09E
:103BE60005F016C006F0D8900536063601C007F077
:103BF60002C008F005500726065008221750072471
:103C0600D96E18500820DA6E010EDF6E174A182A90
:103C1600185009E1020E175CD8A014EF1EF016EF3B
:103C26001EF0CDEF1DF0154A162A165009E1030EB7
:103C3600155CD8A021EF1EF023EF1EF0C9EF1DF092
:103C4600FFEF1FF0000E1A6E000E196E000E1C6EAE
:103C5600000E1B6E19041A10D8A434EF1EF036EFAE
:103C66001EF03FEF1EF01B041C10D8B43DEF1EF0F3
:103C76003FEF1EF069EF1EF0020E19181A10D8A4B5
:103C860047EF1EF049EF1EF052EF1EF01B041C100A
:103C9600D8B450EF1EF052EF1EF069EF1EF019C0B7
:103CA60005F01AC006F0D8900536063601C007F0B2
:103CB60002C008F005500726065008221B500724AC
:103CC600D96E1C500820DA6E010EDF6E1B4A1C2AC4
:103CD6001C5009E1020E1B5CD8A074EF1EF076EFB3
:103CE6001EF02DEF1EF0194A1A2A1A5009E1030E8A
:103CF600195CD8A081EF1EF083EF1EF029EF1EF0AD
:103D0600FFEF1FF0000E1E6E000E1D6E000E206EE1
:103D1600000E1F6E205009E1020E1F5CD8A096EF20
:103D26001EF098EF1EF09AEF1EF0DAEF1EF01D045B
:103D36001E10D8A4A1EF1EF0A3EF1EF0ACEF1EF0EC
:103D46001F502010D8B4AAEF1EF0ACEF1EF0D6EF2D
:103D56001EF0020E1D181E10D8A4B4EF1EF0B6EF0A
:103D66001EF0BFEF1EF01F502010D8B4BDEF1EF09E
:103D7600BFEF1EF0D6EF1EF01DC005F01EC006F008
:103D8600D8900536063601C007F002C008F0055087
:103D96000726065008221F500724D96E20500820F7
:103DA600DA6E010EDF6E1F4A202A8DEF1EF01D4AC5
:103DB6001E2A1E5009E1030E1D5CD8A0E5EF1EF079
:103DC600E7EF1EF089EF1EF0FFEF1FF0000E226EE8
:103DD600000E216E225009E1030E215CD8A0F6EFF9
:103DE6001EF0F8EF1EF0FAEF1EF0FFEF1FF0000EC8
:103DF600246E000E236E245009E1020E235CD8A027
:103E060007EF1FF009EF1FF00BEF1FF04BEF1FF04E
:103E160021502210D8A412EF1FF014EF1FF01DEF4F
:103E26001FF023042410D8B41BEF1FF01DEF1FF062
:103E360047EF1FF0020E21182210D8A425EF1FF01D
:103E460027EF1FF030EF1FF023502410D8B42EEFC9
:103E56001FF030EF1FF047EF1FF021C005F022C022
:103E660006F0D8900536063601C007F002C008F005
:103E7600055007260650082223500724D96E2450E1
:103E86000820DA6E010EDF6E234A242AFEEF1EF0AA
:103E9600214A222AEDEF1EF0000E266E000E256E38
:103EA600265009E1030E255CD8A05CEF1FF05EEFFB
:103EB6001FF060EF1FF0FFEF1FF0000E286E000EE0
:103EC600276E285009E1020E275CD8A06DEF1FF07F
:103ED6006FEF1FF071EF1FF0B1EF1FF025502610A6
:103EE600D8A478EF1FF07AEF1FF083EF1FF027506A
:103EF6002810D8B481EF1FF083EF1FF0ADEF1FF04D
:103F0600020E25182610D8A48BEF1FF08DEF1FF098
:103F160096EF1FF027042810D8B494EF1FF096EF01
:103F26001FF0ADEF1FF025C005F026C006F0D890B3
:103F36000536063601C007F002C008F00550072610
:103F46000650082227500724D96E28500820DA6E1A
:103F5600010EDF6E274A282A64EF1FF0254A262A1B
:103F660053EF1FF0000E146E000E136E145009E18D
:103F7600040E135CD8A0C2EF1FF0C4EF1FF0C6EF0B
:103F86001FF0FFEF1FF0D8901334D96E1434DA6E99
:103F96000150D9260250DA22010EDF6E134A142A86
:103FA600B9EF1FF003C005F004C006F00650000A82
:103FB600D8B4E0EF1FF0B5EF1FF00550000AD8B4F3
:103FC6006CEF1DF0010AD8B48AEF1DF0030AD8B4CD
:103FD600C5EF1DF0010AD8B425EF1EF0070AD8B4C4
:103FE60085EF1EF0010AD8B4E9EF1EF0030AD8B433
:0A3FF6004FEF1FF0B5EF1FF01200AF
:020000040020DA
:08000000FFFFFFFFFFFFFFFF00
:020000040030CA
:0E000000000C191EFF8201FF03400360034045
:00000001FF
