:020000040000FA
:04000000A0EF36F047
:106B280099EF35F03106D8A0320631043210D8A4D6
:106B3800A0EF35F0A2EF35F096EF35F01200828421
:106B4800010E326E2C0E316E94EC35F08294010EEB
:106B5800326E2C0E316E94EC35F012008284000EE9
:106B6800326EE10E316E94EC35F08294000E326E86
:106B7800E10E316E94EC35F012008284010E326E13
:106B8800640E316E94EC35F08294010E326E640E10
:106B9800316E94EC35F012008284000E326EB20E23
:106BA800316E94EC35F08294000E326EB20E316E76
:106BB80094EC35F012008284000E326EEF0E316EC6
:106BC80094EC35F08294000E326EEF0E316E94EC38
:106BD80035F012008284000E326EFD0E316E94EC98
:106BE80035F08294000E326EFD0E316E94EC35F065
:106BF80012008284010E326E0C0E316E94EC35F068
:106C08008294010E326E0C0E316E94EC35F0120047
:106C18008284010E326E3E0E316E94EC35F0829411
:106C2800010E326E3E0E316E94EC35F01200828405
:106C3800000E326EC80E316E94EC35F08294000E60
:106C4800326EC80E316E94EC35F012008284000E5C
:106C5800326ED50E316E94EC35F08294000E326EA1
:106C6800D50E316E94EC35F01200DE030600F80202
:106C780003008E020100DB03000060040900DB034F
:106C880000003B040800B30405003B04080060044E
:106C98000300D4030200C40403000F0EC16E000EEB
:106CA800C26E000E926E000E936E000E946E000E71
:106CB800956E000E966E000E806E000E816E000EB0
:106CC800826E000E836E000E846E12003A6E3A5089
:106CD800D8B471EF36F073EF36F077EF36F08A807C
:106CE8008A9279EF36F08A928A82000E956E8A9699
:106CF80039C08CFF8A8800D08A9800D08A908A92FE
:106D08001200316E3150D8B48CEF36F08EEF36F079
:106D180092EF36F08A808A9294EF36F08A928A82CD
:106D280095688A868A8800D083CF32F08A9800D006
:106D38008A908A92325012006E0EF66E6F0EF76EBF
:106D4800000EF86E00EE60F010EE94F00900F5CF3A
:106D5800EEFFE550E150FAE1720EF66E6C0EF76E3A
:106D6800000EF86E00EE01F010EE30F00900F5CFDD
:106D7800EEFFE550E150FAE102EE00F0DC0EEE6ABB
:106D8800E806FDE1516A506A000EF86E00013BEF1B
:106D980037F03D6E000E3C6E800E3D60D6EF36F04B
:106DA800D8EF36F000EF37F0070E3B64DEEF36F031
:106DB800E0EF36F0E2EF36F000EF37F03DC051F08B
:106DC8003BC050F03F0E3D64ECEF36F0EEEF36F08E
:106DD800F2EF36F0400E3D5E010E3C6E8A943D5057
:106DE8004009396E3C506AEC36F03B50B809396EB0
:106DF8003C506AEC36F08A841200000E366E000EA3
:106E0800356E33503410D8B40CEF37F00EEF37F03E
:106E180036EF37F0010E376E16EF37F0D89033366D
:106E28003436372A34AE1BEF37F01DEF37F012EF48
:106E380037F0D890353636363350315C34503258C6
:106E4800D8A029EF37F02BEF37F030EF37F0335079
:106E5800315E3450325A3580D89034323332372E3E
:106E68001DEF37F035C031F036C032F0120051EC6A
:106E780036F0010E01EC38F0949421EE00F0DB0EB0
:106E8800DE6AE806FDE2010E0101156F010EDB6FF7
:106E9800010E2B6F010E006F010E786F010E796FD6
:106EA800010E7A6F010E906F000E77EC37F0000E2E
:106EB8003B6E010ECDEC36F0140E426E5A0E436E48
:106EC8003E0E446E010E456E010E4FEC38F0000E7A
:106ED800496E010E4A6E79EC39F01CEC3AF073EF0A
:106EE80037F000EF00F03B6E000E3D6E8A94400EC6
:106EF800396E000E6AEC36F0400E396E010E6AECFF
:106F080036F03D50B809396E000E6AEC36F03D5047
:106F1800B809396E010E6AEC36F08A84000E3C6EB0
:106F28003B50010DF3500008396E000E6AEC36F044
:106F38003B50010DF3500008396E010E6AEC36F033
:106F48003C2A3F0E3C64ABEF37F0ADEF37F094EFDF
:106F580037F03D2A070E3D64B4EF37F0B6EF37F04F
:106F68007AEF37F01200E402000015010100270152
:106F78000200940203002701020015010100F40138
:106F88000400FA00040027010200E40200004A019C
:106F98000300270102003F030100270102009402B9
:106FA8000300E40200004E020200F4010400F401B0
:106FB8000400940203008B010500F4010700BD01E1
:106FC80006008B0105005604000027010200E402B8
:106FD80000004A010300270102002B0201001501ED
:106FE80001002701020094020300E40200004E029F
:106FF8000200F4010400F40104003E6E000E836EEA
:107008008A9A210EE82EFED700F08A8A8A988A90FA
:107018008A928A9400D0C00E396E000E6AEC36F05F
:10702800C00E396E010E6AEC36F0400E396E000E55
:107038006AEC36F0400E396E010E6AEC36F0B80E86
:10704800396E000E6AEC36F0B80E396E010E6AEC35
:1070580036F03E04D8A433EF38F035EF38F041EF7E
:1070680038F03F0E396E000E6AEC36F03F0E396E7E
:10707800010E6AEC36F04BEF38F03E0E396E000E1A
:107088006AEC36F03E0E396E010E6AEC36F0000EF0
:1070980077EC37F01200466E4250445CD8B057EF98
:1070A80038F059EF38F05BEF38F0ADEF38F0465074
:1070B800435CD8B062EF38F064EF38F066EF38F030
:1070C800ADEF38F046C047F0A4EF38F042C048F0C2
:1070D8009AEF38F046504718D8B475EF38F077EF84
:1070E80038F092EF38F043504718D8B47EEF38F0B4
:1070F80080EF38F092EF38F044504818D8B487EF52
:1071080038F089EF38F092EF38F042504818D8A498
:1071180090EF38F092EF38F099EF38F048C03BF034
:1071280045C03CF0475010EC39F0482A4850445CC0
:10713800D8B0A1EF38F0A3EF38F06EEF38F0472A57
:107148004750435CD8B0ABEF38F0ADEF38F06AEF9A
:1071580038F01200000E366E34BEB7EF38F0B5EFD7
:1071680038F0BDEF38F0336C341ED8B0342A010E35
:10717800366E32BEC4EF38F0C2EF38F0CAEF38F0DE
:10718800316C321ED8B0322A010E361A000E386E13
:10719800000E376E33503410D8B4D5EF38F0D7EF2F
:1071A80038F0FFEF38F0010E356EDFEF38F0D89089
:1071B80033363436352A34AEE4EF38F0E6EF38F0BB
:1071C800DBEF38F0D890373638363350315C3450EE
:1071D8003258D8A0F2EF38F0F4EF38F0F9EF38F081
:1071E8003350315E3450325A3780D890343233328B
:1071F800352EE6EF38F03650D8B405EF39F007EF02
:1072080039F00BEF39F0376C381ED8B0382A37C050
:1072180031F038C032F012003F6E000E416E3F0E62
:107228003F6419EF39F01BEF39F01FEF39F0400ECA
:107238003F5E010E416E8A943F9E3F8C3FC039F0FD
:1072480041506AEC36F03BC031F0326A000E346EC1
:10725800080E336EAEEC38F03150BF0BB809396EFA
:1072680041506AEC36F08A84415085EC36F0415042
:1072780085EC36F0406E8A943FC039F041506AEC94
:1072880036F03C50D8B44BEF39F04DEF39F060EFA1
:1072980039F03BC03DF0070E3D16010E3E6E3D2A0B
:1072A80058EF39F0D8903E363D2E56EF39F03E5023
:1072B8004010406E72EF39F03BC03DF0070E3D16AE
:1072C800010E3E6E3D2A6BEF39F0D8903E363D2ECA
:1072D80069EF39F03E50FF0A4014406E8A8440C07E
:1072E80039F041506AEC36F01200000E4E6E000E76
:1072F8004F6E4E50160D49C04BF04AC04CF0F3503B
:107308004B26F4504C224F504B24D96E000E4C2083
:10731800DA6EDE04D8A493EF39F095EF39F0C3EFB5
:1073280039F04E50FC0DF3503A0F426E4F50040D99
:10733800F350050F436E4E50FC0DF3503D0F446E55
:10734800010E456E4F50040DF350020F4FEC38F00C
:107358004E50FC0DF3503B0F426E4F50040DF3504E
:10736800040F436E4E50FC0DF3503C0F446E010E5B
:10737800456E4F50040DF350030F4FEC38F04E504C
:10738800160D49C04BF04AC04CF0F3504B26F45050
:107398004C224F504B24D96E000E4C20DA6EDF5031
:1073A800D8A4D9EF39F0DBEF39F009EF3AF04E50B5
:1073B800FC0DF3503A0F426E4F50040DF350050F79
:1073C800436E4E50FC0DF3503D0F446E000E456E5B
:1073D8004F50040DF350020F4FEC38F04E50FC0D97
:1073E800F3503B0F426E4F50040DF350040F436EA1
:1073F8004E50FC0DF3503C0F446E000E456E4F503E
:10740800040DF350030F4FEC38F04F2A150E4F645C
:1074180010EF3AF012EF3AF07DEF39F04E2A090EEC
:107428004E6419EF3AF01BEF3AF07BEF39F0120097
:107438009494000E3F6E000E3E6E000E3D6E000EE0
:107448003C6E67EF3BF0010E386E000E396E020E8F
:107458003826000E3922D8903E34D96E3F34DA6E81
:10746800D890D936DA363850D9263950DA22DE5053
:10747800DE10D8A442EF3AF044EF3AF046EF3AF083
:10748800DFEC35F0010E386E000E396E020E38262C
:10749800000E3922D8903E34D96E3F34DA6ED89037
:1074A800D936DA363850D9263950DA22DE04DE10D9
:1074B800D8A461EF3AF063EF3AF065EF3AF00CECDC
:1074C80036F0010E386E000E396E020E3826000EA8
:1074D8003922D8903E34D96E3F34DA6ED890D936F6
:1074E800DA363850D9263950DA22030EDE18DE1083
:1074F800D8A481EF3AF083EF3AF085EF3AF0FDEC4B
:1075080035F0010E386E000E396E020E3826000E68
:107518003922D8903E34D96E3F34DA6ED890D936B5
:10752800DA363850D9263950DA22040EDE18DE1041
:10753800D8A4A1EF3AF0A3EF3AF0A5EF3AF0C1ECE6
:1075480035F0010E386E000E396E020E3826000E28
:107558003922D8903E34D96E3F34DA6ED890D93675
:10756800DA363850D9263950DA22050EDE18DE1000
:10757800D8A4C1EF3AF0C3EF3AF0C5EF3AF0B2EC55
:1075880035F0010E386E000E396E020E3826000EE8
:107598003922D8903E34D96E3F34DA6ED890D93635
:1075A800DA363850D9263950DA22020EDE18DE10C3
:1075B800D8A4E1EF3AF0E3EF3AF0E5EF3AF0A3ECC4
:1075C80035F0010E386E000E396E020E3826000EA8
:1075D8003922D8903E34D96E3F34DA6ED890D936F5
:1075E800DA363850D9263950DA22060EDE18DE107F
:1075F800D8A401EF3BF003EF3BF005EF3BF01BECA9
:1076080036F0010E386E000E396E020E3826000E66
:107618003922D8903E34D96E3F34DA6ED890D936B4
:10762800DA363850D9263950DA22070EDE18DE103D
:10763800D8A421EF3BF023EF3BF025EF3BF0D0EC53
:1076480035F0010E386E000E396E020E3826000E27
:107658003922D8903E34D96E3F34DA6ED890D93674
:10766800DA363850D9263950DA22090EDE18DE10FB
:10767800D8A441EF3BF043EF3BF045EF3BF02AEC59
:1076880036F0010E386E000E396E020E3826000EE6
:107698003922D8903E34D96E3F34DA6ED890D93634
:1076A800DA363850D9263950DA22080EDE18DE10BC
:1076B800D8A461EF3BF063EF3BF065EF3BF0EEECF5
:1076C80035F03C4A3D2A010E386E000E396ED890CE
:1076D8003E34D96E3F34DA6ED890D936DA3638501F
:1076E800D9263950DA22DECF31F0DDCF32F0000E64
:1076F800346E070E336E01EC37F031503C5C32507B
:107708003D58D8A08AEF3BF08CEF3BF027EF3AF0DA
:107718003E4A3F2A3FBE9AEF3BF03F5009E10C0E2C
:107728003E5CD8A09AEF3BF09CEF3BF021EF3AF09B
:10773800120000000000000000000000000000002F
:107748000000000000000000000000000000000031
:107758000000000000000000000000000000000021
:107768000000000000000000000000000000000011
:107778000000000000000000000000000000000001
:1077880000000000000000000000000000000000F1
:1077980000000000000000000000000000000000E1
:1077A80000000000000000000000000000000000D1
:1077B80000000000000000000000000000000000C1
:1077C80000000000000000000000000000000000B1
:1077D80000000000000000000000000000000000A1
:1077E8000000000000000000000000000000000091
:1077F8000000000000000000000000000000000081
:107808000000000000000000000000000000000070
:107818000000000000000000000000000000000060
:107828000000000000000000000000000000000050
:10783800000000000000000000000000065F5F0676
:107848000000000007070007070000147F7F147F6F
:107858007F1400242E6B6B3A120000466630180C19
:10786800666200307A4F5D377A48000407030000EB
:10787800000000001C3E63410000000041633E1C04
:10788800000000082A3E1C1C3E2A0808083E3E0844
:107898000800000080E060000000000808080808F0
:1078A80008000000006060000000006030180C064E
:1078B8000301003E7F71594D7F3E0040427F7F406B
:1078C800400000627359496F660000226349497F8E
:1078D800360000181C16537F7F5000276745457DEA
:1078E8003900003C7E4B4979300000030371790F61
:1078F800070000367F49497F360000064F49693F37
:107908001E000000006666000000000080E66600B9
:10791800000000081C3663410000002424242424AD
:10792800240000004163361C080000020351590F6F
:107938000600003E7F415D5D1F1E007C7E13137EA6
:107948007C0000417F7F49497F36001C3E634141EE
:10795800632200417F7F41633E1C00417F7F495D78
:10796800416300417F7F491D0103001C3E63415173
:107978007372007F7F08087F7F000000417F7F418E
:10798800000000307040417F3F0100417F7F081CAC
:10799800776300417F7F41406070007F7F0E1C0E3F
:1079A8007F7F007F7F060C187F7F001C3E6341634A
:1079B8003E1C00417F7F49090F06001E3F21717F51
:1079C8005E0000417F7F09197F6600266F4D59735D
:1079D80032000003417F7F410300007F7F40407FEA
:1079E8007F00001F3F60603F1F00007F7F3018301E
:1079F8007F7F0043673C183C674300074F78784F08
:107A0800070000476371594D677300007F7F41414C
:107A18000000000103060C183060000041417F7F20
:107A2800000000080C0603060C0800808080808097
:107A38008080800000030704000000207454543C38
:107A4800784000417F3F4848783000387C44446C97
:107A5800280000307848493F7F4000387C54545C07
:107A6800180000487E7F490302000098BCA4A4F8CF
:107A78007C0400417F7F08047C780000447D7D40C1
:107A880000000060E08080FD7D0000417F7F1038AD
:107A98006C440000417F7F400000007C7C18381C4B
:107AA8007C78007C7C04047C780000387C44447C2E
:107AB80038000084FCF8A4243C1800183C24A4F8DE
:107AC800FC8400447C784C041C1800485C545474B2
:107AD80024000000043E7F442400003C7C40403CDD
:107AE8007C40001C3C60603C1C00003C7C70387092
:107AF8007C3C00446C3810386C44009CBCA0A0FC52
:107B08007C00004C64745C4C64000008083E7741BB
:107B180041000000000077770000004141773E08EF
:107B2800080000020301030203010070784C464C70
:107B38007870000E9F91B1FB4A00003A7A40407A73
:107B48007A4000387C54555D19000002237555555C
:107B58007D7B42217554547D794000217555547CB4
:107B6800784000207457577C784000183CA4A4E45F
:107B7800400000023B7D55555D1B02397D54545D24
:107B8800190000397D55545C18000001457C7C4182
:107B98000100000203457D7D43020001457D7C40D4
:107BA800000000797D1612167D790070782B2B78ED
:107BB800700000447C7C5555450000207454547C6A
:107BC8007C54547C7E0B097F7F4900327B49497B7A
:107BD800320000327A48487A320000327A4A4878CD
:107BE8003000003A7B41417B7A40003A7A42407843
:107BF8007840009ABAA0A0FA7A000001193C66669B
:107C08003C19013D7D40407D3D0000183C24E7E7DC
:107C1800242400687E7F49436620002B2FFCFC2F1C
:107C28002B0000FFFF09092FF6F8A040C088FE7F4F
:107C3800090302207454557D79400000447D7D413C
:107C48000000003078484A7A320000387840427A9A
:107C58007A40007A7A0A0A7A7000007D7D19317DAF
:107C68007D000000262F292F2F280000262F292FDE
:107C780026000030784D4560200000383808080894
:107C880008000008080808383800004F6F3018CC82
:107C9800EEBB914F6F30186C76FBF90000007B7BD0
:107CA800000000081C3622081C362222361C082236
:107CB800361C08AA005500AA005500AA55AA55AABC
:107CC80055AA55DDFFAA77DDAAFF77000000FFFF60
:107CD800000000101010FFFF000000141414FFFF34
:107CE8000000001010FFFF00FFFF001010F0F01060
:107CF800F0F000141414FCFC0000001414F7F70052
:107D0800FFFF000000FFFF00FFFF001414F4F4045D
:107D1800FCFC0014141717101F1F0010101F1F1051
:107D28001F1F001414141F1F000000101010F0F083
:107D38000000000000001F1F1010101010101F1F5F
:107D4800101010101010F0F0101010000000FFFFBD
:107D58001010101010101010101010101010FFFF3D
:107D6800101010000000FFFF1414140000FFFF00A3
:107D7800FFFF1000001F1F101717140000FCFC0461
:107D8800F4F41414141717101717141414F4F40433
:107D9800F4F4140000FFFF00F7F71414141414147B
:107DA8001414141414F7F700F7F71414141417170D
:107DB80014141410101F1F101F1F10141414F4F49F
:107DC8001414141010F0F010F0F01000001F1F1021
:107DD8001F1F100000001F1F141414000000FCFCDB
:107DE8001414140000F0F010F0F0101010FFFF1041
:107DF800FFFF10141414FFFF1414141010101F1F89
:107E0800000000000000F0F0101010FFFFFFFFFF5F
:107E1800FFFFFFF0F0F0F0F0F0F0F0FFFFFFFF00E1
:107E280000000000000000FFFFFFFF0F0F0F0F0F03
:107E38000F0F0F387C446C386C4400FCFE2A2A3E35
:107E48001400007E7E020206060000027E7E027E8C
:107E58007E020063775D4963630000387C447C3CA4
:107E680004040080FE7E20203E1E000406027E7C64
:107E780006020099BDE7E7BD9900001C3E6B496BFF
:107E88003E1C004C7E7301737E4C0030784A4F7D57
:107E9800390000183C243C3C243C1898FC643C3EC7
:107EA800273D18000000000000000000000000004E
:107EB80000000000000000000000000000000000BA
:107EC80000000000000000000000000000000000AA
:107ED800000000000000000000000000000000009A
:107EE800000000000000000000000000000000008A
:107EF800000000000000000000000000000000007A
:107F08000000000000000000000000000000000069
:107F18000000000000000000000000000000000059
:107F28000000000000000000000000000000000049
:107F3800000000000000005C000C000C7C287C7C29
:107F4800447C241048285408000C00384400443865
:107F58000020100810381080400010101000400059
:107F6800201008384438007C006454484454281CC5
:107F7800107C4C542438542004740C285428085479
:107F88003800500080500010284428282844281021
:107F9800045408384C5C7814787C54283844447C61
:107FA80044387C54447C14043844347C107C007C71
:107FB8000020403C7C106C7C40407C087C7C047C2D
:107FC8007C447C7C14083844787C14684854240425
:107FD8007C047C407C3C403C7C207C6C106C1C60AD
:107FE8001C64544C7C4400081020447C000804089D
:077FF80080808004080000F6
:020000040020DA
:08000000FFFFFFFFFFFFFFFF00
:020000040030CA
:0E000000000C191EFF8301FF0FC00FE00F4020
:00000001FF
