:020000040000FA
:04000000C0EF37F026
:106F800002EE00F0DC0EEE6AE806FDE101EEF2F042
:106F9000080EEE6AE806FDE100EE2CF00A0EEE6A3D
:106FA000E806FDE1000EF86E0001C6EF3AF00F0EA4
:106FB000C16E000EC26E000E926E000E936E000E39
:106FC000946E000E956E000E966E000E806E000E92
:106FD000816E000E826E000E836E000E846E1200B3
:106FE0000A6E0A50D8B4F7EF37F0F9EF37F0FDEF3B
:106FF00037F08A808A92FFEF37F08A928A82000EF9
:10700000956E8A9609C08CFF8A8800D08A9800D035
:107010008A908A921200016E0150D8B412EF38F0B3
:1070200014EF38F018EF38F08A808A921AEF38F0AF
:107030008A928A8295688A868A8800D083CF02F0F5
:107040008A9800D08A908A9202501200000E236E15
:107050002350020D1CC01FF01DC020F0F3501F264E
:10706000F4502022010E1F24D96E000E2020DA6E6B
:10707000DF50196E1EC01AF02350020DF3CF21F01D
:10708000F4CF22F021501C24D96E22501D20DA6E3C
:10709000DF5055EC38F0232A030E236452EF38F00A
:1070A00054EF38F028EF38F012001B6E1B50FC0D27
:1070B000F3503A0F126E1950040DF350050F136E72
:1070C0001B50FC0DF3503D0F146E1AC015F01950F3
:1070D000040DF350020F9CEC39F01B50FC0DF350E3
:1070E0003B0F126E1950040DF350040F136E1B501A
:1070F000FC0DF3503C0F146E1AC015F01950040D1E
:10710000F350030F9CEC39F012000D6E000E0C6E64
:10711000800E0D608EEF38F090EF38F0B8EF38F059
:10712000070E0B6496EF38F098EF38F09AEF38F0CE
:10713000B8EF38F00DC035F00BC034F03F0E0D64E1
:10714000A4EF38F0A6EF38F0AAEF38F0400E0D5E4D
:10715000010E0C6E8A940D504009096E0C50F0EC33
:1071600037F00B50B809096E0C50F0EC37F08A84F8
:1071700012000B6E000E0D6E8A94400E096E000E0A
:10718000F0EC37F0400E096E010EF0EC37F00D50C8
:10719000B809096E000EF0EC37F00D50B809096E11
:1071A000010EF0EC37F08A84000E0C6E0B50010DCE
:1071B000F3500008096E000EF0EC37F00B50010D93
:1071C000F3500008096E010EF0EC37F00C2A3F0E68
:1071D0000C64EDEF38F0EFEF38F0D6EF38F00D2A11
:1071E000070E0D64F6EF38F0F8EF38F0BCEF38F02A
:1071F00012000E6E000E836E8A9A210EE82EFED7C4
:1072000000F08A8A8A988A908A928A9400D0C00E66
:10721000096E000EF0EC37F0C00E096E010EF0ECB6
:1072200037F0400E096E000EF0EC37F0400E096E9C
:10723000010EF0EC37F0B80E096E000EF0EC37F0EE
:10724000B80E096E010EF0EC37F00E04D8A42BEF47
:1072500039F02DEF39F039EF39F03F0E096E000E9D
:10726000F0EC37F03F0E096E010EF0EC37F043EF13
:1072700039F03E0E096E000EF0EC37F03E0E096E4E
:10728000010EF0EC37F0000EB9EC38F01200000EF1
:10729000216E000E226E2150160D1CC01EF01DC066
:1072A0001FF0F3501E26F4501F2222501E24D96EC8
:1072B000000E1F20DA6EDE04D8A461EF39F063EF10
:1072C00039F06AEF39F022C019F0010E1A6E215020
:1072D00055EC38F02150160D1CC01EF01DC01FF0DB
:1072E000F3501E26F4501F2222501E24D96E000E89
:1072F0001F20DA6EDF50D8A480EF39F082EF39F02A
:1073000089EF39F022C019F0000E1A6E215055ECA9
:1073100038F0222A150E226490EF39F092EF39F0FE
:107320004BEF39F0212A090E216499EF39F09BEFD8
:1073300039F049EF39F01200166E1250145CD8B0D3
:10734000A4EF39F0A6EF39F0A8EF39F0FAEF39F0F1
:107350001650135CD8B0AFEF39F0B1EF39F0B3EF9E
:1073600039F0FAEF39F016C017F0F1EF39F012C02A
:1073700018F0E7EF39F016501718D8B4C2EF39F00B
:10738000C4EF39F0DFEF39F013501718D8B4CBEF52
:1073900039F0CDEF39F0DFEF39F014501818D8B4C8
:1073A000D4EF39F0D6EF39F0DFEF39F0125018187A
:1073B000D8A4DDEF39F0DFEF39F0E6EF39F018C08F
:1073C0000BF015C00CF017505DEC3AF0182A18506D
:1073D000145CD8B0EEEF39F0F0EF39F0BBEF39F0D4
:1073E000172A1750135CD8B0F8EF39F0FAEF39F0DC
:1073F000B7EF39F01200000E066E04BE04EF3AF04B
:1074000002EF3AF00AEF3AF0036C041ED8B0042AF7
:10741000010E066E02BE11EF3AF00FEF3AF017EFD1
:107420003AF0016C021ED8B0022A010E061A000EB4
:10743000086E000E076E03500410D8B422EF3AF025
:1074400024EF3AF04CEF3AF0010E056E2CEF3AF0D3
:10745000D89003360436052A04AE31EF3AF033EF04
:107460003AF028EF3AF0D890073608360350015C1E
:1074700004500258D8A03FEF3AF041EF3AF046EFFF
:107480003AF00350015E0450025A0780D89004324B
:107490000332052E33EF3AF00650D8B452EF3AF0EB
:1074A00054EF3AF058EF3AF0076C081ED8B0082AAB
:1074B00007C001F008C002F012000F6E000E116E3E
:1074C0003F0E0F6466EF3AF068EF3AF06CEF3AF077
:1074D000400E0F5E010E116E8A940F9E0F8C0FC02E
:1074E00009F01150F0EC37F00BC001F0026A000E09
:1074F000046E080E036EFBEC39F00150BF0BB809A7
:10750000096E1150F0EC37F08A8411500BEC38F012
:1075100011500BEC38F0106E8A940FC009F0115026
:10752000F0EC37F00C50D8B498EF3AF09AEF3AF00C
:10753000ADEF3AF00BC00DF0070E0D16010E0E6EFA
:107540000D2AA5EF3AF0D8900E360D2EA3EF3AF0A3
:107550000E501010106EBFEF3AF00BC00DF0070E7A
:107560000D16010E0E6E0D2AB8EF3AF0D8900E36B9
:107570000D2EB6EF3AF00E50FF0A1014106E8A84EA
:1075800010C009F01150F0EC37F01200D7EC37F0D2
:10759000010EF9EC38F0000E0101ED6F000EEC6FFA
:1075A00021EE00F0DB0EDE6AE806FDE221EEE4F0FB
:1075B000070EDE6AE806FDE221EEDCF0070EDE6A69
:1075C000E806FDE2010E156F010EDB6F010E2B6F59
:1075D000010E006F050EE46F060EE66F070EE86FF2
:1075E000070EEA6F050EE56F050EE76F050EE96FF2
:1075F000060EEB6F010E786F010E796F010E7A6F38
:10760000010E906F000E0B6E010E85EC38F0150E1A
:10761000126E5A0E136E3E0E146E010E156E010E92
:107620009CEC39F0000E1C6E010E1D6E47EC39F01B
:10763000DC0E1C6E010E1D6E000E1E6E26EC38F068
:107640000101EC4BED2BE40E1C6E010E1D6E010EC4
:107650001E6E26EC38F0000E0101EF6F000EEE6F8B
:10766000000EF16F000EF06FF0C124F0F1C125F0B3
:10767000D89024362536E40E266E010E276E24504F
:10768000262625502722EE512624D96EEF51272099
:10769000DA6EF0C128F0F1C129F0D89028362936E9
:1076A000DC0E2A6E010E2B6E28502A2629502B2222
:1076B000EE512A24E16EEF512B20E26EDFCFE7FF7F
:1076C000F04BF12BF1BF6EEF3BF0F15109E1040EED
:1076D000F05DD8A06EEF3BF070EF3BF034EF3BF085
:1076E000EE4BEF2BEFBF7EEF3BF0EF5109E1020EC7
:1076F000EE5DD8A07EEF3BF080EF3BF030EF3BF04B
:10770000120EEC19ED11D8A488EF3BF08AEF3BF094
:107710008EEF3BF0000EED6F000EEC6F0B0E256E42
:10772000260E246E5E0EE82EFED7242EFCD7252EC4
:10773000FAD718EF3BF000EF00F000000000000067
:107740000000000000000000000000000000000039
:107750000000000000000000000000000000000029
:107760000000000000000000000000000000000019
:107770000000000000000000000000000000000009
:1077800000000000000000000000000000000000F9
:1077900000000000000000000000000000000000E9
:1077A00000000000000000000000000000000000D9
:1077B00000000000000000000000000000000000C9
:1077C00000000000000000000000000000000000B9
:1077D00000000000000000000000000000000000A9
:1077E0000000000000000000000000000000000099
:1077F0000000000000000000000000000000000089
:107800000000000000000000000000000000000078
:107810000000000000000000000000000000000068
:107820000000000000000000000000000000000058
:107830000000000000000000000000000000000048
:1078400000000000065F5F06000000000707000759
:10785000070000147F7F147F7F1400242E6B6B3A87
:10786000120000466630180C666200307A4F5D37B1
:107870007A48000407030000000000001C3E63413A
:107880000000000041633E1C000000082A3E1C1C52
:107890003E2A0808083E3E080800000080E060001C
:1078A00000000008080808080800000000606000E8
:1078B0000000006030180C060301003E7F71594D36
:1078C0007F3E0040427F7F40400000627359496F15
:1078D000660000226349497F360000181C16537F5A
:1078E0007F5000276745457D3900003C7E4B497934
:1078F000300000030371790F070000367F49497F8C
:10790000360000064F49693F1E0000000066660011
:107910000000000080E66600000000081C3663419D
:107920000000002424242424240000004163361C89
:10793000080000020351590F0600003E7F415D5DC3
:107940001F1E007C7E13137E7C0000417F7F49490F
:107950007F36001C3E634141632200417F7F4163CB
:107960003E1C00417F7F495D416300417F7F491D8F
:107970000103001C3E6341517372007F7F08087F42
:107980007F000000417F7F41000000307040417F58
:107990003F0100417F7F081C776300417F7F4140AA
:1079A0006070007F7F0E1C0E7F7F007F7F060C18AB
:1079B0007F7F001C3E6341633E1C00417F7F49097D
:1079C0000F06001E3F21717F5E0000417F7F091975
:1079D0007F6600266F4D597332000003417F7F415F
:1079E0000300007F7F40407F7F00001F3F60603FBB
:1079F0001F00007F7F3018307F7F0043673C183CBA
:107A0000674300074F78784F070000476371594D6F
:107A1000677300007F7F41410000000103060C18DE
:107A20003060000041417F7F000000080C06030623
:107A30000C08008080808080808080000003070424
:107A4000000000207454543C784000417F3F484877
:107A5000783000387C44446C280000307848493F36
:107A60007F4000387C54545C180000487E7F4903F6
:107A700002000098BCA4A4F87C0400417F7F0804A5
:107A80007C780000447D7D4000000060E08080FD47
:107A90007D0000417F7F10386C440000417F7F40B3
:107AA0000000007C7C18381C7C78007C7C04047C02
:107AB000780000387C44447C38000084FCF8A4241E
:107AC0003C1800183C24A4F8FC8400447C784C0446
:107AD0001C1800485C54547424000000043E7F4489
:107AE0002400003C7C40403C7C40001C3C60603CEE
:107AF0001C00003C7C7038707C3C00446C381038B2
:107B00006C44009CBCA0A0FC7C00004C64745C4CE9
:107B100064000008083E77414100000000007777CC
:107B20000000004141773E08080000020301030203
:107B300003010070784C464C7870000E9F91B1FBA9
:107B40004A00003A7A40407A7A4000387C54555DC9
:107B500019000002237555557D7B42217554547DD3
:107B6000794000217555547C784000207457577C2B
:107B7000784000183CA4A4E4400000023B7D555529
:107B80005D1B02397D54545D190000397D55545CEC
:107B900018000001457C7C410100000203457D7D09
:107BA00043020001457D7C40000000797D161216DD
:107BB0007D790070782B2B78700000447C7C5555C3
:107BC000450000207454547C7C54547C7E0B097F07
:107BD0007F4900327B49497B320000327A48487A3B
:107BE000320000327A4A48783000003A7B41417BCB
:107BF0007A40003A7A4240787840009ABAA0A0FAD7
:107C00007A000001193C66663C19013D7D40407DCB
:107C10003D0000183C24E7E7242400687E7F4943A8
:107C20006620002B2FFCFC2F2B0000FFFF09092FE3
:107C3000F6F8A040C088FE7F090302207454557DE9
:107C400079400000447D7D410000003078484A7A48
:107C5000320000387840427A7A40007A7A0A0A7A0A
:107C60007000007D7D19317D7D000000262F292FB9
:107C70002F280000262F292F26000030784D456040
:107C800020000038380808080800000808080838EC
:107C90003800004F6F3018CCEEBB914F6F30186C2E
:107CA00076FBF90000007B7B000000081C362208F0
:107CB0001C362222361C0822361C08AA005500AAAF
:107CC000005500AA55AA55AA55AA55DDFFAA77DD89
:107CD000AAFF77000000FFFF000000101010FFFF58
:107CE000000000141414FFFF0000001010FFFF003C
:107CF000FFFF001010F0F010F0F000141414FCFC62
:107D00000000001414F7F700FFFF000000FFFF0061
:107D1000FFFF001414F4F404FCFC001414171710F3
:107D20001F1F0010101F1F101F1F001414141F1FEF
:107D3000000000101010F0F00000000000001F1FF5
:107D40001010101010101F1F101010101010F0F055
:107D5000101010000000FFFF101010101010101075
:107D6000101010101010FFFF101010000000FFFF87
:107D70001414140000FFFF00FFFF1000001F1F106D
:107D80001717140000FCFC04F4F414141417171053
:107D90001717141414F4F404F4F4140000FFFF0093
:107DA000F7F71414141414141414141414F7F7001B
:107DB000F7F714141414171714141410101F1F10AD
:107DC0001F1F10141414F4F41414141010F0F010F5
:107DD000F0F01000001F1F101F1F100000001F1FD9
:107DE000141414000000FCFC1414140000F0F01033
:107DF000F0F0101010FFFF10FFFF10141414FFFF1D
:107E00001414141010101F1F000000000000F0F0E8
:107E1000101010FFFFFFFFFFFFFFFFF0F0F0F0F08A
:107E2000F0F0F0FFFFFFFF0000000000000000FF87
:107E3000FFFFFF0F0F0F0F0F0F0F0F387C446C3831
:107E40006C4400FCFE2A2A3E1400007E7E020206DC
:107E5000060000027E7E027E7E020063775D49633B
:107E6000630000387C447C3C04040080FE7E2020BB
:107E70003E1E000406027E7C06020099BDE7E7BDB7
:107E80009900001C3E6B496B3E1C004C7E730173D5
:107E90007E4C0030784A4F7D390000183C243C3C31
:107EA000243C1898FC643C3E273D1800000000006C
:107EB00000000000000000000000000000000000C2
:107EC00000000000000000000000000000000000B2
:107ED00000000000000000000000000000000000A2
:107EE0000000000000000000000000000000000092
:107EF0000000000000000000000000000000000082
:107F00000000000000000000000000000000000071
:107F10000000000000000000000000000000000061
:107F20000000000000000000000000000000000051
:107F30000000000000000000000000000000005CE5
:107F4000000C000C7C287C7C447C241048285408BD
:107F5000000C00384400443800201008103810800D
:107F60004000101010004000201008384438007CF9
:107F7000006454484454281C107C4C542438542029
:107F800004740C2854280854380050008050001005
:107F90002844282828442810045408384C5C7814B5
:107FA000787C54283844447C44387C54447C140401
:107FB0003844347C107C007C0020403C7C106C7C7D
:107FC00040407C087C7C047C7C447C7C14083844E5
:107FD000787C1468485424047C047C407C3C403CFD
:107FE0007C207C6C106C1C601C64544C7C4400082D
:0F7FF0001020447C0008040880808004080000F2
:020000040020DA
:08000000FFFFFFFFFFFFFFFF00
:020000040030CA
:0E000000000C191EFF8301FF0FC00FE00F4020
:00000001FF
