:020000040000FA
:0400000068EF37F07E
:106ED00002EE00F0DC0EEE6AE806FDE101EEF2F0F3
:106EE000080EEE6AE806FDE100EE2CF00A0EEE6AEE
:106EF000E806FDE1000EF86E000175EF3AF00F0EA6
:106F0000C16E000EC26E000E926E000E936E000EE9
:106F1000946E000E956E000E966E000E806E000E42
:106F2000816E000E826E000E836E000E846E120063
:106F30000A6E0A50D8B49FEF37F0A1EF37F0A5EFF3
:106F400037F08A808A92A7EF37F08A928A82000E01
:106F5000956E8A9609C08CFF8A8800D08A9800D0E6
:106F60008A908A921200016E0150D8B4BAEF37F0BD
:106F7000BCEF37F0C0EF37F08A808A92C2EF37F06B
:106F80008A928A8295688A868A8800D083CF02F0A6
:106F90008A9800D08A908A92025012001B6E1B5071
:106FA000FC0DF3503A0F126E1950040DF350050FFB
:106FB000136E1B50FC0DF3503D0F146E1AC015F0EC
:106FC0001950040DF350020F4BEC39F01B50FC0D1F
:106FD000F3503B0F126E1950040DF350040F136E53
:106FE0001B50FC0DF3503C0F146E1AC015F01950D5
:106FF000040DF350030F4BEC39F012000D6E000E30
:107000000C6E800E0D6007EF38F009EF38F031EFAD
:1070100038F0070E0B640FEF38F011EF38F013EF74
:1070200038F031EF38F00DC035F00BC034F03F0EC2
:107030000D641DEF38F01FEF38F023EF38F0400EED
:107040000D5E010E0C6E8A940D504009096E0C50B5
:1070500098EC37F00B50B809096E0C5098EC37F0EB
:107060008A841200000E226E000E236E2250020D42
:107070001CC01FF01DC020F0F3501F26F45020222A
:1070800023501F24D96E000E2020DA6EDE04D8A40F
:107090004CEF38F04EEF38F055EF38F023C019F0D0
:1070A0001EC01AF02250CEEC37F0232A030E2364C0
:1070B0005CEF38F05EEF38F036EF38F0222A010E40
:1070C000226465EF38F067EF38F034EF38F01200E3
:1070D0000B6E000E0D6E8A94400E096E000E98EC39
:1070E00037F0400E096E010E98EC37F00D50B809DC
:1070F000096E000E98EC37F00D50B809096E010EBC
:1071000098EC37F08A84000E0C6E0B50010DF35092
:107110000008096E000E98EC37F00B50010DF3508B
:107120000008096E010E98EC37F00C2A3F0E0C6433
:107130009CEF38F09EEF38F085EF38F00D2A070EFF
:107140000D64A5EF38F0A7EF38F06BEF38F01200C0
:107150000E6E000E836E8A9A210EE82EFED700F086
:107160008A8A8A988A908A928A9400D0C00E096E80
:10717000000E98EC37F0C00E096E010E98EC37F057
:10718000400E096E000E98EC37F0400E096E010EAD
:1071900098EC37F0B80E096E000E98EC37F0B80E88
:1071A000096E010E98EC37F00E04D8A4DAEF38F02F
:1071B000DCEF38F0E8EF38F03F0E096E000E98EC87
:1071C00037F03F0E096E010E98EC37F0F2EF38F011
:1071D0003E0E096E000E98EC37F03E0E096E010E61
:1071E00098EC37F0000E68EC38F01200000E216EBB
:1071F000000E226E2150160D1CC01EF01DC01FF087
:10720000F3501E26F4501F2222501E24D96E000E69
:107210001F20DA6EDE04D8A410EF39F012EF39F037
:1072200019EF39F022C019F0010E1A6E2150CEEC80
:1072300037F02150160D1CC01EF01DC01FF0F3507A
:107240001E26F4501F2222501E24D96E000E1F202D
:10725000DA6EDF50D8A42FEF39F031EF39F038EF84
:1072600039F022C019F0000E1A6E2150CEEC37F022
:10727000222A150E22643FEF39F041EF39F0FAEF80
:1072800038F0212A090E216448EF39F04AEF39F02D
:10729000F8EF38F01200166E1250145CD8B053EFAD
:1072A00039F055EF39F057EF39F0A9EF39F01650B2
:1072B000135CD8B05EEF39F060EF39F062EF39F06F
:1072C000A9EF39F016C017F0A0EF39F012C018F08E
:1072D00096EF39F016501718D8B471EF39F073EFF4
:1072E00039F08EEF39F013501718D8B47AEF39F01F
:1072F0007CEF39F08EEF39F014501818D8B483EFC2
:1073000039F085EF39F08EEF39F012501818D8A403
:107310008CEF39F08EEF39F095EF39F018C00BF0A3
:1073200015C00CF017500CEC3AF0182A1850145CE9
:10733000D8B09DEF39F09FEF39F06AEF39F0172A96
:107340001750135CD8B0A7EF39F0A9EF39F066EF0A
:1073500039F01200000E066E04BEB3EF39F0B1EF43
:1073600039F0B9EF39F0036C041ED8B0042A010ECD
:10737000066E02BEC0EF39F0BEEF39F0C6EF39F04D
:10738000016C021ED8B0022A010E061A000E086E09
:10739000000E076E03500410D8B4D1EF39F0D3EFCC
:1073A00039F0FBEF39F0010E056EDBEF39F0D890C4
:1073B00003360436052A04AEE0EF39F0E2EF39F087
:1073C000D7EF39F0D890073608360350015C0450E7
:1073D0000258D8A0EEEF39F0F0EF39F0F5EF39F0C0
:1073E0000350015E0450025A0780D89004320332E1
:1073F000052EE2EF39F00650D8B401EF3AF003EF72
:107400003AF007EF3AF0076C081ED8B0082A07C018
:1074100001F008C002F012000F6E000E116E3F0E58
:107420000F6415EF3AF017EF3AF01BEF3AF0400E09
:107430000F5E010E116E8A940F9E0F8C0FC009F023
:10744000115098EC37F00BC001F0026A000E046E88
:10745000080E036EAAEC39F00150BF0BB809096E93
:10746000115098EC37F08A841150B3EC37F011507A
:10747000B3EC37F0106E8A940FC009F0115098ECFD
:1074800037F00C50D8B447EF3AF049EF3AF05CEFE0
:107490003AF00BC00DF0070E0D16010E0E6E0D2A00
:1074A00054EF3AF0D8900E360D2E52EF3AF00E50BF
:1074B0001010106E6EEF3AF00BC00DF0070E0D16A7
:1074C000010E0E6E0D2A67EF3AF0D8900E360D2E93
:1074D00065EF3AF00E50FF0A1014106E8A8410C047
:1074E00009F0115098EC37F012007FEC37F0010EE4
:1074F000A8EC38F0000E0101F16F000EF06F21EEE4
:1075000000F0DB0EDE6AE806FDE221EEE4F0070E95
:10751000DE6AE806FDE221EEDCF0070EDE6AE80630
:10752000FDE2010E156F010EDB6F010E2B6F010ED8
:10753000006F010EE46F010EE66F010EE86F010EA1
:10754000EA6F010EEB6F010E786F010E796F010E7D
:107550007A6F010E906F000E0B6E010EFEEC37F08D
:10756000150E126E5A0E136E3E0E146E010E156E2F
:10757000010E4BEC39F0000E1C6E010E1D6EF6EC88
:1075800038F0DC0E1C6E010E1D6E000E1E6E32EC0D
:1075900038F00101F04BF12BE40E1C6E010E1D6E54
:1075A000010E1E6E32EC38F0000E0101ED6F000E80
:1075B000EC6F000EEF6F000EEE6FEEC124F0EFC126
:1075C00025F0D89024362536E40E266E010E276E5F
:1075D0002450262625502722EC512624D96EED5121
:1075E0002720DA6EEEC128F0EFC129F0D8902836B6
:1075F0002936DC0E2A6E010E2B6E28502A262950C1
:107600002B22EC512A24E16EED512B20E26EDFCFCC
:10761000E7FFEE4BEF2BEFBF17EF3BF0EF5109E128
:10762000040EEE5DD8A017EF3BF019EF3BF0DDEF55
:107630003AF0EC4BED2BEDBF27EF3BF0ED5109E1BC
:10764000020EEC5DD8A027EF3BF029EF3BF0D9EF1D
:107650003AF0D890F035D96EF135DA6EE40ED926CD
:10766000010EDA22010EDF6EF0C124F0F1C125F027
:10767000D89024362536020E2426000E2522E40E4C
:107680002424D96E010E2520DA6E010EDF6EF0C1C2
:1076900024F0F1C125F0D89024362536040E242696
:1076A000000E2522E40E2424D96E010E2520DA6E68
:1076B000010EDF6EF0C124F0F1C125F0D890243620
:1076C0002536060E2426000E2522E40E2424D96E2B
:1076D000010E2520DA6E010EDF6EF0C124F0F1C13B
:1076E00025F0D89024362536070E2426000E2522B4
:1076F000E40E2424D96E010E2520DA6E010EDF6E11
:10770000150EF019F111D8A488EF3BF08AEF3BF089
:107710008EEF3BF0000EF16F000EF06F0B0E256E3A
:10772000260E246E5E0EE82EFED7242EFCD7252EC4
:10773000FAD7C1EF3AF000EF00F0000000000000BF
:107740000000000000000000000000000000000039
:107750000000000000000000000000000000000029
:107760000000000000000000000000000000000019
:107770000000000000000000000000000000000009
:1077800000000000000000000000000000000000F9
:1077900000000000000000000000000000000000E9
:1077A00000000000000000000000000000000000D9
:1077B00000000000000000000000000000000000C9
:1077C00000000000000000000000000000000000B9
:1077D00000000000000000000000000000000000A9
:1077E0000000000000000000000000000000000099
:1077F0000000000000000000000000000000000089
:107800000000000000000000000000000000000078
:107810000000000000000000000000000000000068
:107820000000000000000000000000000000000058
:107830000000000000000000000000000000000048
:1078400000000000065F5F06000000000707000759
:10785000070000147F7F147F7F1400242E6B6B3A87
:10786000120000466630180C666200307A4F5D37B1
:107870007A48000407030000000000001C3E63413A
:107880000000000041633E1C000000082A3E1C1C52
:107890003E2A0808083E3E080800000080E060001C
:1078A00000000008080808080800000000606000E8
:1078B0000000006030180C060301003E7F71594D36
:1078C0007F3E0040427F7F40400000627359496F15
:1078D000660000226349497F360000181C16537F5A
:1078E0007F5000276745457D3900003C7E4B497934
:1078F000300000030371790F070000367F49497F8C
:10790000360000064F49693F1E0000000066660011
:107910000000000080E66600000000081C3663419D
:107920000000002424242424240000004163361C89
:10793000080000020351590F0600003E7F415D5DC3
:107940001F1E007C7E13137E7C0000417F7F49490F
:107950007F36001C3E634141632200417F7F4163CB
:107960003E1C00417F7F495D416300417F7F491D8F
:107970000103001C3E6341517372007F7F08087F42
:107980007F000000417F7F41000000307040417F58
:107990003F0100417F7F081C776300417F7F4140AA
:1079A0006070007F7F0E1C0E7F7F007F7F060C18AB
:1079B0007F7F001C3E6341633E1C00417F7F49097D
:1079C0000F06001E3F21717F5E0000417F7F091975
:1079D0007F6600266F4D597332000003417F7F415F
:1079E0000300007F7F40407F7F00001F3F60603FBB
:1079F0001F00007F7F3018307F7F0043673C183CBA
:107A0000674300074F78784F070000476371594D6F
:107A1000677300007F7F41410000000103060C18DE
:107A20003060000041417F7F000000080C06030623
:107A30000C08008080808080808080000003070424
:107A4000000000207454543C784000417F3F484877
:107A5000783000387C44446C280000307848493F36
:107A60007F4000387C54545C180000487E7F4903F6
:107A700002000098BCA4A4F87C0400417F7F0804A5
:107A80007C780000447D7D4000000060E08080FD47
:107A90007D0000417F7F10386C440000417F7F40B3
:107AA0000000007C7C18381C7C78007C7C04047C02
:107AB000780000387C44447C38000084FCF8A4241E
:107AC0003C1800183C24A4F8FC8400447C784C0446
:107AD0001C1800485C54547424000000043E7F4489
:107AE0002400003C7C40403C7C40001C3C60603CEE
:107AF0001C00003C7C7038707C3C00446C381038B2
:107B00006C44009CBCA0A0FC7C00004C64745C4CE9
:107B100064000008083E77414100000000007777CC
:107B20000000004141773E08080000020301030203
:107B300003010070784C464C7870000E9F91B1FBA9
:107B40004A00003A7A40407A7A4000387C54555DC9
:107B500019000002237555557D7B42217554547DD3
:107B6000794000217555547C784000207457577C2B
:107B7000784000183CA4A4E4400000023B7D555529
:107B80005D1B02397D54545D190000397D55545CEC
:107B900018000001457C7C410100000203457D7D09
:107BA00043020001457D7C40000000797D161216DD
:107BB0007D790070782B2B78700000447C7C5555C3
:107BC000450000207454547C7C54547C7E0B097F07
:107BD0007F4900327B49497B320000327A48487A3B
:107BE000320000327A4A48783000003A7B41417BCB
:107BF0007A40003A7A4240787840009ABAA0A0FAD7
:107C00007A000001193C66663C19013D7D40407DCB
:107C10003D0000183C24E7E7242400687E7F4943A8
:107C20006620002B2FFCFC2F2B0000FFFF09092FE3
:107C3000F6F8A040C088FE7F090302207454557DE9
:107C400079400000447D7D410000003078484A7A48
:107C5000320000387840427A7A40007A7A0A0A7A0A
:107C60007000007D7D19317D7D000000262F292FB9
:107C70002F280000262F292F26000030784D456040
:107C800020000038380808080800000808080838EC
:107C90003800004F6F3018CCEEBB914F6F30186C2E
:107CA00076FBF90000007B7B000000081C362208F0
:107CB0001C362222361C0822361C08AA005500AAAF
:107CC000005500AA55AA55AA55AA55DDFFAA77DD89
:107CD000AAFF77000000FFFF000000101010FFFF58
:107CE000000000141414FFFF0000001010FFFF003C
:107CF000FFFF001010F0F010F0F000141414FCFC62
:107D00000000001414F7F700FFFF000000FFFF0061
:107D1000FFFF001414F4F404FCFC001414171710F3
:107D20001F1F0010101F1F101F1F001414141F1FEF
:107D3000000000101010F0F00000000000001F1FF5
:107D40001010101010101F1F101010101010F0F055
:107D5000101010000000FFFF101010101010101075
:107D6000101010101010FFFF101010000000FFFF87
:107D70001414140000FFFF00FFFF1000001F1F106D
:107D80001717140000FCFC04F4F414141417171053
:107D90001717141414F4F404F4F4140000FFFF0093
:107DA000F7F71414141414141414141414F7F7001B
:107DB000F7F714141414171714141410101F1F10AD
:107DC0001F1F10141414F4F41414141010F0F010F5
:107DD000F0F01000001F1F101F1F100000001F1FD9
:107DE000141414000000FCFC1414140000F0F01033
:107DF000F0F0101010FFFF10FFFF10141414FFFF1D
:107E00001414141010101F1F000000000000F0F0E8
:107E1000101010FFFFFFFFFFFFFFFFF0F0F0F0F08A
:107E2000F0F0F0FFFFFFFF0000000000000000FF87
:107E3000FFFFFF0F0F0F0F0F0F0F0F387C446C3831
:107E40006C4400FCFE2A2A3E1400007E7E020206DC
:107E5000060000027E7E027E7E020063775D49633B
:107E6000630000387C447C3C04040080FE7E2020BB
:107E70003E1E000406027E7C06020099BDE7E7BDB7
:107E80009900001C3E6B496B3E1C004C7E730173D5
:107E90007E4C0030784A4F7D390000183C243C3C31
:107EA000243C1898FC643C3E273D1800000000006C
:107EB00000000000000000000000000000000000C2
:107EC00000000000000000000000000000000000B2
:107ED00000000000000000000000000000000000A2
:107EE0000000000000000000000000000000000092
:107EF0000000000000000000000000000000000082
:107F00000000000000000000000000000000000071
:107F10000000000000000000000000000000000061
:107F20000000000000000000000000000000000051
:107F30000000000000000000000000000000005CE5
:107F4000000C000C7C287C7C447C241048285408BD
:107F5000000C00384400443800201008103810800D
:107F60004000101010004000201008384438007CF9
:107F7000006454484454281C107C4C542438542029
:107F800004740C2854280854380050008050001005
:107F90002844282828442810045408384C5C7814B5
:107FA000787C54283844447C44387C54447C140401
:107FB0003844347C107C007C0020403C7C106C7C7D
:107FC00040407C087C7C047C7C447C7C14083844E5
:107FD000787C1468485424047C047C407C3C403CFD
:107FE0007C207C6C106C1C601C64544C7C4400082D
:0F7FF0001020447C0008040880808004080000F2
:020000040020DA
:08000000FFFFFFFFFFFFFFFF00
:020000040030CA
:0E000000000C191EFF8301FF0FC00FE00F4020
:00000001FF
