:020000040000FA
:040000002AEF38F0BB
:1070540002EE00F0DC0EEE6AE806FDE1216A206A29
:10706400000EF86E000185EF3AF001500302F3CFF1
:1070740005F0F4CF06F001500402F3500626025046
:107084000302F350062605C001F006C002F0120008
:107094000F0EC16E000EC26E000E926E000E936E45
:1070A400000E946E000E956E000E966E000E806EAD
:1070B400000E816E000E826E000E836E000E846ED2
:1070C40012000A6E0A50D8B46AEF38F06CEF38F048
:1070D40070EF38F08A808A9272EF38F08A928A824E
:1070E400000E956E8A9609C08CFF8A8800D08A9813
:1070F40000D08A908A921200016E0150D8B485EFB4
:1071040038F087EF38F08BEF38F08A808A928DEF71
:1071140038F08A928A8295688A868A8800D083CFDA
:1071240002F08A9800D08A908A92025012000D6E62
:10713400000E0C6E800E0D60A2EF38F0A4EF38F054
:10714400CCEF38F0070E0B64AAEF38F0ACEF38F050
:10715400AEEF38F0CCEF38F00DC021F00BC020F0CA
:107164003F0E0D64B8EF38F0BAEF38F0BEEF38F0E8
:10717400400E0D5E010E0C6E8A940D504009096E8E
:107184000C5063EC38F00B50B809096E0C5063ECEA
:1071940038F08A8412000B6E000E0D6E8A94400E35
:1071A400096E000E63EC38F0400E096E010E63ECBC
:1071B40038F00D50B809096E000E63EC38F00D502C
:1071C400B809096E010E63EC38F08A84000E0C6E67
:1071D4000B50010DF3500008096E000E63EC38F0FB
:1071E4000B50010DF3500008096E010E63EC38F0EA
:1071F4000C2A3F0E0C6401EF39F003EF39F0EAEF8B
:1072040038F00D2A070E0D640AEF39F00CEF39F04F
:10721400D0EF38F012000E6E000E836E8A9A210EA3
:10722400E82EFED700F08A8A8A988A908A928A94F5
:1072340000D0C00E096E000E63EC38F0C00E096E6B
:10724400010E63EC38F0400E096E000E63EC38F06A
:10725400400E096E010E63EC38F0B80E096E000E94
:1072640063EC38F0B80E096E010E63EC38F00E04CE
:10727400D8A43FEF39F041EF39F04DEF39F03F0E2C
:10728400096E000E63EC38F03F0E096E010E63ECDC
:1072940038F057EF39F03E0E096E000E63EC38F00B
:1072A4003E0E096E010E63EC38F0000ECDEC38F0A2
:1072B4001200166E1250145CD8B063EF39F065EF0B
:1072C40039F067EF39F0B9EF39F01650135CD8B0E4
:1072D4006EEF39F070EF39F072EF39F0B9EF39F041
:1072E40016C017F0B0EF39F012C018F0A6EF39F05D
:1072F40016501718D8B481EF39F083EF39F09EEFA8
:1073040039F013501718D8B48AEF39F08CEF39F0EC
:107314009EEF39F014501818D8B493EF39F095EF64
:1073240039F09EEF39F012501818D8A49CEF39F0B8
:107334009EEF39F0A5EF39F018C00BF015C00CF032
:1073440017501CEC3AF0182A1850145CD8B0ADEF62
:1073540039F0AFEF39F07AEF39F0172A1750135C90
:10736400D8B0B7EF39F0B9EF39F076EF39F0120051
:10737400000E066E04BEC3EF39F0C1EF39F0C9EF59
:1073840039F0036C041ED8B0042A010E066E02BE46
:10739400D0EF39F0CEEF39F0D6EF39F0016C021EA0
:1073A400D8B0022A010E061A000E086E000E076EEF
:1073B40003500410D8B4E1EF39F0E3EF39F00BEFE8
:1073C4003AF0010E056EEBEF39F0D890033604362F
:1073D400052A04AEF0EF39F0F2EF39F0E7EF39F0B7
:1073E400D890073608360350015C04500258D8A0E0
:1073F400FEEF39F000EF3AF005EF3AF00350015E8A
:107404000450025A0780D89004320332052EF2EF5A
:1074140039F00650D8B411EF3AF013EF3AF017EF01
:107424003AF0076C081ED8B0082A07C001F008C05B
:1074340002F012000F6E000E116E3F0E0F6425EF66
:107444003AF027EF3AF02BEF3AF0400E0F5E010EC0
:10745400116E8A940F9E0F8C0FC009F0115063ECCB
:1074640038F00BC001F0026A000E046E080E036EC1
:10747400BAEC39F00150BF0BB809096E115063EC36
:1074840038F08A8411507EEC38F011507EEC38F0DC
:10749400106E8A940FC009F0115063EC38F00C5050
:1074A400D8B457EF3AF059EF3AF06CEF3AF00BC01A
:1074B4000DF0070E0D16010E0E6E0D2A64EF3AF054
:1074C400D8900E360D2E62EF3AF00E501010106E5A
:1074D4007EEF3AF00BC00DF0070E0D16010E0E6E86
:1074E4000D2A77EF3AF0D8900E360D2E75EF3AF05C
:1074F4000E50FF0A1014106E8A8410C009F0115047
:1075040063EC38F012004AEC38F0010E0DEC39F05F
:10751400000E0101DD6F000EDC6F21EE00F0DB0ECA
:10752400DE6AE806FDE2010E156F010EDB6F010E47
:107534002B6F010E006F010E786F010E796F010E33
:107544007A6F010E906F000E0B6E010E99EC38F0FD
:10755400150E126E5A0E136E3E0E146E010E156E3B
:10756400010E5BEC39F0000E196E010E1A6EFAEC86
:107574003AF0DCC101F0DDC102F0000E046E170E1A
:10758400036E37EC38F0000E0124D96E010E022090
:10759400DA6E010EDF6E000E196E010E1A6EFAEC31
:1075A4003AF0DCC101F0DDC102F0000E046E170EEA
:1075B400036E37EC38F0000E0124D96E010E022060
:1075C400DA6E000EDF6E0101DC4BDD2B0A0EDC19D6
:1075D400DD11D8A4F0EF3AF0F2EF3AF0BBEF3AF055
:1075E400000EDD6F000EDC6FBBEF3AF000EF00F031
:1075F400000E1E6E000E1F6E1E50160D19C01BF0DD
:107604001AC01CF0F3501B26F4501C221F501B24DC
:10761400D96E000E1C20DA6EDE04D8A414EF3BF001
:1076240016EF3BF044EF3BF01E50FC0DF3503A0FC5
:10763400126E1F50040DF350050F136E1E50FC0DF7
:10764400F3503D0F146E010E156E1F50040DF350D0
:10765400020F5BEC39F01E50FC0DF3503B0F126E21
:107664001F50040DF350040F136E1E50FC0DF35005
:107674003C0F146E010E156E1F50040DF350030FD2
:107684005BEC39F01E50160D19C01BF01AC01CF02B
:10769400F3501B26F4501C221F501B24D96E000EDD
:1076A4001C20DA6EDF50D8A45AEF3BF05CEF3BF0BD
:1076B4008AEF3BF01E50FC0DF3503A0F126E1F5030
:1076C400040DF350050F136E1E50FC0DF3503D0FC7
:1076D400146E000E156E1F50040DF350020F5BEC78
:1076E40039F01E50FC0DF3503B0F126E1F50040D69
:1076F400F350040F136E1E50FC0DF3503C0F146E28
:10770400000E156E1F50040DF350030F5BEC39F09F
:107714001F2A150E1F6491EF3BF093EF3BF0FEEF31
:107724003AF01E2A090E1E649AEF3BF09CEF3BF0E0
:10773400FCEF3AF01200000000000000000000001E
:107744000000000000000000000000000000000035
:107754000000000000000000000000000000000025
:107764000000000000000000000000000000000015
:107774000000000000000000000000000000000005
:1077840000000000000000000000000000000000F5
:1077940000000000000000000000000000000000E5
:1077A40000000000000000000000000000000000D5
:1077B40000000000000000000000000000000000C5
:1077C40000000000000000000000000000000000B5
:1077D40000000000000000000000000000000000A5
:1077E4000000000000000000000000000000000095
:1077F4000000000000000000000000000000000085
:107804000000000000000000000000000000000074
:107814000000000000000000000000000000000064
:107824000000000000000000000000000000000054
:107834000000000000000000000000000000000044
:10784400065F5F060000000007070007070000143A
:107854007F7F147F7F1400242E6B6B3A1200004646
:107864006630180C666200307A4F5D377A4800043F
:1078740007030000000000001C3E634100000000FC
:1078840041633E1C000000082A3E1C1C3E2A0808D6
:10789400083E3E080800000080E060000000000888
:1078A400080808080800000000606000000000608C
:1078B40030180C060301003E7F71594D7F3E004095
:1078C400427F7F40400000627359496F6600002286
:1078D4006349497F360000181C16537F7F500027E8
:1078E4006745457D3900003C7E4B497930000003F3
:1078F4000371790F070000367F49497F360000067F
:107904004F49693F1E000000006666000000000049
:1079140080E66600000000081C3663410000002475
:1079240024242424240000004163361C080000029F
:107934000351590F0600003E7F415D5D1F1E007C10
:107944007E13137E7C0000417F7F49497F36001CF3
:107954003E634141632200417F7F41633E1C0041FD
:107964007F7F495D416300417F7F491D0103001C06
:107974003E6341517372007F7F08087F7F000000DF
:10798400417F7F41000000307040417F3F01004152
:107994007F7F081C776300417F7F41406070007FD8
:1079A4007F0E1C0E7F7F007F7F060C187F7F001CDC
:1079B4003E6341633E1C00417F7F49090F06001E60
:1079C4003F21717F5E0000417F7F09197F66002699
:1079D4006F4D597332000003417F7F410300007FE4
:1079E4007F40407F7F00001F3F60603F1F00007F9B
:1079F4007F3018307F7F0043673C183C67430007A3
:107A04004F78784F070000476371594D6773000042
:107A14007F7F41410000000103060C183060000024
:107A240041417F7F000000080C0603060C0800801B
:107A34008080808080808000000307040000002094
:107A44007454543C784000417F3F484878300038B3
:107A54007C44446C280000307848493F7F4000381B
:107A64007C54545C180000487E7F4903020000984F
:107A7400BCA4A4F87C0400417F7F08047C78000047
:107A8400447D7D4000000060E08080FD7D00004179
:107A94007F7F10386C440000417F7F400000007CF1
:107AA4007C18381C7C78007C7C04047C78000038CA
:107AB4007C44447C38000084FCF8A4243C1800185E
:107AC4003C24A4F8FC8400447C784C041C18004832
:107AD4005C54547424000000043E7F442400003CA1
:107AE4007C40403C7C40001C3C60603C1C00003CF2
:107AF4007C7038707C3C00446C3810386C44009CBA
:107B0400BCA0A0FC7C00004C64745C4C64000008C5
:107B1400083E7741410000000000777700000041F3
:107B240041773E08080000020301030203010070CC
:107B3400784C464C7870000E9F91B1FB4A00003A95
:107B44007A40407A7A4000387C54555D190000022E
:107B5400237555557D7B42217554547D7940002110
:107B64007555547C784000207457577C7840001831
:107B74003CA4A4E4400000023B7D55555D1B023942
:107B84007D54545D190000397D55545C1800000182
:107B9400457C7C410100000203457D7D43020001D8
:107BA400457D7C40000000797D1612167D790070B9
:107BB400782B2B78700000447C7C555545000020C0
:107BC4007454547C7C54547C7E0B097F7F4900326E
:107BD4007B49497B320000327A48487A32000032CD
:107BE4007A4A48783000003A7B41417B7A40003A37
:107BF4007A4240787840009ABAA0A0FA7A0000014C
:107C0400193C66663C19013D7D40407D3D000018ED
:107C14003C24E7E7242400687E7F49436620002B48
:107C24002FFCFC2F2B0000FFFF09092FF6F8A040C2
:107C3400C088FE7F090302207454557D79400000FA
:107C4400447D7D410000003078484A7A3200003893
:107C54007840427A7A40007A7A0A0A7A7000007D83
:107C64007D19317D7D000000262F292F2F2800004B
:107C7400262F292F26000030784D4560200000383B
:107C84003808080808000008080808383800004FB9
:107C94006F3018CCEEBB914F6F30186C76FBF90047
:107CA40000007B7B000000081C3622081C362222C0
:107CB400361C0822361C08AA005500AA005500AA42
:107CC40055AA55AA55AA55DDFFAA77DDAAFF770064
:107CD4000000FFFF000000101010FFFF0000001460
:107CE4001414FFFF0000001010FFFF00FFFF00103E
:107CF40010F0F010F0F000141414FCFC0000001458
:107D040014F7F700FFFF000000FFFF00FFFF00145F
:107D140014F4F404FCFC0014141717101F1F0010B3
:107D2400101F1F101F1F001414141F1F0000001029
:107D34001010F0F00000000000001F1F10101010C1
:107D440010101F1F101010101010F0F01010100061
:107D54000000FFFF10101010101010101010101061
:107D64001010FFFF101010000000FFFF1414140087
:107D740000FFFF00FFFF1000001F1F101717140063
:107D840000FCFC04F4F4141414171710171714143B
:107D940014F4F404F4F4140000FFFF00F7F71414CF
:107DA400141414141414141414F7F700F7F7141417
:107DB4001414171714141410101F1F101F1F10145D
:107DC4001414F4F41414141010F0F010F0F0100063
:107DD400001F1F101F1F100000001F1F1414140089
:107DE4000000FCFC1414140000F0F010F0F010106B
:107DF40010FFFF10FFFF10141414FFFF14141410CD
:107E040010101F1F000000000000F0F0101010FF01
:107E1400FFFFFFFFFFFFFFF0F0F0F0F0F0F0F0FFE6
:107E2400FFFFFF0000000000000000FFFFFFFF0F46
:107E34000F0F0F0F0F0F0F387C446C386C4400FC8D
:107E4400FE2A2A3E1400007E7E020206060000027C
:107E54007E7E027E7E020063775D496363000038A4
:107E64007C447C3C04040080FE7E20203E1E0004F2
:107E740006027E7C06020099BDE7E7BD9900001C5E
:107E84003E6B496B3E1C004C7E7301737E4C00308C
:107E9400784A4F7D390000183C243C3C243C189817
:107EA400FC643C3E273D1800000000000000000078
:107EB40000000000000000000000000000000000BE
:107EC40000000000000000000000000000000000AE
:107ED400000000000000000000000000000000009E
:107EE400000000000000000000000000000000008E
:107EF400000000000000000000000000000000007E
:107F0400000000000000000000000000000000006D
:107F1400000000000000000000000000000000005D
:107F2400000000000000000000000000000000004D
:107F340000000000000000000000005C000C000CC9
:107F44007C287C7C447C241048285408000C00388D
:107F540044004438002010081038108040001010ED
:107F640010004000201008384438007C0064544855
:107F74004454281C107C4C542438542004740C2879
:107F840054280854380050008050001028442828F1
:107F940028442810045408384C5C7814787C5428FD
:107FA4003844447C44387C54447C14043844347C41
:107FB400107C007C0020403C7C106C7C40407C08A1
:107FC4007C7C047C7C447C7C14083844787C146875
:107FD400485424047C047C407C3C403C7C207C6CE5
:107FE400106C1C601C64544C7C4400081020447CBD
:0B7FF4000008040880808004080000E2
:020000040020DA
:08000000FFFFFFFFFFFFFFFF00
:020000040030CA
:0E000000000C191EFF8301FF0FC00FE00F4020
:00000001FF
