:020000040000FA
:0400000005EF00F018
:080008001000936A8A6A6D96EC
:1000100074EC00F0B2EC00F0540EC7EC00F0650E8A
:10002000C7EC00F0730EC7EC00F0740EC7EC00F0E4
:100030003A0EC7EC00F0200EC7EC00F0610EC7ECE2
:1000400000F0620EC7EC00F0630EC7EC00F0640E27
:10005000C7EC00F0650EC7EC00F0660EC7EC00F0D0
:10006000670EC7EC00F0680EC7EC00F0690EC7EC35
:1000700000F07A0EC7EC00F0B9EC00F0300EC7ECDF
:1000800000F0310EC7EC00F0320EC7EC00F0330E7A
:10009000C7EC00F0340EC7EC00F0350EC7EC00F0F2
:1000A000360EC7EC00F0370EC7EC00F0380EC7EC88
:1000B00000F0390EC7EC00F0410EC7EC00F05A0E0C
:1000C000C7EC00F02E0EC7EC00F0E00EC7EC00F01D
:1000D000E20EC7EC00F0E30EC7EC00F0E40EC7EC54
:1000E00000F0000071EF00F0816A07EC01F0F5EC20
:1000F00000F0818007EC01F0F5EC00F08190F5EC68
:1001000000F007EC01F0F5EC00F0818007EC01F065
:10011000F5EC00F081808182F5EC00F0F5EC00F068
:10012000F5EC00F08190F5EC00F0F5EC00F081903A
:100130008186F5EC00F0816AF5EC00F0818681841F
:10014000F5EC00F0816AF5EC00F081848182F5EC39
:1001500000F0816AF5EC00F08180F5EC00F007EC2E
:1001600001F01200816AF5EC00F08182F5EC00F0FC
:100170001200816A81868184FAEC00F0FFEC00F0C5
:10018000000E816EFAEC00F0FFEC00F01200246E1D
:10019000D8EC00F08188FAEC00F0FFEC00F0243A93
:1001A000D8EC00F08188FAEC00F0FFEC00F01200CF
:1001B000816A24AEDFEF00F08186E0EF00F08196E7
:1001C00024ACE6EF00F08184E7EF00F0819424AAEC
:1001D000EDEF00F08182EEEF00F0819224A8F3EFC2
:1001E00000F08180120081901200818A05EC01F0FC
:1001F000819A1200818AFFEC00F0819A1200212E70
:10020000FFEF00F0190E216E1200190E226E222E41
:0E02100007EF01F0232E05EF01F0236E120020
:020000040030CA
:04000000000C191EB9
:020005008181F7
:060008000FC00FE00F40E5
:00000001FF
