:020000040000FA
:0600000095EF00F0120074
:0A0006000100640100006A00000020
:0400100001000000EB
:0C001400060EF66E000EF76E000EF86E81
:1000200000010900F550656F0900F550666F03E1A6
:10003000656701D03DD00900F550606F0900F550AB
:10004000616F0900F550626F09000900F550E96E13
:100050000900F550EA6E090009000900F550636FC8
:100060000900F550646F09000900F6CF67F0F7CF7B
:1000700068F0F8CF69F060C0F6FF61C0F7FF62C0BA
:10008000F8FF0001635302E1645307E00900F550F3
:10009000EE6E6307F8E26407F9D767C0F6FF68C041
:1000A000F7FF69C0F8FF00016507000E665BBFD768
:0200B00012003C
:0E00B200A3EC00F00DD8190EE66E75EC00F010
:1000C000E55210D8190EE66E75EC00F0E552F3D744
:1000D0001200802A00016A2B6AC081FF826883684F
:0A00E000842A1200826A836A12006B
:0600EA00FF0EE350026E60
:1000F000480E01D04C0EE76EE72EFED7E76AE72EDA
:0A010000FED7022EF7D70000120010
:06010A00000EF36E00EE92
:1001100000F0040E01D81200EA6002D0EE6AFCD7AB
:0A012000F350E9601200EE6AFCD70C
:06012A0013EE00F023EECD
:1001300000F0F86A019C0AEC00F0B1EC00F059EC18
:0601400000F0FBD71200E5
:0A0146000F0EC16EC26A926A936A3E
:10015000946A956A966A806A816A826A836A846A06
:0201600012008B
:02016200120089
:01016400009A
:020000040030CA
:0100010008F6
:010003001EDE
:00000001FF
