:04000000BEEF3FF020
:107F7200000E826E000E836E1200026A016A000118
:107F8200E7EF3FF0802A014A022A01C081FF82689E
:107F920083848388838E842A12000F0EC16E000EA2
:107FA200C26E000E926E000E936E000E946E000E64
:107FB200956E000E966E000E806E000E816E000EA3
:107FC200826E000E836E000E846E1200CEEC3FF0C5
:107FD20000D0C3EC3FF09C0E036ED70EE82EFED706
:107FE200032EFCD7B9EC3FF09C0E036ED70EE82EA1
:0E7FF200FED7032EFCD7EDD7ECD700EF00F042
:020000040030CA
:04000000000C1F1EB3
:0200060081FF78
:00000001FF
