:040000000CEF00F011
:10000800FACF02F0FBCF03F0E9CF04F0CBED00F01C
:100018008CEF01F0106E000E1D6E10501B500A0A76
:10002800D8A401D001D006D0106E000E1B6E10505F
:100038001C2A00D01C50060AD8A401D001D006D032
:10004800106E000E1C6E1050192A00D019500A0AA2
:10005800D8A401D001D006D0106E000E196E105031
:100068001A2A00D01A50060AD8A401D001D006D006
:10007800106E000E1A6E1050172A00D017500A0A78
:10008800D8A401D001D006D0106E000E176E105003
:10009800182A00D0106E180E186E1050106E000E30
:1000A800186E105000D02450D8B401D001D009D017
:1000B8001BC013F01CC014F019C015F01AC016F0BC
:1000C80009D019C013F01AC014F017C015F018C0E1
:1000D80016F000D0120038D0116E3F0E126E11507B
:1000E80053D0116E060E126E11504ED0116E5B0E6B
:1000F800126E115049D0116E4F0E126E115044D02D
:10010800116E660E126E11503FD0116E6D0E126E8A
:1001180011503AD0116E7D0E126E115035D0116EFD
:10012800070E126E115030D0116E7F0E126E1150E4
:100138002BD0116E6F0E126E115026D0116E790EE3
:10014800126E115021D020D01050000AD8B4C4D754
:10015800010AD8B4C6D7030AD8B4C8D7010AD8B494
:10016800CAD7070AD8B4CCD7010AD8B4CED7030A5D
:10017800D8B4D0D7010AD8B4D2D70F0AD8B4D4D7B4
:10018800010AD8B4D6D7DAD7125000D01200060028
:10019800EACF05F0E1CF06F0E2CF07F0D9CF08F0BB
:1001A800DACF09F0F3CF0AF0F4CF0BF0F6CF0CF06A
:1001B800F7CF0DF0F8CF0EF0F5CF0FF0F2AA01D07F
:1001C80001D01AD0F2A401D001D016D0F2942206A0
:1001D800D8A0230623502210D8A401D001D00CD0D7
:1001E8001B2A000E236E7B0E226E016E010E1D6E01
:1001F800015002D001D000D00FC0F5FF0EC0F8FFAB
:100208000DC0F7FF0CC0F6FF0BC0F4FF0AC0F3FFE8
:1002180009C0DAFF08C0D9FF07C0E2FF06C0E1FF46
:1002280005C0EAFF04C0E9FF03C0FBFF02C0FAFFF4
:10023800110010C0D9FF11C0DAFFDF50836E808033
:10024800030E126E970EE82EFED7122EFCD700D0A2
:100258008090808220EE01F01050D9261150DA22C9
:10026800DF50836E030E126E970EE82EFED7122E05
:10027800FCD700D08092808420EE02F01050D9265E
:100288001150DA22DF50836E030E126E970EE82E9D
:10029800FED7122EFCD700D08094808620EE03F083
:1002A8001050D9261150DA22DF50836E030E126ED9
:1002B800970EE82EFED7122EFCD700D0809612009B
:1002C800A6EC01F000D01D50D8B401D001D002D066
:1002D8000EEC00F013C010F06FEC00F01E6E14C0AE
:1002E80010F06FEC00F01F6E15C010F06FEC00F00E
:1002F800206E16C010F06FEC00F0216E000E116E2B
:100308001E0E106E1DEC01F0DED7DDD70CEF00F0ED
:1003180000EE13F00F0EEE6AE806FDE1720EF66EBF
:10032800030EF76E000EF86E0900F5CF22F00900F3
:10033800F5CF23F00900F5CF24F0000EF86E000188
:1003480064EF01F0000E926E0F0EC16E000E806E0B
:10035800000E956E000E836ED58ED59AD596D584EF
:0E036800D592D580F28EF28A12007B00010041
:020000040030CA
:04000000000C1F1EB3
:0200060081FF78
:00000001FF
