:020000040000FA
:040000005DEF0AF0B6
:1013060001500302F3CF05F0F4CF06F001500402BA
:10131600F350062602500302F350062605C001F0DC
:1013260006C002F012000F0EC16E000EC26E000E55
:10133600926E000E936E000E946E000E956E966879
:10134600000E806E000E816E000E826E000E836EA1
:10135600000E846E1200FF0E0B6EFF0E0C6E09C09F
:101366000DF00AC00EF00B500D260C500E220DC0CB
:10137600ADF00EC0AEF00001AF6BB06BB16BB26BEF
:10138600B36BB46B120001C0D9FF02C0DAFFDECF27
:1013960003F0DDCF04F0010E0326000E0422030E37
:1013A6000316000E041601C0D9FF02C0DAFF03C0FF
:1013B600DEFF04C0DDFF12000A6E0A50D8B4E6EF65
:1013C60009F0E8EF09F0ECEF09F08A808A92EEEF77
:1013D60009F08A928A82000E956E8A9609C08CFF61
:1013E6008A8800F000F08A9800F000F08A908A92CD
:1013F6001200016E0150D8B403EF0AF005EF0AF0AF
:1014060009EF0AF08A808A920BEF0AF08A928A82A2
:1014160095688A868A8800F000F083CF02F08A9861
:1014260000F000F08A908A9202501200B90045013D
:101436004A02A5034A0245017D043E044A02B90058
:1014460052034A02CF014A02A503B90093027D0462
:101456007D04A50363057D076F066305FF004A0249
:10146600B90052034A028B0101500210D8B43EEF74
:101476000AF040EF0AF054EF0AF001C0D9FF02C0AB
:10148600DAFFFF0EDE6EFF0EDE6EFF0EDE6EFF0E65
:10149600DE6EFF0EDE6EFF0EDE6EFF0EDE6EFF0EE2
:1014A600DD6E0168026803680468056806680768F7
:1014B60008681200320EF66E140EF76E000EF86E05
:1014C60000EE60F010EE3CF00900F5CFEEFFE550BF
:1014D600E150FAE104EE00F0DC0EEE6AE806FDE10A
:1014E60001EEDCF0100EEE6AE806FDE100EE9CF07F
:1014F600190EEE6AE806FDE15F6A000EF86E00015D
:1015060025EF1BF0000E236E2350020DF3CF1FF0C4
:10151600F4CF20F01F501C24D96E20501D20DA6E07
:10152600DF50196E1EC01AF02350020D1CC021F0A8
:101536001DC022F0F3502126F4502222010E212450
:10154600D96E000E2220DA6EDF50B4EC0AF0232AA0
:10155600030E2364B1EF0AF0B3EF0AF087EF0AF047
:1015660012001B6E1B50FC0DF3503A0F126E1950F1
:10157600040DF350050F136E1B50FC0DF3503D0F79
:10158600146E1AC015F01950040DF350020F50ECEA
:101596000DF01B50FC0DF3503B0F126E1950040D4D
:1015A600F350040F136E1B50FC0DF3503C0F146EDA
:1015B6001AC015F01950040DF350030F50EC0DF03E
:1015C600120003500410D8B4EBEF0AF0EDEF0AF066
:1015D60011EF0BF0010E056EF5EF0AF0D890033609
:1015E6000436052A04AEFAEF0AF0FCEF0AF0F1EF32
:1015F6000AF00350015C04500258D8A005EF0BF026
:1016060007EF0BF00BEF0BF00350015E0450025A8C
:10161600D89004320332052EFCEF0AF001C001F027
:1016260002C002F012000D6E000E0C6E800E0D60F0
:101636001FEF0BF021EF0BF049EF0BF0070E0B64D9
:1016460027EF0BF029EF0BF02BEF0BF049EF0BF028
:101656000DC05FF00BC0ACF03F0E0D6435EF0BF024
:1016660037EF0BF03BEF0BF0400E0D5E010E0C6EEC
:101676008A940D504009096E0C50DFEC09F00B50AE
:10168600B809096E0C50DFEC09F08A841200000ECE
:101696001F6E000E1E6E000E88EC0BF089EC16F025
:1016A6007EEF0BF08404D8A45BEF0BF05DEF0BF03C
:1016B6006EEF0BF038EC10F0150E1D6E4B0E1C6E17
:1016C600BE0EE82EFED71C2EFCD71D2EFAD700F034
:1016D60000F089EC16F0020E8418D8A475EF0BF012
:1016E60077EF0BF07EEF0BF0000E88EC0BF0000EA0
:1016F6001F6E010E1E6E1E501F10D8B485EF0BF024
:1017060087EF0BF055EF0BF012000B6E000E0D6E0F
:101716008A94400E096E000EDFEC09F0400E096E49
:10172600010EDFEC09F00D50B809096E000EDFEC72
:1017360009F00D50B809096E010EDFEC09F08A8434
:10174600000E0C6E0B50010DF3500008096E000ED2
:10175600DFEC09F00B50010DF3500008096E010E85
:10176600DFEC09F00C2A3F0E0C64BCEF0BF0BEEF69
:101776000BF0A5EF0BF00D2A070E0D64C5EF0BF06D
:10178600C7EF0BF08BEF0BF01200000E106E000E81
:101796000F6E0FC007F010C008F0D8900736083655
:1017A60003C009F004C00AF00750092608500A22AF
:1017B600010E0924D96E000E0A20DA6EDF500B6E78
:1017C600D8900F34D96E1034DA6E0350D9260450EF
:1017D600DA22DF500C6E0C500A0D01C00DF002C06B
:1017E6000EF0F3500D26F4500E220B500D24D96E38
:1017F600000E0E20DA6E010EDF6E0F4A102A105010
:1018060009E1040E0F5CD8A00BEF0CF00DEF0CF005
:10181600CCEF0BF01200000E0F6E000E0E6E000ED7
:10182600116E000E106E09C001F00AC002F0000E23
:10183600046E0A0E036E83EC09F007C00BF008C0B5
:101846000CF001500B2602500C2210500B24D96EBE
:1018560011500C20DA6EDE04D8A434EF0CF036EF0B
:101866000CF038EF0CF00E4A0F2A104A112A1150CC
:1018760009E10A0E105CD8A043EF0CF045EF0CF01E
:1018860016EF0CF00A0E0E180F10D8A44DEF0CF040
:101896004FEF0CF055EF0CF0000E086E010E076EC0
:1018A60059EF0CF0000E086E000E076E12000E6E59
:1018B600000E836E8A9A210EE82EFED700F08A8AE1
:1018C6008A988A908A928A9400F000F0C00E096E77
:1018D600000EDFEC09F0C00E096E010EDFEC09F018
:1018E600400E096E000EDFEC09F0400E096E010E87
:1018F600DFEC09F0B80E096E000EDFEC09F0B80E49
:10190600096E010EDFEC09F00E04D8A48DEF0CF081
:101916008FEF0CF09BEF0CF03F0E096E000EDFEC24
:1019260009F03F0E096E010EDFEC09F0A5EF0CF091
:101936003E0E096E000EDFEC09F03E0E096E010E3A
:10194600DFEC09F0000E88EC0BF0120020EE11F02F
:10195600070EDE6AE806FDE201A0B4EF0CF0B6EF72
:101966000CF0C6EF0CF0095011260A5012220B504B
:1019760013220C5014220D5015220E5016220F5011
:10198600172210501822D89009360A360B360C3614
:101996000D360E360F361036D8900832073206321C
:1019A60005320432033202320132015002100310B2
:1019B60004100510061007100810D8A4E5EF0CF067
:1019C600E7EF0CF0AFEF0CF011C001F012C002F01F
:1019D60013C003F014C004F015C005F016C006F0DD
:1019E60017C007F018C008F01200000E286E24BEBB
:1019F60001EF0DF0FFEF0CF007EF0DF0236C241E46
:101A0600D8B0242A010E286E26BE0EEF0DF00CEF7C
:101A16000DF012EF0DF0256C261ED8B0262A2550A3
:101A26002610D8B419EF0DF01BEF0DF03FEF0DF0B7
:101A3600010E276E23EF0DF0D89025362636272A7D
:101A460026AE28EF0DF02AEF0DF01FEF0DF0255012
:101A5600235C26502458D8A033EF0DF035EF0DF057
:101A660039EF0DF02550235E2650245AD8902632A1
:101A76002532272E2AEF0DF02850D8B445EF0DF069
:101A860047EF0DF04BEF0DF0236C241ED8B0242A3F
:101A960023C023F024C024F01200166E1250145CEA
:101AA600D8B058EF0DF05AEF0DF05CEF0DF0AEEF39
:101AB6000DF01650135CD8B063EF0DF065EF0DF026
:101AC60067EF0DF0AEEF0DF016C017F0A5EF0DF0B5
:101AD60012C018F09BEF0DF016501718D8B476EF19
:101AE6000DF078EF0DF093EF0DF013501718D8B4F2
:101AF6007FEF0DF081EF0DF093EF0DF014501818F5
:101B0600D8B488EF0DF08AEF0DF093EF0DF0125078
:101B16001818D8A491EF0DF093EF0DF09AEF0DF091
:101B260018C00BF015C00CF0175071EC0EF0182A07
:101B36001850145CD8B0A2EF0DF0A4EF0DF06FEFC3
:101B46000DF0172A1750135CD8B0ACEF0DF0AEEFBE
:101B56000DF06BEF0DF01200150E126E5A0E136E8D
:101B66003E0E146E010E156E010E50EC0DF0000EB9
:101B7600216E000E226E22500A0D1CC01EF01DC0E2
:101B86001FF0F3501E26F4501F2221501E24D96E3A
:101B9600000E1F20DA6EDE04D8A4D4EF0DF0D6EFC7
:101BA6000DF0DDEF0DF022C019F0010E1A6E215076
:101BB600B4EC0AF022500A0D1CC01EF01DC01FF026
:101BC600F3501E26F4501F2221501E24D96E000EFB
:101BD6001F20DA6EDF50D8A4F3EF0DF0F5EF0DF00D
:101BE600FCEF0DF022C019F0000E1A6E2150B4EC75
:101BF6000AF0222A150E226403EF0EF005EF0EF00E
:101C0600BEEF0DF0212A090E21640CEF0EF00EEF47
:101C16000EF0BCEF0DF01200000E066E04BE18EFBB
:101C26000EF016EF0EF01EEF0EF0036C041ED8B089
:101C3600042A010E066E02BE25EF0EF023EF0EF00B
:101C46002BEF0EF0016C021ED8B0022A010E061A06
:101C5600000E086E000E076E03500410D8B436EF5F
:101C66000EF038EF0EF060EF0EF0010E056E40EF4D
:101C76000EF0D89003360436052A04AE45EF0EF072
:101C860047EF0EF03CEF0EF0D890073608360350BB
:101C9600015C04500258D8A053EF0EF055EF0EF039
:101CA6005AEF0EF00350015E0450025A0780D89096
:101CB60004320332052E47EF0EF00650D8B466EF15
:101CC6000EF068EF0EF06CEF0EF0076C081ED8B041
:101CD600082A07C001F008C002F012000F6E000EBD
:101CE600116E3F0E0F647AEF0EF07CEF0EF080EF70
:101CF6000EF0400E0F5E010E116E8A940F9E0F8C31
:101D06000FC009F01150DFEC09F00BC001F0026AB8
:101D1600000E046E080E036E0FEC0EF00150BF0BA2
:101D2600B809096E1150DFEC09F08A841150FCECF9
:101D360009F01150FCEC09F0106E8A940FC009F0FE
:101D46001150DFEC09F00C50D8B4ACEF0EF0AEEF4A
:101D56000EF0C1EF0EF00BC00DF0070E0D16010EC2
:101D66000E6E0D2AB9EF0EF0D8900E360D2EB7EF87
:101D76000EF00E501010106ED3EF0EF00BC00DF0DB
:101D8600070E0D16010E0E6E0D2ACCEF0EF0D89032
:101D96000E360D2ECAEF0EF00E50FF0A1014106EFE
:101DA6008A8410C009F01150DFEC09F01200ADC0B2
:101DB60001F0AEC002F0AFC003F0B0C004F0B1C095
:101DC60005F0B2C006F0B3C007F0B4C008F02D0E9F
:101DD600096E7F0E0A6E950E0B6E4C0E0C6E2D0E56
:101DE6000D6EF40E0E6E510E0F6E580E106EA9EC9F
:101DF6000CF001C01BF002C01CF003C01DF004C0B3
:101E06001EF005C01FF006C020F007C021F008C074
:101E160022F0010E1B240001AD6F000E1C20AE6FD8
:101E2600000E1D20AF6F000E1E20B06F000E1F208B
:101E3600B16F000E2020B26F000E2120B36F000E8E
:101E46002220B46FADC01BF0AEC01CF0AFC01DF0B9
:101E5600B0C01EF0B1C01FF0B2C020F0B3C021F078
:101E6600B4C022F0320E41EF0FF0D8902232213268
:101E760020321F321E321D321C321B32E82E38EF42
:101E86000FF01BC019F01DC01AF0120009C013F0A4
:101E96000AC014F013501410D8A454EF0FF056EFE4
:101EA6000FF058EF0FF0A4EF0FF0000E166E000EB5
:101EB600156E13C001F014C002F0000E046E0A0E77
:101EC600036E83EC09F007C00DF008C00EF0015058
:101ED6000D2602500E2215500D2616500E22F60E15
:101EE6000D24D96EFF0E0E20DA6E13C001F014C059
:101EF60002F0000E046E0A0E036E83EC09F007C0B2
:101F06000FF008C010F001500F2602501022155095
:101F16000F24E16E16501020E26EDFCFE7FF154A60
:101F2600162A165009E10A0E155CD8A09DEF0FF08F
:101F36009FEF0FF05CEF0FF01306D8A014064DEFDD
:101F46000FF0000E126E000E116E11500724D96E9E
:101F560012500820DA6E000EDF6E114A122A125055
:101F660009E10A0E115CD8A0BBEF0FF0BDEF0FF030
:101F7600A8EF0FF00B4A0C2A1200000E0F6E000E8F
:101F86000E6E000E116E000E106ED8901034D96EC3
:101F96001134DA6E0350D9260450DA22DF50056E6A
:101FA60005500A0D01C006F002C007F0F3500626E0
:101FB600F450072210C008F011C009F0D890083676
:101FC600093603C00AF004C00BF008500A2609506F
:101FD6000B22010E0A24D96E000E0B20DA6EDF509A
:101FE6000C6E0C500626000E07220A0E0624D96E29
:101FF600000E0720DA6EDE04D8B404EF10F006EF08
:1020060010F020EF10F0D8901034D96E1134DA6E3B
:102016000350D9260450DA22DF50056E066A010EF7
:102026000526000E0622160E05180610D8A41EEF69
:1020360010F020EF10F026EF10F0000E0F6E010EDC
:102046000E6E33EF10F0104A112A115009E1040EFA
:10205600105CD8A031EF10F033EF10F0C8EF0FF09E
:102066000EC001F00FC002F01200000E88EC0BF05B
:10207600050E196E010E1A6E010EB4EC0AF0050E6D
:10208600196E010E1A6E020EB4EC0AF0050E196EE8
:10209600010E1A6E030EB4EC0AF0060E196E010E4E
:1020A6001A6E020EB4EC0AF0070E196E010E1A6EC5
:1020B600020EB4EC0AF0080E196E010E1A6E020E2C
:1020C600B4EC0AF0090E196E010E1A6E020EB4EC8B
:1020D6000AF0050E196E010E1A6E040EB4EC0AF023
:1020E600050E196E010E1A6E050EB4EC0AF0060EF8
:1020F600196E010E1A6E040EB4EC0AF0070E196E74
:10210600010E1A6E040EB4EC0AF0070E196E010EDB
:102116001A6E050EB4EC0AF0080E196E010E1A6E50
:10212600040EB4EC0AF0090E196E010E1A6E040EB6
:10213600B4EC0AF0090E196E010E1A6E050EB4EC17
:102146000AF0050E196E010E1A6E060EB4EC0AF0B0
:10215600050E196E010E1A6E070EB4EC0AF0050E86
:10216600196E010E1A6E080EB4EC0AF0060E196E00
:10217600010E1A6E070EB4EC0AF0070E196E010E68
:102186001A6E070EB4EC0AF0080E196E010E1A6EDE
:10219600070EB4EC0AF0090E196E010E1A6E070E40
:1021A600B4EC0AF0050E196E010E1A6E090EB4ECA7
:1021B6000AF0050E196E010E1A6E0A0EB4EC0AF03C
:1021C600060E196E010E1A6E0B0EB4EC0AF0070E0F
:1021D600196E010E1A6E0A0EB4EC0AF0080E196E8C
:1021E600010E1A6E0B0EB4EC0AF0090E196E010EF2
:1021F6001A6E0B0EB4EC0AF0060E196E010E1A6E6C
:10220600090EB4EC0AF0070E196E010E1A6E090ECD
:10221600B4EC0AF0080E196E010E1A6E090EB4EC33
:102226000AF0090E196E010E1A6E090EB4EC0AF0C8
:10223600050E196E010E1A6E0D0EB4EC0AF0060E9E
:10224600196E010E1A6E0D0EB4EC0AF0070E196E19
:10225600010E1A6E0D0EB4EC0AF0080E196E010E80
:102266001A6E0D0EB4EC0AF0090E196E010E1A6EF6
:102276000D0EB4EC0AF0120020EE11F00F0EDE6A1D
:10228600E806FDE2000E366E000E356E47EF13F0DF
:10229600000E226E000E216E000E246E000E236EBE
:1022A60021C009F022C00AF0D89009360A3601C0CA
:1022B6000BF002C00CF009500B260A500C222350DA
:1022C6000B24D96E24500C20DA6EDE04D8A46EEFEF
:1022D60011F070EF11F0AAEF11F003502124096EEE
:1022E600045022200A6E110E0B6E000E0C6ED89052
:1022F6003534D96E3634DA6ED890D936DA360B5094
:10230600D9260C50DA2209C0DEFF0AC0DDFF0550CF
:102316002324096E065024200A6E35C00BF036C001
:102326000CF0D8900B360C36D8900B360C36020EC5
:102336000B26000E0C22110E0B24D96E000E0C205B
:10234600DA6E09C0DEFF0AC0DDFF354A362A234AA7
:10235600242A245009E1020E235CD8A0B5EF11F01F
:10236600B7EF11F053EF11F0214A222A225009E16A
:10237600040E215CD8A0C2EF11F0C4EF11F04FEFAC
:1023860011F065EF13F0000E266E000E256E000E9E
:10239600286E000E276E25C009F026C00AF0D890D8
:1023A60009360A3601C00BF002C00CF009500B26A4
:1023B6000A500C2227500B24D96E28500C20DA6EB6
:1023C600DE04D8A4E9EF11F0EBEF11F029EF12F0DB
:1023D6002750035C096E285004580A6E010E092620
:1023E600000E0A22110E0B6E000E0C6ED8903534BC
:1023F600D96E3634DA6ED890D936DA360B50D926FD
:102406000C50DA2209C0DEFF0AC0DDFF0550252484
:10241600096E065026200A6E35C00BF036C00CF049
:10242600D8900B360C36D8900B360C36020E0B268F
:10243600000E0C22110E0B24D96E000E0C20DA6E43
:1024460009C0DEFF0AC0DDFF354A362A274A282A98
:10245600285009E1020E275CD8A034EF12F036EFBF
:1024660012F0CEEF11F0254A262A265009E1040E75
:10247600255CD8A041EF12F043EF12F0CAEF11F03D
:1024860065EF13F0000E2A6E000E296E000E2C6EFC
:10249600000E2B6E29C009F02AC00AF0D890093622
:1024A6000A3601C00BF002C00CF009500B260A5088
:1024B6000C222B500B24D96E2C500C20DA6EDE0425
:1024C600D8A468EF12F06AEF12F0ACEF12F02950C0
:1024D600035C096E2A5004580A6E030E0926000E84
:1024E6000A22110E0B6E000E0C6ED8903534D96E82
:1024F6003634DA6ED890D936DA360B50D9260C50E7
:10250600DA2209C0DEFF0AC0DDFF2B50055C096E2A
:102516002C5006580A6E010E0926000E0A2235C0F6
:102526000BF036C00CF0D8900B360C36D8900B3624
:102536000C36020E0B26000E0C22110E0B24D96E41
:10254600000E0C20DA6E09C0DEFF0AC0DDFF354A38
:10255600362A2B4A2C2A2C5009E1020E2B5CD8A0D5
:10256600B7EF12F0B9EF12F04DEF12F0294A2A2A0E
:102576002A5009E1040E295CD8A0C4EF12F0C6EF78
:1025860012F049EF12F065EF13F0000E2E6E000EFA
:102596002D6E000E306E000E2F6E2DC009F02EC06F
:1025A6000AF0D89009360A3601C00BF002C00CF0CA
:1025B60009500B260A500C222F500B24D96E30508E
:1025C6000C20DA6EDE04D8A4EBEF12F0EDEF12F079
:1025D6002BEF13F003502F24096E045030200A6E9F
:1025E600110E0B6E000E0C6ED8903534D96E363443
:1025F600DA6ED890D936DA360B50D9260C50DA2254
:1026060009C0DEFF0AC0DDFF2D50055C096E2E50A5
:1026160006580A6E030E0926000E0A2235C00BF074
:1026260036C00CF0D8900B360C36D8900B360C36DC
:10263600020E0B26000E0C22110E0B24D96E000E74
:102646000C20DA6E09C0DEFF0AC0DDFF354A362AE5
:102656002F4A302A305009E1020E2F5CD8A036EFFF
:1026660013F038EF13F0D0EF12F02D4A2E2A2E5029
:1026760009E1040E2D5CD8A043EF13F045EF13F0EB
:10268600CCEF12F065EF13F007C009F008C00AF0AE
:102696000A50000AD8B452EF13F065EF13F0095050
:1026A600000AD8B44BEF11F0010AD8B4C6EF11F006
:1026B600030AD8B445EF12F0010AD8B4C8EF12F0F5
:1026C60065EF13F0000E326E000E316E000E346EA2
:1026D600000E336E31C009F032C00AF0D8900936C8
:1026E6000A36D89009360A36110E0B6E000E0C6E9D
:1026F60009500B260A500C22D8903334D96E343444
:10270600DA6E0B50D9260C50DA2231C00DF032C0E9
:102716000EF0D8900D360E3601C00FF002C010F044
:102726000D500F260E50102233500F24E16E3450F8
:102736001020E26EDFCFE7FF334A342A345009E136
:10274600020E335CD8A0AAEF13F0ACEF13F06DEFD6
:1027560013F0314A322A325009E1040E315CD8A016
:10276600B7EF13F0B9EF13F069EF13F01200000E94
:102776000A6E000E096E000E0C6E000E0B6E09C07E
:1027860005F00AC006F0D8900536063601C007F0F7
:1027960002C008F005500726065008220B500724F1
:1027A600D96E0C500820DA6E000EDF6E0B4A0C2A2A
:1027B6000C5009E1020E0B5CD8A0E4EF13F0E6EF33
:1027C60013F0C2EF13F0094A0A2A0A5009E1040E6F
:1027D600095CD8A0F1EF13F0F3EF13F0BEEF13F09E
:1027E6005EEF16F0000E0E6E000E0D6ED8900D34D4
:1027F600D96E0E34DA6E0150D9260250DA22010E55
:10280600DF6E0D4A0E2A0E5009E1040E0D5CD8A0AB
:102816000FEF14F011EF14F0F9EF13F088EF16F044
:10282600000E106E000E0F6E000E126E000E116E70
:102836000FC005F010C006F0D8900536063601C068
:1028460007F002C008F0055007260650082211506E
:102856000724D96E12500820DA6E010EDF6E114A77
:10286600122A125009E1020E115CD8A03DEF14F0B5
:102876003FEF14F01BEF14F00F4A102A105009E135
:10288600020E0F5CD8A04AEF14F04CEF14F017EFCD
:1028960014F088EF16F0000E166E000E156E000E80
:1028A600186E000E176E15501610D8A45DEF14F0B2
:1028B6005FEF14F068EF14F017041810D8B466EF41
:1028C60014F068EF14F092EF14F0020E15181610BB
:1028D600D8A470EF14F072EF14F07BEF14F0170425
:1028E6001810D8B479EF14F07BEF14F092EF14F0CF
:1028F60015C005F016C006F0D8900536063601C09C
:1029060007F002C008F005500726065008221750A7
:102916000724D96E18500820DA6E010EDF6E174AAA
:10292600182A185009E1020E175CD8A09DEF14F082
:102936009FEF14F056EF14F0154A162A165009E1C7
:10294600030E155CD8A0AAEF14F0ACEF14F052EF0A
:1029560014F088EF16F0000E1A6E000E196E000EB7
:102966001C6E000E1B6E19041A10D8A4BDEF14F0CD
:10297600BFEF14F0C8EF14F01B041C10D8B4C6EF58
:1029860014F0C8EF14F0F2EF14F0020E19181A1032
:10299600D8A4D0EF14F0D2EF14F0DBEF14F01B0440
:1029A6001C10D8B4D9EF14F0DBEF14F0F2EF14F0EA
:1029B60019C005F01AC006F0D8900536063601C0D3
:1029C60007F002C008F005500726065008221B50E3
:1029D6000724D96E1C500820DA6E010EDF6E1B4AE2
:1029E6001C2A1C5009E1020E1B5CD8A0FDEF14F056
:1029F600FFEF14F0B6EF14F0194A1A2A1A5009E13B
:102A0600030E195CD8A00AEF15F00CEF15F0B2EF23
:102A160014F088EF16F0000E1E6E000E1D6E000EEE
:102A2600206E000E1F6E205009E1020E1F5CD8A01A
:102A36001FEF15F021EF15F023EF15F063EF15F0FA
:102A46001D041E10D8A42AEF15F02CEF15F035EF53
:102A560015F01F502010D8B433EF15F035EF15F0F0
:102A66005FEF15F0020E1D181E10D8A43DEF15F0ED
:102A76003FEF15F048EF15F01F502010D8B446EF81
:102A860015F048EF15F05FEF15F01DC005F01EC0FC
:102A960006F0D8900536063601C007F002C008F0E9
:102AA60005500726065008221F500724D96E2050CD
:102AB6000820DA6E010EDF6E1F4A202A16EF15F087
:102AC6001D4A1E2A1E5009E1030E1D5CD8A06EEF9A
:102AD60015F070EF15F012EF15F088EF16F0000EF6
:102AE600226E000E216E225009E1030E215CD8A051
:102AF6007FEF15F081EF15F083EF15F088EF16F0F4
:102B0600000E246E000E236E245009E1020E235C93
:102B1600D8A090EF15F092EF15F094EF15F0D4EFE2
:102B260015F021502210D8A49BEF15F09DEF15F05B
:102B3600A6EF15F023042410D8B4A4EF15F0A6EFE1
:102B460015F0D0EF15F0020E21182210D8A4AEEF22
:102B560015F0B0EF15F0B9EF15F023502410D8B4E6
:102B6600B7EF15F0B9EF15F0D0EF15F021C005F06D
:102B760022C006F0D8900536063601C007F002C01E
:102B860008F0055007260650082223500724D96E60
:102B960024500820DA6E010EDF6E234A242A87EFBE
:102BA60015F0214A222A76EF15F0000E266E000E49
:102BB600256E265009E1030E255CD8A0E5EF15F039
:102BC600E7EF15F0E9EF15F088EF16F0000E286E26
:102BD600000E276E285009E1020E275CD8A0F6EFFA
:102BE60015F0F8EF15F0FAEF15F03AEF16F025505C
:102BF6002610D8A401EF16F003EF16F00CEF16F02E
:102C060027502810D8B40AEF16F00CEF16F036EF5E
:102C160016F0020E25182610D8A414EF16F016EF9B
:102C260016F01FEF16F027042810D8B41DEF16F083
:102C36001FEF16F036EF16F025C005F026C006F099
:102C4600D8900536063601C007F002C008F00550D8
:102C560007260650082227500724D96E2850082038
:102C6600DA6E010EDF6E274A282AEDEF15F0254AA7
:102C7600262ADCEF15F0000E146E000E136E1450AB
:102C860009E1040E135CD8A04BEF16F04DEF16F0D9
:102C96004FEF16F088EF16F0D8901334D96E14342F
:102CA600DA6E0150D9260250DA22010EDF6E134A7F
:102CB600142A42EF16F003C005F004C006F00650D1
:102CC600000AD8B469EF16F03EEF16F00550000A78
:102CD600D8B4F5EF13F0010AD8B413EF14F0030AD1
:102CE600D8B44EEF14F0010AD8B4AEEF14F0070AC8
:102CF600D8B40EEF15F0010AD8B472EF15F0030A36
:102D0600D8B4D8EF15F03EEF16F01200000E88EC9E
:102D16000BF03C0E0B6E010E0C6E0A0E71EC0EF0F3
:102D26003B0E0B6E010E0C6E0B0E71EC0EF03A0E96
:102D36000B6E010E0C6E0C0E71EC0EF0390E0B6E56
:102D4600010E0C6E0B0E71EC0EF0380E0B6E010EB2
:102D56000C6E0A0E71EC0EF0380E0B6E010E0C6E38
:102D66000B0E71EC0EF0380E0B6E010E0C6E0C0E87
:102D760071EC0EF0380E0B6E010E0C6E0D0E71EC32
:102D86000EF0380E0B6E010E0C6E0E0E71EC0EF080
:102D9600380E0B6E010E0C6E0F0E71EC0EF0380E27
:102DA6000B6E010E0C6E100E71EC0EF03C0E0B6EDF
:102DB600010E0C6E0B0E71EC0EF03C0E0B6E010E3E
:102DC6000C6E0C0E71EC0EF03C0E0B6E010E0C6EC2
:102DD6000D0E71EC0EF03C0E0B6E010E0C6E0E0E0F
:102DE60071EC0EF03C0E0B6E010E0C6E0F0E71ECBC
:102DF6000EF03C0E0B6E010E0C6E100E71EC0EF00A
:102E0600350E0B6E010E0C6E0A0E71EC0EF0340EC2
:102E16000B6E010E0C6E0A0E71EC0EF0330E0B6E7D
:102E2600010E0C6E0A0E71EC0EF0350E0B6E010ED5
:102E36000C6E0B0E71EC0EF0350E0B6E010E0C6E59
:102E46000C0E71EC0EF0350E0B6E010E0C6E0D0EA7
:102E560071EC0EF0350E0B6E010E0C6E0E0E71EC53
:102E66000EF0350E0B6E010E0C6E0F0E71EC0EF0A1
:102E7600350E0B6E010E0C6E100E71EC0EF0340E4C
:102E86000B6E010E0C6E100E71EC0EF0330E0B6E07
:102E9600010E0C6E100E71EC0EF0340E0B6E010E60
:102EA6000C6E0D0E71EC0EF02F0E0B6E010E0C6EED
:102EB6000A0E71EC0EF02F0E0B6E010E0C6E0B0E41
:102EC60071EC0EF02E0E0B6E010E0C6E0B0E71ECED
:102ED6000EF02D0E0B6E010E0C6E0C0E71EC0EF03C
:102EE6002C0E0B6E010E0C6E0D0E71EC0EF02B0EF1
:102EF6000B6E010E0C6E0E0E71EC0EF02A0E0B6EA2
:102F0600010E0C6E0F0E71EC0EF02F0E0B6E010EF5
:102F16000C6E0C0E71EC0EF02F0E0B6E010E0C6E7D
:102F26000D0E71EC0EF02F0E0B6E010E0C6E100EC8
:102F360071EC0EF02F0E0B6E010E0C6E0D0E71EC79
:102F46000EF02F0E0B6E010E0C6E0E0E71EC0EF0C7
:102F56002F0E0B6E010E0C6E0F0E71EC0EF0290E7D
:102F66000B6E010E0C6E0A0E71EC0EF0290E0B6E36
:102F7600010E0C6E0B0E71EC0EF0290E0B6E010E8F
:102F86000C6E0C0E71EC0EF0290E0B6E010E0C6E13
:102F96000D0E71EC0EF0290E0B6E010E0C6E0E0E60
:102FA60071EC0EF0290E0B6E010E0C6E0F0E71EC0D
:102FB6000EF0290E0B6E010E0C6E100E71EC0EF05B
:102FC600260E0B6E010E0C6E0A0E71EC0EF0260E1E
:102FD6000B6E010E0C6E0B0E71EC0EF0260E0B6EC8
:102FE600010E0C6E0C0E71EC0EF0260E0B6E010E21
:102FF6000C6E0D0E71EC0EF0260E0B6E010E0C6EA5
:103006000E0E71EC0EF0260E0B6E010E0C6E0F0EF0
:1030160071EC0EF0260E0B6E010E0C6E100E71EC9E
:103026000EF0230E0B6E010E0C6E0A0E71EC0EF0F6
:10303600230E0B6E010E0C6E0B0E71EC0EF0230EB2
:103046000B6E010E0C6E0C0E71EC0EF0230E0B6E59
:10305600010E0C6E0D0E71EC0EF0230E0B6E010EB2
:103066000C6E0E0E71EC0EF0230E0B6E010E0C6E36
:103076000F0E71EC0EF0230E0B6E010E0C6E100E81
:1030860071EC0EF0240E0B6E010E0C6E100E71EC30
:103096000EF0250E0B6E010E0C6E100E71EC0EF07E
:1030A6003C0E0B6E010E0C6E1E0E71EC0EF03B0EFE
:1030B6000B6E010E0C6E1E0E71EC0EF03A0E0B6EC0
:1030C600010E0C6E1E0E71EC0EF03C0E0B6E010E18
:1030D6000C6E1F0E71EC0EF03C0E0B6E010E0C6E9C
:1030E600200E71EC0EF03C0E0B6E010E0C6E210ED6
:1030F60071EC0EF03C0E0B6E010E0C6E220E71EC96
:103106000EF03C0E0B6E010E0C6E230E71EC0EF0E3
:103116003C0E0B6E010E0C6E240E71EC0EF0390E89
:103126000B6E010E0C6E1E0E71EC0EF0390E0B6E50
:10313600010E0C6E1F0E71EC0EF0390E0B6E010EA9
:103146000C6E200E71EC0EF0390E0B6E010E0C6E2D
:10315600210E71EC0EF0390E0B6E010E0C6E220E66
:1031660071EC0EF0390E0B6E010E0C6E230E71EC27
:103176000EF0390E0B6E010E0C6E240E71EC0EF075
:103186003A0E0B6E010E0C6E240E71EC0EF03B0E19
:103196000B6E010E0C6E240E71EC0EF0300E0B6EE3
:1031A600010E0C6E1E0E71EC0EF02F0E0B6E010E44
:1031B6000C6E1E0E71EC0EF02E0E0B6E010E0C6ECA
:1031C6001E0E71EC0EF02D0E0B6E010E0C6E1F0E08
:1031D60071EC0EF02D0E0B6E010E0C6E200E71ECC6
:1031E6000EF02D0E0B6E010E0C6E210E71EC0EF014
:1031F6002E0E0B6E010E0C6E210E71EC0EF02F0EC4
:103206000B6E010E0C6E210E71EC0EF02F0E0B6E76
:10321600010E0C6E220E71EC0EF02E0E0B6E010ED0
:103226000C6E230E71EC0EF02D0E0B6E010E0C6E55
:10323600240E71EC0EF0300E0B6E010E0C6E1F0E8E
:1032460071EC0EF0300E0B6E010E0C6E200E71EC52
:103256000EF0300E0B6E010E0C6E210E71EC0EF0A0
:10326600300E0B6E010E0C6E220E71EC0EF0300E4F
:103276000B6E010E0C6E230E71EC0EF0300E0B6E03
:10328600010E0C6E240E71EC0EF02B0E0B6E010E61
:103296000C6E1E0E71EC0EF02A0E0B6E010E0C6EED
:1032A6001E0E71EC0EF0290E0B6E010E0C6E1E0E2C
:1032B60071EC0EF02B0E0B6E010E0C6E1F0E71ECE8
:1032C6000EF02B0E0B6E010E0C6E200E71EC0EF036
:1032D6002B0E0B6E010E0C6E210E71EC0EF02B0EEA
:1032E6000B6E010E0C6E220E71EC0EF02B0E0B6E99
:1032F600010E0C6E230E71EC0EF02B0E0B6E010EF2
:103306000C6E240E71EC0EF02A0E0B6E010E0C6E76
:10331600240E71EC0EF0290E0B6E010E0C6E240EAF
:1033260071EC0EF02A0E0B6E010E0C6E210E71EC76
:103336000EF0260E0B6E010E0C6E1E0E71EC0EF0CC
:10334600260E0B6E010E0C6E1F0E71EC0EF0260E85
:103356000B6E010E0C6E200E71EC0EF0260E0B6E2F
:10336600010E0C6E210E71EC0EF0260E0B6E010E88
:103376000C6E220E71EC0EF0260E0B6E010E0C6E0C
:10338600230E71EC0EF0250E0B6E010E0C6E240E44
:1033960071EC0EF03C0E0B6E010E0C6E290E71ECEC
:1033A6000EF03B0E0B6E010E0C6E280E71EC0EF03D
:1033B6003B0E0B6E010E0C6E290E71EC0EF03B0EE1
:1033C6000B6E010E0C6E2A0E71EC0EF03B0E0B6EA0
:1033D600010E0C6E2B0E71EC0EF03B0E0B6E010EF9
:1033E6000C6E2C0E71EC0EF03B0E0B6E010E0C6E7D
:1033F6002D0E71EC0EF03B0E0B6E010E0C6E2E0EAA
:1034060071EC0EF02C0E0B6E010E0C6E280E71EC8C
:103416000EF02D0E0B6E010E0C6E280E71EC0EF0DA
:103426002E0E0B6E010E0C6E280E71EC0EF02F0E8A
:103436000B6E010E0C6E280E71EC0EF0300E0B6E3C
:10344600010E0C6E280E71EC0EF02D0E0B6E010E99
:103456000C6E290E71EC0EF02D0E0B6E010E0C6E1D
:103466002A0E71EC0EF02D0E0B6E010E0C6E2B0E4D
:1034760071EC0EF02D0E0B6E010E0C6E2C0E71EC17
:103486000EF02D0E0B6E010E0C6E2D0E71EC0EF065
:103496002E0E0B6E010E0C6E2E0E71EC0EF02F0E14
:1034A6000B6E010E0C6E2E0E71EC0EF0300E0B6EC6
:1034B600010E0C6E2E0E71EC0EF02B0E0B6E010E25
:1034C6000C6E280E71EC0EF02A0E0B6E010E0C6EB1
:1034D600280E71EC0EF0290E0B6E010E0C6E280EE6
:1034E60071EC0EF02B0E0B6E010E0C6E290E71ECAC
:1034F6000EF02B0E0B6E010E0C6E2A0E71EC0EF0FA
:103506002B0E0B6E010E0C6E2B0E71EC0EF02B0EAD
:103516000B6E010E0C6E2C0E71EC0EF02B0E0B6E5C
:10352600010E0C6E2D0E71EC0EF02B0E0B6E010EB5
:103536000C6E2E0E71EC0EF02A0E0B6E010E0C6E3A
:103546002E0E71EC0EF0290E0B6E010E0C6E2E0E69
:1035560071EC0EF02A0E0B6E010E0C6E2B0E71EC3A
:103566000EF0260E0B6E010E0C6E280E71EC0EF090
:10357600260E0B6E010E0C6E290E71EC0EF0260E49
:103586000B6E010E0C6E2A0E71EC0EF0260E0B6EF3
:10359600010E0C6E2B0E71EC0EF0260E0B6E010E4C
:1035A6000C6E2C0E71EC0EF0260E0B6E010E0C6ED0
:1035B6002D0E71EC0EF0260E0B6E010E0C6E2E0EFD
:1035C60071EC0EF0230E0B6E010E0C6E280E71ECD4
:1035D6000EF0230E0B6E010E0C6E290E71EC0EF022
:1035E600230E0B6E010E0C6E2A0E71EC0EF0230EDE
:1035F6000B6E010E0C6E2B0E71EC0EF0230E0B6E85
:10360600010E0C6E2C0E71EC0EF0230E0B6E010EDD
:103616000C6E2D0E71EC0EF0230E0B6E010E0C6E61
:103626002E0E71EC0EF0240E0B6E010E0C6E2E0E8D
:1036360071EC0EF0250E0B6E010E0C6E2E0E71EC5B
:103646000EF0120096EC09F0010E5AEC0CF0000E8A
:103656000B6E010E16EC0BF082804AEC0BF0000E9E
:10366600016E000E026E37EC0AF001C037F002C0A0
:1036760038F003C039F004C03AF005C03BF006C08C
:103686003CF007C03DF008C03EF037C009F039C035
:103696000AF0AEEC09F020EE49F0070EDE6AE80605
:1036A600FDE220EE3FF0070EDE6AE806FDE221EEBF
:1036B60000F0DB0EDE6AE806FDE2000E0001BC6FDC
:1036C600000EBB6F000EC26F000EC16F000EC46FFE
:1036D600000EC36F000E486E000E476E000E5E6E43
:1036E600000E5D6E000EBE6F000EBD6F000E526EB8
:1036F600000E516E000EC06F000EBF6F000E1C6EE6
:10370600010E1D6EAFEC0DF0E7EF1FF051C001F09A
:1037160052C002F0000E046E140E036EE4EC0AF0C2
:1037260001500210D8A49AEF1BF09CEF1BF0A1EFFA
:103736001DF05D505E10D8B4A3EF1BF0A5EF1BF093
:10374600A1EF1DF08404D8A4ABEF1BF0ADEF1BF086
:103756004EEF1CF00001C351C411D8B4B5EF1BF0F5
:10376600B7EF1BF04EEF1CF0C1C001F0C2C002F073
:10377600000E046E0A0E036E83EC09F0000E376E1F
:10378600010E386E01503726025038220001C3510F
:103796003726C4513822FF0E3724D96EFF0E382043
:1037A600DA6EDF50D8A4DAEF1BF0DCEF1BF04EEF39
:1037B6001CF0C1C001F0C2C002F0000E046E0A0E79
:1037C600036E83EC09F0000E376E010E386E015061
:1037D6003726025038220001C3513726C4513822F9
:1037E600090E3724D96E000E3820DA6EDF50D8A4C1
:1037F600FFEF1BF001EF1CF04EEF1CF0C1C001F013
:10380600C2C002F0000E046E0A0E036E83EC09F0CD
:10381600000E376E010E386E0150372602503822E0
:103826000001C3513726C4513822130E3724D96EEE
:10383600000E3820DA6EDF50D8A424EF1CF026EFF5
:103846001CF04EEF1CF0C1C001F0C2C002F0000E29
:10385600046E0A0E036E83EC09F0000E376E010E3D
:10386600386E01503726025038220001C3513726E0
:10387600C45138221D0E3724D96E000E3820DA6E58
:10388600DF50D8A449EF1CF04BEF1CF04EEF1CF0B4
:10389600C307D8A0C407020E8418D8A455EF1CF09D
:1038A60057EF1CF042EF1DF0C1C001F0C2C002F09C
:1038B600000E046E0A0E036E83EC09F0000E376EDE
:1038C600010E386E01503726025038220001C351CE
:1038D6003726C4513822010E3724D96E000E3820FF
:1038E600DA6EDF50D8A47AEF1CF07CEF1CF042EFC2
:1038F6001DF0C1C001F0C2C002F0000E046E0A0E37
:10390600036E83EC09F0000E376E010E386E01501F
:103916003726025038220001C3513726C4513822B7
:10392600090E3724D96E000E3820DA6EDF50D8A47F
:103936009FEF1CF0A1EF1CF042EF1DF0C1C001F09B
:10394600C2C002F0000E046E0A0E036E83EC09F08C
:10395600000E376E010E386E01503726025038229F
:103966000001C3513726C4513822130E3724D96EAD
:10397600000E3820DA6EDF50D8A4C4EF1CF0C6EF74
:103986001CF042EF1DF0C1C001F0C2C002F0000EF3
:10399600046E0A0E036E83EC09F0000E376E010EFC
:1039A600386E01503726025038220001C35137269F
:1039B600C45138221D0E3724D96E000E3820DA6E17
:1039C600DF50D8A4E9EF1CF0EBEF1CF042EF1DF03E
:1039D600C45107E1080EC35DD8B0F4EF1CF0F6EF52
:1039E6001CF0FDEF1CF0BBA1FBEF1CF0FDEF1CF083
:1039F60040EF1DF0BD51BE11D8B404EF1DF006EF27
:103A06001DF011EF1DF0C45109E1070EC35DD8A0EA
:103A16000FEF1DF011EF1DF040EF1DF0BD51BE116F
:103A2600D8A418EF1DF01AEF1DF02CEF1DF0C451AD
:103A360007E1090EC35DD8B023EF1DF025EF1DF099
:103A46002CEF1DF0BBA12AEF1DF02CEF1DF040EF6F
:103A56001DF0BD51BE11D8A433EF1DF035EF1DF09A
:103A660042EF1DF0C45107E1060EC35DD8B03EEF2C
:103A76001DF040EF1DF042EF1DF0C34BC42B040EAA
:103A86008418D8A449EF1DF04BEF1DF05BEF1DF035
:103A96000001BD05BE11D8B453EF1DF055EF1DF062
:103AA6005BEF1DF0BB0E016E000E026EC6EC09F058
:103AB6008404D8B461EF1DF063EF1DF075EF1DF0BF
:103AC600020E8418D8B46AEF1DF06CEF1DF075EF86
:103AD6001DF0040E8418D8A473EF1DF075EF1DF0C9
:103AE600A1EF1DF0490E016E000E026EBDC003F07F
:103AF600BEC004F0BAEC13F0490E016E000E026E61
:103B0600C1C003F0C2C004F0C3C005F0C4C006F0D3
:103B1600BBC007F0BCC008F03FEC11F03F0E1C6EB6
:103B2600000E1D6E000E1E6E85EC0AF0490E1C6E10
:103B3600000E1D6E010E1E6E85EC0AF051C001F0DE
:103B460052C002F0000E046E320E036EE4EC0AF070
:103B560001500210D8A4B2EF1DF0B4EF1DF0ECEF47
:103B66001DF05D505E10D8B4BBEF1DF0BDEF1DF02B
:103B7600ECEF1DF0490E016E000E026EBDC003F0A3
:103B8600BEC004F0BAEC13F0490E016E000E026ED0
:103B9600C1C003F0C2C004F0C3C005F0C4C006F043
:103BA600BBC007F0BCC008F03FEC11F03F0E1C6E26
:103BB600000E1D6E000E1E6E85EC0AF0490E1C6E80
:103BC600000E1D6E010E1E6E85EC0AF00001C14B43
:103BD600C22B514A522A5D505E10D8A4F5EF1DF053
:103BE600F7EF1DF01BEF1EF0000E0001C26F000E76
:103BF600C16F000EC46F040EC36FDAEC0EF019C06D
:103C060023F01AC024F0000E266E070E256EF8EC7F
:103C16000CF023C0BDF024C0BEF0000E0001BC6F46
:103C2600000EBB6F000E5E6E010E5D6E61EF1FF043
:103C3600000E016E010E026E490E036E000E046E3A
:103C4600C0EC0FF001500210D8B42CEF1EF02EEF8E
:103C56001EF00AEF1FF0000E016E010E026E490EF5
:103C6600036E000E046EBFC005F0C0C006F0C8ECBF
:103C76000BF03F0E1C6E000E1D6E000E1E6E85ECC8
:103C86000AF0490E1C6E000E1D6E010E1E6E85ECAE
:103C96000AF0000E1C6E010E1D6EAFEC0DF0000E4C
:103CA600546E000E536E545009E1040E535CD8A0B6
:103CB6005FEF1EF061EF1EF063EF1EF093EF1EF054
:103CC600000E566E000E556E565009E1020E555CFA
:103CD600D8A070EF1EF072EF1EF074EF1EF08FEF9B
:103CE6001EF053C037F054C038F0D8903736383607
:103CF6003F0E396E000E3A6E3750392638503A224A
:103D060055503924D96E56503A20DA6E000EDF6EC1
:103D1600554A562A67EF1EF0534A542A56EF1EF0AC
:103D2600000E586E000E576E585009E1040E575C8F
:103D3600D8A0A0EF1EF0A2EF1EF0A4EF1EF0D4EF65
:103D46001EF0000E5A6E000E596E5A5009E1020E10
:103D5600595CD8A0B1EF1EF0B3EF1EF0B5EF1EF020
:103D6600D0EF1EF057C037F058C038F0D89037362D
:103D76003836490E396E000E3A6E375039263850AD
:103D86003A2259503924D96E5A503A20DA6E000E2A
:103D9600DF6E594A5A2AA8EF1EF0574A582A97EF5B
:103DA6001EF0000E526E000E516E000E5C6E000E7E
:103DB6005B6E5C5009E10A0E5B5CD8A0E5EF1EF075
:103DC600E7EF1EF0E9EF1EF004EF1FF0000E5B2494
:103DD600D96E010E5C20DA6EDE04D8A4F5EF1EF073
:103DE600F7EF1EF000EF1FF0000E486E010E476E53
:103DF600000E0001C06F000EBF6F5B4A5C2ADCEF4D
:103E06001EF0000E5E6E000E5D6E61EF1FF0000E7E
:103E16000001B66F000EB56FB65109E1040EB55D2F
:103E2600D8A018EF1FF01AEF1FF01CEF1FF061EF7C
:103E36001FF0000EB86F000EB76FB85109E1020E01
:103E4600B75DD8A029EF1FF02BEF1FF02DEF1FF065
:103E56005DEF1FF0B5C037F0B6C038F0D8903736F2
:103E66003836490E396E000E3A6E375039263850BC
:103E76003A22B7513924D96EB8513A20DA6EB5C014
:103E86003BF0B6C03CF0D8903B363C363F0E3D6E1C
:103E9600000E3E6E3B503D263C503E22B7513D241F
:103EA600E16EB8513E20E26EDFCFE7FFB74BB82B8D
:103EB60020EF1FF0B54BB62B0FEF1FF0000E0001E1
:103EC600BA6F000EB96FBA5109E1160EB95DD8A0E6
:103ED6006FEF1FF071EF1FF073EF1FF0A2EF1FF0EF
:103EE600000E076E010E086EB9C009F0BAC00AF0DE
:103EF6000EEC0CF007500810D8B484EF1FF086EFD4
:103F06001FF09DEF1FF0000E076E010E086EB9C080
:103F160009F0BAC00AF0BFC00BF0C0C00CF049EC03
:103F26000FF00001BF4BC02B000E1C6E010E1D6E64
:103F3600AFEC0DF00001B94BBA2B66EF1FF0BFA135
:103F4600A7EF1FF0A9EF1FF0ACEF1FF08282ADEFD5
:103F56001FF08292020EBF19C011D8B4B5EF1FF040
:103F6600B7EF1FF0CBEF1FF0060EBF19C011D8B484
:103F7600BFEF1FF0C1EF1FF0CBEF1FF0070EBF1909
:103F8600C011D8A4C9EF1FF0CBEF1FF0CEEF1FF082
:103F96008284CFEF1FF08294060EBF19C011D8B4E9
:103FA600D7EF1FF0D9EF1FF0E3EF1FF0070EBF1991
:103FB600C011D8A4E1EF1FF0E3EF1FF0E6EF1FF00A
:103FC600828AE7EF1FF0829A47504810D8B4EEEF86
:103FD6001FF0F0EF1FF089EF1BF08290030E386E92
:103FE600080E376E770EE82EFED7372EFCD7382E02
:0A3FF600FAD700F0828000EF00F01F
:020000040020DA
:08000000FFFFFFFFFFFFFFFF00
:020000040030CA
:0E000000000C191EFF8201FF03400360034045
:00000001FF
