:020000040000FA
:040000002BEF37F0BB
:106CAA005AEF36F00106D8A0020601040210D8A451
:106CBA0061EF36F063EF36F057EF36F01200848258
:106CCA00010E026E2C0E016E55EC36F08492010E06
:106CDA00026E2C0E016E55EC36F012008482000E04
:106CEA00026EE10E016E55EC36F08492000E026ED1
:106CFA00E10E016E55EC36F012008482010E026E2E
:106D0A00640E016E55EC36F08492010E026E640E2A
:106D1A00016E55EC36F012008482000E026EB20E3D
:106D2A00016E55EC36F08492000E026EB20E016EC0
:106D3A0055EC36F012008482000E026EEF0E016EE0
:106D4A0055EC36F08492000E026EEF0E016E55EC91
:106D5A0036F012008482010E026E0C0E016E55ECA2
:106D6A0036F08492010E026E0C0E016E55EC36F06E
:106D7A0012008482010E026E3E0E016E55EC36F050
:106D8A008492010E026E3E0E016E55EC36F0120030
:106D9A008482000E026EC80E016E55EC36F08492A3
:106DAA00000E026EC80E016E55EC36F012000F0E80
:106DBA00C16E000EC26E000E926E000E936E000E31
:106DCA00946E000E956E000E966E000E806E000E8A
:106DDA00816E000E826E000E836E000E846E1200AB
:106DEA000A6E0A50D8B4FCEF36F0FEEF36F002EF26
:106DFA0037F08A808A9204EF37F08A928A82000EEC
:106E0A00956E8A9609C08CFF8A8800D08A9800D02D
:106E1A008A908A921200016E0150D8B417EF37F0A7
:106E2A0019EF37F01DEF37F08A808A921FEF37F09B
:106E3A008A928A8295688A868A8800D083CF02F0ED
:106E4A008A9800D08A908A9202501200EE0EF66E4C
:106E5A006F0EF76E000EF86E00EE60F010EE94F012
:106E6A000900F5CFEEFFE550E150FAE102EE00F03D
:106E7A00DC0EEE6AE806FDE1216A206A000EF86E71
:106E8A0000017CEF37F00D6E000E0C6E800E0D6067
:106E9A0051EF37F053EF37F07BEF37F0070E0B6403
:106EAA0059EF37F05BEF37F05DEF37F07BEF37F0F4
:106EBA000DC021F00BC020F03F0E0D6467EF37F0D4
:106ECA0069EF37F06DEF37F0400E0D5E010E0C6E74
:106EDA008A940D504009096E0C50F5EC36F00B50AF
:106EEA00B809096E0C50F5EC36F08A841200DCEC15
:106EFA0036F0010E41EC38F021EE00F0DB0EDE6ACE
:106F0A00E806FDE2010E0101156F010EDB6F010EAD
:106F1A002B6F010E006F010E786F010E796F010E53
:106F2A007A6F010E906F000EB7EC37F0000E0B6E01
:106F3A00010E48EC37F0140E126E5A0E136E3E0E06
:106F4A00146E010E156E010E8FEC38F0000E196EDC
:106F5A00010E1A6EB9EC39F05CEC3AF0B1EF37F089
:106F6A0000EF00F00B6E000E0D6E8A94400E096E53
:106F7A00000EF5EC36F0400E096E010EF5EC36F017
:106F8A000D50B809096E000EF5EC36F00D50B8092F
:106F9A00096E010EF5EC36F08A84000E0C6E0B5069
:106FAA00010DF3500008096E000EF5EC36F00B5097
:106FBA00010DF3500008096E010EF5EC36F00C2AAB
:106FCA003F0E0C64EBEF37F0EDEF37F0D4EF37F00C
:106FDA000D2A070E0D64F4EF37F0F6EF37F0BAEF2B
:106FEA0037F01200E4020000150101002701020037
:106FFA00940203002701020015010100F4010400B4
:10700A00FA00040027010200E40200004A0103001A
:10701A00270102003F030100270102009402030036
:10702A00E40200004E020200F4010400F40104002C
:10703A00940203008B010500F4010700BD0106005C
:10704A008B0105005604000027010200E40200003B
:10705A004A010300270102002B0201001501010069
:10706A002701020094020300E40200004E0202001B
:10707A00F4010400F40104000E6E000E836E8A9A75
:10708A00210EE82EFED700F08A8A8A988A908A9280
:10709A008A9400D0C00E096E000EF5EC36F0C00ED0
:1070AA00096E010EF5EC36F0400E096E000EF5EC95
:1070BA0036F0400E096E010EF5EC36F0B80E096E88
:1070CA00000EF5EC36F0B80E096E010EF5EC36F04E
:1070DA000E04D8A473EF38F075EF38F081EF38F06A
:1070EA003F0E096E000EF5EC36F03F0E096E010EEA
:1070FA00F5EC36F08BEF38F03E0E096E000EF5EC2B
:10710A0036F03E0E096E010EF5EC36F0000EB7ECC5
:10711A0037F01200166E1250145CD8B097EF38F0A0
:10712A0099EF38F09BEF38F0EDEF38F01650135C1A
:10713A00D8B0A2EF38F0A4EF38F0A6EF38F0EDEFB0
:10714A0038F016C017F0E4EF38F012C018F0DAEF92
:10715A0038F016501718D8B4B5EF38F0B7EF38F042
:10716A00D2EF38F013501718D8B4BEEF38F0C0EF8A
:10717A0038F0D2EF38F014501818D8B4C7EF38F0F6
:10718A00C9EF38F0D2EF38F012501818D8A4D0EF5F
:10719A0038F0D2EF38F0D9EF38F018C00BF015C03C
:1071AA000CF0175050EC39F0182A1850145CD8B06B
:1071BA00E1EF38F0E3EF38F0AEEF38F0172A175066
:1071CA00135CD8B0EBEF38F0EDEF38F0AAEF38F0F7
:1071DA001200000E066E04BEF7EF38F0F5EF38F035
:1071EA00FDEF38F0036C041ED8B0042A010E066EB7
:1071FA0002BE04EF39F002EF39F00AEF39F0016C00
:10720A00021ED8B0022A010E061A000E086E000EDF
:10721A00076E03500410D8B415EF39F017EF39F0A0
:10722A003FEF39F0010E056E1FEF39F0D8900336A3
:10723A000436052A04AE24EF39F026EF39F01BEFA5
:10724A0039F0D890073608360350015C04500258CA
:10725A00D8A032EF39F034EF39F039EF39F0035072
:10726A00015E0450025A0780D89004320332052E78
:10727A0026EF39F00650D8B445EF39F047EF39F028
:10728A004BEF39F0076C081ED8B0082A07C001F086
:10729A0008C002F012000F6E000E116E3F0E0F644E
:1072AA0059EF39F05BEF39F05FEF39F0400E0F5EBE
:1072BA00010E116E8A940F9E0F8C0FC009F01150A7
:1072CA00F5EC36F00BC001F0026A000E046E080EEF
:1072DA00036EEEEC38F00150BF0BB809096E11507D
:1072EA00F5EC36F08A84115010EC37F0115010EC9E
:1072FA0037F0106E8A940FC009F01150F5EC36F091
:10730A000C50D8B48BEF39F08DEF39F0A0EF39F08B
:10731A000BC00DF0070E0D16010E0E6E0D2A98EF1A
:10732A0039F0D8900E360D2E96EF39F00E50101017
:10733A00106EB2EF39F00BC00DF0070E0D16010EEC
:10734A000E6E0D2AABEF39F0D8900E360D2EA9EF3E
:10735A0039F00E50FF0A1014106E8A8410C009F01A
:10736A001150F5EC36F01200000E1E6E000E1F6E64
:10737A001E50160D19C01BF01AC01CF0F3501B2624
:10738A00F4501C221F501B24D96E000E1C20DA6EEA
:10739A00DE04D8A4D3EF39F0D5EF39F003EF3AF091
:1073AA001E50FC0DF3503A0F126E1F50040DF3508D
:1073BA00050F136E1E50FC0DF3503D0F146E010E97
:1073CA00156E1F50040DF350020F8FEC38F01E504B
:1073DA00FC0DF3503B0F126E1F50040DF350040FB7
:1073EA00136E1E50FC0DF3503C0F146E010E156EF9
:1073FA001F50040DF350030F8FEC38F01E50160D7A
:10740A0019C01BF01AC01CF0F3501B26F4501C22A2
:10741A001F501B24D96E000E1C20DA6EDF50D8A430
:10742A0019EF3AF01BEF3AF049EF3AF01E50FC0D13
:10743A00F3503A0F126E1F50040DF350050F136EDE
:10744A001E50FC0DF3503D0F146E000E156E1F50AA
:10745A00040DF350020F8FEC38F01E50FC0DF35060
:10746A003B0F126E1F50040DF350040F136E1E5083
:10747A00FC0DF3503C0F146E000E156E1F50040DD8
:10748A00F350030F8FEC38F01F2A150E1F6450EFCC
:10749A003AF052EF3AF0BDEF39F01E2A090E1E6497
:1074AA0059EF3AF05BEF3AF0BBEF39F012009692DF
:1074BA00000E0A6E000E096E000E086E000E076EB0
:1074CA0067EF3BF0600E036E000E046E020E032699
:1074DA00000E0422D8900934D96E0A34DA6ED89094
:1074EA00D936DA360350D9260450DA22DE50DE10B5
:1074FA00D8A482EF3AF084EF3AF086EF3AF0A0ECA3
:10750A0036F0600E036E000E046E020E0326000EA5
:10751A000422D8900934D96E0A34DA6ED890D93652
:10752A00DA360350D9260450DA22DE04DE10D8A453
:10753A00A1EF3AF0A3EF3AF0A5EF3AF0BEEC36F03D
:10754A00600E036E000E046E020E0326000E042265
:10755A00D8900934D96E0A34DA6ED890D936DA3628
:10756A000350D9260450DA22020EDE18DE10D8A4FF
:10757A00C1EF3AF0C3EF3AF0C5EF3AF064EC36F0F7
:10758A00600E036E000E046E020E0326000E042225
:10759A00D8900934D96E0A34DA6ED890D936DA36E8
:1075AA000350D9260450DA22030EDE18DE10D8A4BE
:1075BA00E1EF3AF0E3EF3AF0E5EF3AF0AFEC36F00C
:1075CA00600E036E000E046E020E0326000E0422E5
:1075DA00D8900934D96E0A34DA6ED890D936DA36A8
:1075EA000350D9260450DA22040EDE18DE10D8A47D
:1075FA0001EF3BF003EF3BF005EF3BF082EC36F096
:10760A00600E036E000E046E020E0326000E0422A4
:10761A00D8900934D96E0A34DA6ED890D936DA3667
:10762A000350D9260450DA22050EDE18DE10D8A43B
:10763A0021EF3BF023EF3BF025EF3BF073EC36F004
:10764A00600E036E000E046E020E0326000E042264
:10765A00D8900934D96E0A34DA6ED890D936DA3627
:10766A000350D9260450DA22060EDE18DE10D8A4FA
:10767A0041EF3BF043EF3BF045EF3BF0CDEC36F00A
:10768A00600E036E000E046E020E0326000E042224
:10769A00D8900934D96E0A34DA6ED890D936DA36E7
:1076AA000350D9260450DA22070EDE18DE10D8A4B9
:1076BA0061EF3BF063EF3BF065EF3BF091EC36F0A6
:1076CA00074A082A600E036E000E046ED890093429
:1076DA00D96E0A34DA6ED890D936DA360350D926FA
:1076EA000450DA22DECF05F0DDCF06F0D89006325C
:1076FA000532D890063205320550075C0650085804
:10770A00D8A08AEF3BF08CEF3BF067EF3AF0094ADA
:10771A000A2A0ABE9AEF3BF00A5009E1250E095CD3
:10772A00D8A09AEF3BF09CEF3BF061EF3AF01200E1
:10773A00000000000000000000000000000000003F
:10774A00000000000000000000000000000000002F
:10775A00000000000000000000000000000000001F
:10776A00000000000000000000000000000000000F
:10777A0000000000000000000000000000000000FF
:10778A0000000000000000000000000000000000EF
:10779A0000000000000000000000000000000000DF
:1077AA0000000000000000000000000000000000CF
:1077BA0000000000000000000000000000000000BF
:1077CA0000000000000000000000000000000000AF
:1077DA00000000000000000000000000000000009F
:1077EA00000000000000000000000000000000008F
:1077FA00000000000000000000000000000000007F
:10780A00000000000000000000000000000000006E
:10781A00000000000000000000000000000000005E
:10782A00000000000000000000000000000000004E
:10783A0000000000000000000000065F5F06000074
:10784A00000007070007070000147F7F147F7F14DA
:10785A0000242E6B6B3A120000466630180C6662E2
:10786A0000307A4F5D377A480004070300000000B1
:10787A0000001C3E63410000000041633E1C000002
:10788A0000082A3E1C1C3E2A0808083E3E0808003A
:10789A00000080E0600000000008080808080800EE
:1078AA000000006060000000006030180C06030150
:1078BA00003E7F71594D7F3E0040427F7F4040002D
:1078CA0000627359496F660000226349497F360096
:1078DA0000181C16537F7F5000276745457D3900E5
:1078EA00003C7E4B4979300000030371790F070091
:1078FA0000367F49497F360000064F49693F1E001E
:10790A000000006666000000000080E666000000D5
:10791A0000081C3663410000002424242424240087
:10792A0000004163361C080000020351590F06008B
:10793A00003E7F415D5D1F1E007C7E13137E7C002E
:10794A0000417F7F49497F36001C3E6341416322E3
:10795A0000417F7F41633E1C00417F7F495D416357
:10796A0000417F7F491D0103001C3E634151737230
:10797A00007F7F08087F7F000000417F7F41000071
:10798A0000307040417F3F0100417F7F081C7763D0
:10799A0000417F7F41406070007F7F0E1C0E7F7F19
:1079AA00007F7F060C187F7F001C3E6341633E1CEC
:1079BA0000417F7F49090F06001E3F21717F5E004B
:1079CA0000417F7F09197F6600266F4D5973320087
:1079DA000003417F7F410300007F7F40407F7F009B
:1079EA00001F3F60603F1F00007F7F3018307F7F9D
:1079FA000043673C183C674300074F78784F0700FD
:107A0A0000476371594D677300007F7F4141000051
:107A1A00000103060C183060000041417F7F00001E
:107A2A0000080C0603060C08008080808080808095
:107A3A00800000030704000000207454543C78407E
:107A4A0000417F3F4848783000387C44446C280025
:107A5A0000307848493F7F4000387C54545C180015
:107A6A0000487E7F490302000098BCA4A4F87C0465
:107A7A0000417F7F08047C780000447D7D4000003F
:107A8A000060E08080FD7D0000417F7F10386C44FB
:107A9A000000417F7F400000007C7C18381C7C7805
:107AAA00007C7C04047C780000387C44447C3800E8
:107ABA000084FCF8A4243C1800183C24A4F8FC8494
:107ACA0000447C784C041C1800485C54547424000C
:107ADA000000043E7F442400003C7C40403C7C4043
:107AEA00001C3C60603C1C00003C7C7038707C3C94
:107AFA0000446C3810386C44009CBCA0A0FC7C008C
:107B0A00004C64745C4C64000008083E77414100F4
:107B1A000000000077770000004141773E08080026
:107B2A0000020301030203010070784C464C78708E
:107B3A00000E9F91B1FB4A00003A7A40407A7A409F
:107B4A0000387C54555D19000002237555557D7B1C
:107B5A0042217554547D794000217555547C7840F2
:107B6A0000207457577C784000183CA4A4E44000D5
:107B7A0000023B7D55555D1B02397D54545D190049
:107B8A0000397D55545C18000001457C7C41010098
:107B9A00000203457D7D43020001457D7C400000D3
:107BAA0000797D1612167D790070782B2B7870007B
:107BBA0000447C7C5555450000207454547C7C5408
:107BCA00547C7E0B097F7F4900327B49497B320016
:107BDA0000327A48487A320000327A4A48783000CD
:107BEA00003A7B41417B7A40003A7A4240787840B9
:107BFA00009ABAA0A0FA7A000001193C66663C19FC
:107C0A00013D7D40407D3D0000183C24E7E72424E7
:107C1A0000687E7F49436620002B2FFCFC2F2B0037
:107C2A0000FFFF09092FF6F8A040C088FE7F09036C
:107C3A0002207454557D79400000447D7D41000046
:107C4A00003078484A7A320000387840427A7A40DE
:107C5A00007A7A0A0A7A7000007D7D19317D7D00EA
:107C6A000000262F292F2F280000262F292F260033
:107C7A000030784D456020000038380808080800B0
:107C8A000008080808383800004F6F3018CCEEBBDF
:107C9A00914F6F30186C76FBF90000007B7B000077
:107CAA0000081C3622081C362222361C0822361CE2
:107CBA0008AA005500AA005500AA55AA55AA55AA0D
:107CCA0055DDFFAA77DDAAFF77000000FFFF00005D
:107CDA0000101010FFFF000000141414FFFF000032
:107CEA00001010FFFF00FFFF001010F0F010F0F07E
:107CFA0000141414FCFC0000001414F7F700FFFF32
:107D0A00000000FFFF00FFFF001414F4F404FCFC61
:107D1A000014141717101F1F0010101F1F101F1F09
:107D2A00001414141F1F000000101010F0F00000BF
:107D3A00000000001F1F1010101010101F1F10103D
:107D4A0010101010F0F0101010000000FFFF1010BB
:107D5A00101010101010101010101010FFFF10103B
:107D6A0010000000FFFF1414140000FFFF00FFFFC3
:107D7A001000001F1F101717140000FCFC04F4F475
:107D8A001414141717101717141414F4F404F4F431
:107D9A00140000FFFF00F7F7141414141414141439
:107DAA00141414F7F700F7F714141414171714140B
:107DBA001410101F1F101F1F10141414F4F414149D
:107DCA00141010F0F010F0F01000001F1F101F1F09
:107DDA00100000001F1F141414000000FCFC1414EF
:107DEA00140000F0F010F0F0101010FFFF10FFFF69
:107DFA0010141414FFFF1414141010101F1F000085
:107E0A0000000000F0F0101010FFFFFFFFFFFFFF5F
:107E1A00FFF0F0F0F0F0F0F0F0FFFFFFFF000000DD
:107E2A000000000000FFFFFFFF0F0F0F0F0F0F0FE3
:107E3A000F387C446C386C4400FCFE2A2A3E14003D
:107E4A00007E7E020206060000027E7E027E7E021E
:107E5A000063775D4963630000387C447C3C04041A
:107E6A000080FE7E20203E1E000406027E7C060262
:107E7A000099BDE7E7BD9900001C3E6B496B3E1CAB
:107E8A00004C7E7301737E4C0030784A4F7D390076
:107E9A0000183C243C3C243C1898FC643C3E273D9A
:107EAA0018000000000000000000000000000000B0
:107EBA0000000000000000000000000000000000B8
:107ECA0000000000000000000000000000000000A8
:107EDA000000000000000000000000000000000098
:107EEA000000000000000000000000000000000088
:107EFA000000000000000000000000000000000078
:107F0A000000000000000000000000000000000067
:107F1A000000000000000000000000000000000057
:107F2A000000000000000000000000000000000047
:107F3A0000000000005C000C000C7C287C7C447C67
:107F4A00241048285408000C003844004438002003
:107F5A001008103810804000101010004000201047
:107F6A0008384438007C006454484454281C107C67
:107F7A004C542438542004740C28542808543800CB
:107F8A0050008050001028442828284428100454FF
:107F9A0008384C5C7814787C54283844447C44383B
:107FAA007C54447C14043844347C107C007C0020CB
:107FBA00403C7C106C7C40407C087C7C047C7C448B
:107FCA007C7C14083844787C1468485424047C0463
:107FDA007C407C3C403C7C207C6C106C1C601C64AB
:107FEA00544C7C4400081020447C0008040880801B
:057FFA008004080000F6
:020000040020DA
:08000000FFFFFFFFFFFFFFFF00
:020000040030CA
:0E000000000C191EFF8301FF0FC00FE00F4020
:00000001FF
