:020000040000FA
:040000003DEF38F0A8
:10707A00196A186A000EF86E000186EF38F00A6E77
:10708A000A50D8B44BEF38F04DEF38F051EF38F0E2
:10709A008A808A9253EF38F08A928A82000E956E1D
:1070AA008A9609C08CFF8A88080EE82EFED700F05F
:1070BA008A98080EE82EFED700F08A908A9212006B
:1070CA00016E0150D8B46CEF38F06EEF38F072EF01
:1070DA0038F08A808A9274EF38F08A928A829568A8
:1070EA008A868A88080EE82EFED700F083CF02F03F
:1070FA008A98080EE82EFED700F08A908A920250EB
:10710A001200010EBBEC39F0000E19EC39F0000E3A
:10711A000B6E010EE5EC38F0F60E146E7F0E156E4E
:10712A00000E166E010E176EB4EC38F0280E0B6EB8
:10713A00010E0C6E280E20EC3AF0290E0B6E010E91
:10714A000C6E280E20EC3AF0280E0B6E010E0C6E17
:10715A002A0E20EC3AF0B0EF38F000EF00F0D6EF4C
:10716A0038F01650D8B4BCEF38F0BEEF38F0CAEF9A
:10717A0038F017C00BF014C0F6FF15C0F7FF08006F
:10718A00F55011EC3BF0D4EF38F017C00BF014C0F7
:10719A00F6FF15C0F7FF0800F55089EC3AF0144ADB
:1071AA00152A14C0F6FF15C0F7FF0800F5500009AC
:1071BA00D8A4E2EF38F0E4EF38F0B6EF38F0120076
:1071CA000D6E000E0C6E800E0D60EEEF38F0F0EFD3
:1071DA0038F018EF39F0070E0B64F6EF38F0F8EFD5
:1071EA0038F0FAEF38F018EF39F00DC019F00BC08B
:1071FA0018F03F0E0D6404EF39F006EF39F00AEF8C
:10720A0039F0400E0D5E010E0C6E8A940D50400945
:10721A00096E0C5044EC38F00B50B809096E0C504A
:10722A0044EC38F08A8412000B6E000E0D6E8A94BC
:10723A00400E096E000E44EC38F0400E096E010E45
:10724A0044EC38F00D50B809096E000E44EC38F0E1
:10725A000D50B809096E010E44EC38F08A84000E0C
:10726A000C6E0B50010DF3500008096E000E44EC31
:10727A0038F00B50010DF3500008096E010E44EC72
:10728A0038F00C2A3F0E0C644DEF39F04FEF39F00D
:10729A0036EF39F00D2A070E0D6456EF39F058EF24
:1072AA0039F01CEF39F01200000E066E04BE62EFD0
:1072BA0039F060EF39F068EF39F0036C041ED8B08A
:1072CA00042A010E066E02BE6FEF39F06DEF39F037
:1072DA0075EF39F0016C021ED8B0022A010E061AA7
:1072EA00000E086E000E076E03500410D8B480EF2B
:1072FA0039F082EF39F0AAEF39F0010E056E8AEF04
:10730A0039F0D89003360436052A04AE8FEF39F0E7
:10731A0091EF39F086EF39F0D890073608360350E6
:10732A00015C04500258D8A09DEF39F09FEF39F064
:10733A00A4EF39F00350015E0450025A0780D89036
:10734A0004320332052E91EF39F00650D8B4B0EF6B
:10735A0039F0B2EF39F0B6EF39F0076C081ED8B041
:10736A00082A07C001F008C002F012000F6E9268E6
:10737A00000E806E0F0EC16E000E936E000E816EAF
:10738A00000E956E000E836E000E836E8A9A310E81
:10739A000E6EB20EE82EFED70E2EFCD700D08A8AC9
:1073AA008A988A908A928A94530EE82EFED700F021
:1073BA00C00E096E000E44EC38F0C00E096E010EC4
:1073CA0044EC38F0400E096E000E44EC38F0400EE2
:1073DA00096E010E44EC38F0B80E096E000E44EC4A
:1073EA0038F0B80E096E010E44EC38F00F04D8A438
:1073FA0001EF3AF003EF3AF012EF3AF0000E926E14
:10740A0080683F0E096E000E44EC38F03F0E096E9C
:10741A00010E44EC38F01CEF3AF03E0E096E000EF5
:10742A0044EC38F03E0E096E010E44EC38F0000EC2
:10743A0019EC39F012000F6E000E116E3F0E0F6438
:10744A0029EF3AF02BEF3AF02FEF3AF0400E0F5EA9
:10745A00010E116E8A940F9E0F8C0FC009F0115005
:10746A0044EC38F00BC001F0026A000E046E080EFC
:10747A00036E59EC39F00150BF0BB809096E11506F
:10748A0044EC38F08A84115065EC38F0115065EC00
:10749A0038F0106E8A940FC009F0115044EC38F09D
:1074AA000C50D8B45BEF3AF05DEF3AF070EF3AF077
:1074BA000BC00DF0070E0D16010E0E6E0D2A68EFA9
:1074CA003AF0D8900E360D2E66EF3AF00E501010A4
:1074DA00106E82EF3AF00BC00DF0070E0D16010E7A
:1074EA000E6E0D2A7BEF3AF0D8900E360D2E79EFFC
:1074FA003AF00E50FF0A1014106E8A8410C009F078
:10750A00115044EC38F012000F6E000E116E0A0E84
:10751A000F18D8A493EF3AF095EF3AF09AEF3AF0B1
:10752A00000E196E182A10EF3BF03F0E1964A0EFF7
:10753A003AF0A2EF3AF0A9EF3AF0010E116E1950A3
:10754A00C00F0E6EABEF3AF019C00EF0200E0F5EB0
:10755A00000E106E3F0E0E64B5EF3AF0B7EF3AF038
:10756A00C9EF3AF0400E0E5E010E116E8A940E506B
:10757A004009096E010E44EC38F01850B809096E3A
:10758A00010E44EC38F08A840B50D8B4CFEF3AF0AD
:10759A00D1EF3AF0EBEF3AF00F50030D330E0C6EC9
:1075AA007F0E0D6EF3500C26F4500D2210500C264F
:1075BA00000E0D220CC0F6FF0DC0F7FF0800F5CF34
:1075CA0009F0115044EC38F004EF3BF00F50030D72
:1075DA00330E0C6E7F0E0D6EF3500C26F4500D22F6
:1075EA0010500C26000E0D220CC0F6FF0DC0F7FF3E
:1075FA000800F550FF0A096E115044EC38F00E2AC3
:10760A00102A020E10640CEF3BF00EEF3BF0AFEFC6
:10761A003AF0050E19261200106E000E136E0A0EAD
:10762A001018D8A41BEF3BF01DEF3BF022EF3BF004
:10763A00000E196E182A98EF3BF03F0E196428EFD6
:10764A003BF02AEF3BF031EF3BF0010E136E19507D
:10765A00C00F116E33EF3BF019C011F01050080D36
:10766A00F3CF0EF0F4CF0FF0000E126E3F0E11643E
:10767A0041EF3BF043EF3BF055EF3BF0400E115E1C
:10768A00010E136E8A9411504009096E010E44ECE2
:10769A0038F01850B809096E010E44EC38F08A84A3
:1076AA000B50D8B45BEF3BF05DEF3BF075EF3BF06E
:1076BA00330E0C6E770E0D6E12500C26000E0D2234
:1076CA000E500C260F500D220CC0F6FF0DC0F7FF0E
:1076DA000800F5CF09F0135044EC38F08CEF3BF07A
:1076EA00330E0C6E770E0D6E12500C26000E0D2204
:1076FA000E500C260F500D220CC0F6FF0DC0F7FFDE
:10770A000800F550FF0A096E135044EC38F0112AAC
:10771A00122A070E126494EF3BF096EF3BF03BEF10
:10772A003BF0080E192612000000000000000000BD
:10773A00000000000000000000000000000000003F
:10774A00000000000000000000000000000000002F
:10775A00000000000000000000000000000000001F
:10776A00000000000000000000000000000000000F
:10777A0000000000000000000000000000000000FF
:10778A0000000000000000000000000000000000EF
:10779A0000000000000000000000000000000000DF
:1077AA0000000000000000000000000000000000CF
:1077BA0000000000000000000000000000000000BF
:1077CA0000000000000000000000000000000000AF
:1077DA00000000000000000000000000000000009F
:1077EA00000000000000000000000000000000008F
:1077FA00000000000000000000000000000000007F
:10780A00000000000000000000000000000000006E
:10781A00000000000000000000000000000000005E
:10782A00000000000000000000000000000000004E
:10783A000000065F5F060000000007070007070058
:10784A0000147F7F147F7F1400242E6B6B3A120082
:10785A0000466630180C666200307A4F5D377A4807
:10786A00000407030000000000001C3E6341000002
:10787A00000041633E1C000000082A3E1C1C3E2AF0
:10788A000808083E3E080800000080E0600000008A
:10789A0000080808080808000000006060000000EE
:1078AA00006030180C060301003E7F71594D7F3E7F
:1078BA000040427F7F40400000627359496F660072
:1078CA0000226349497F360000181C16537F7F50F7
:1078DA0000276745457D3900003C7E4B49793000D9
:1078EA0000030371790F070000367F49497F36008C
:1078FA0000064F49693F1E0000000066660000004E
:10790A00000080E66600000000081C3663410000A3
:10791A00002424242424240000004163361C080087
:10792A0000020351590F0600003E7F415D5D1F1E94
:10793A00007C7E13137E7C0000417F7F49497F369D
:10794A00001C3E634141632200417F7F41633E1C2C
:10795A0000417F7F495D416300417F7F491D0103EB
:10796A00001C3E6341517372007F7F08087F7F00CD
:10797A000000417F7F41000000307040417F3F019D
:10798A0000417F7F081C776300417F7F4140607020
:10799A00007F7F0E1C0E7F7F007F7F060C187F7F83
:1079AA00001C3E6341633E1C00417F7F49090F066C
:1079BA00001E3F21717F5E0000417F7F09197F66AB
:1079CA0000266F4D597332000003417F7F41030047
:1079DA00007F7F40407F7F00001F3F60603F1F00A5
:1079EA00007F7F3018307F7F0043673C183C674335
:1079FA0000074F78784F070000476371594D677346
:107A0A0000007F7F41410000000103060C1830602E
:107A1A00000041417F7F000000080C0603060C08A5
:107A2A00008080808080808080000003070400003E
:107A3A0000207454543C784000417F3F48487830D5
:107A4A0000387C44446C280000307848493F7F4025
:107A5A0000387C54545C180000487E7F49030200B9
:107A6A000098BCA4A4F87C0400417F7F08047C78B9
:107A7A000000447D7D4000000060E08080FD7D00C4
:107A8A0000417F7F10386C440000417F7F40000036
:107A9A00007C7C18381C7C78007C7C04047C780090
:107AAA0000387C44447C38000084FCF8A4243C1848
:107ABA0000183C24A4F8FC8400447C784C041C186C
:107ACA0000485C54547424000000043E7F4424009F
:107ADA00003C7C40403C7C40001C3C60603C1C00FC
:107AEA00003C7C7038707C3C00446C3810386C4424
:107AFA00009CBCA0A0FC7C00004C64745C4C64003C
:107B0A000008083E77414100000000007777000036
:107B1A00004141773E080800000203010302030105
:107B2A000070784C464C7870000E9F91B1FB4A0069
:107B3A00003A7A40407A7A4000387C54555D190000
:107B4A000002237555557D7B42217554547D794039
:107B5A0000217555547C784000207457577C784032
:107B6A0000183CA4A4E4400000023B7D55555D1B6F
:107B7A0002397D54545D190000397D55545C180052
:107B8A000001457C7C410100000203457D7D4302E2
:107B9A000001457D7C40000000797D1612167D7932
:107BAA000070782B2B78700000447C7C555545007A
:107BBA0000207454547C7C54547C7E0B097F7F498A
:107BCA0000327B49497B320000327A48487A3200D7
:107BDA0000327A4A48783000003A7B41417B7A4049
:107BEA00003A7A4240787840009ABAA0A0FA7A001D
:107BFA000001193C66663C19013D7D40407D3D000F
:107C0A0000183C24E7E7242400687E7F4943662065
:107C1A00002B2FFCFC2F2B0000FFFF09092FF6F881
:107C2A00A040C088FE7F090302207454557D794024
:107C3A000000447D7D410000003078484A7A3200D5
:107C4A0000387840427A7A40007A7A0A0A7A7000D2
:107C5A00007D7D19317D7D000000262F292F2F28D8
:107C6A000000262F292F26000030784D456020007D
:107C7A0000383808080808000008080808383800DA
:107C8A00004F6F3018CCEEBB914F6F30186C76FBFB
:107C9A00F90000007B7B000000081C3622081C3615
:107CAA002222361C0822361C08AA005500AA0055B2
:107CBA0000AA55AA55AA55AA55DDFFAA77DDAAFF3B
:107CCA0077000000FFFF000000101010FFFF000007
:107CDA0000141414FFFF0000001010FFFF00FFFF44
:107CEA00001010F0F010F0F000141414FCFC000066
:107CFA00001414F7F700FFFF000000FFFF00FFFF6A
:107D0A00001414F4F404FCFC0014141717101F1FB9
:107D1A000010101F1F101F1F001414141F1F000033
:107D2A0000101010F0F00000000000001F1F1010DB
:107D3A00101010101F1F101010101010F0F010105B
:107D4A0010000000FFFF101010101010101010107B
:107D5A0010101010FFFF101010000000FFFF141485
:107D6A00140000FFFF00FFFF1000001F1F1017176D
:107D7A00140000FCFC04F4F4141414171710171759
:107D8A00141414F4F404F4F4140000FFFF00F7F7D9
:107D9A001414141414141414141414F7F700F7F721
:107DAA0014141414171714141410101F1F101F1F63
:107DBA0010141414F4F41414141010F0F010F0F059
:107DCA001000001F1F101F1F100000001F1F141497
:107DDA0014000000FCFC1414140000F0F010F0F081
:107DEA00101010FFFF10FFFF10141414FFFF1414DB
:107DFA00141010101F1F000000000000F0F01010F7
:107E0A0010FFFFFFFFFFFFFFFFF0F0F0F0F0F0F0D0
:107E1A00F0FFFFFFFF0000000000000000FFFFFF6F
:107E2A00FF0F0F0F0F0F0F0F0F387C446C386C4485
:107E3A0000FCFE2A2A3E1400007E7E02020606008C
:107E4A0000027E7E027E7E020063775D49636300E4
:107E5A0000387C447C3C04040080FE7E20203E1EC8
:107E6A00000406027E7C06020099BDE7E7BD990080
:107E7A00001C3E6B496B3E1C004C7E7301737E4CAA
:107E8A000030784A4F7D390000183C243C3C243CA1
:107E9A001898FC643C3E273D1800000000000000D2
:107EAA0000000000000000000000000000000000C8
:107EBA0000000000000000000000000000000000B8
:107ECA0000000000000000000000000000000000A8
:107EDA000000000000000000000000000000000098
:107EEA000000000000000000000000000000000088
:107EFA000000000000000000000000000000000078
:107F0A000000000000000000000000000000000067
:107F1A000000000000000000000000000000000057
:107F2A00000000000000000000000000005C000CDF
:107F3A00000C7C287C7C447C241048285408000CC3
:107F4A0000384400443800201008103810804000DF
:107F5A00101010004000201008384438007C0064DB
:107F6A0054484454281C107C4C542438542004741B
:107F7A000C28542808543800500080500010284417
:107F8A00282828442810045408384C5C7814787C33
:107F9A0054283844447C44387C54447C140438447F
:107FAA00347C107C007C0020403C7C106C7C40407F
:107FBA007C087C7C047C7C447C7C14083844787C77
:107FCA001468485424047C047C407C3C403C7C205B
:107FDA007C6C106C1C601C64544C7C44000810209F
:107FEA00447C0008040880808004080048454C4C02
:057FFA004F20210000F2
:020000040020DA
:08000000FFFFFFFFFFFFFFFF00
:020000040030CA
:0E000000000C1F1FFF8381FF0FC00FE00F4099
:00000001FF
